{
  "address": "0x3705f330B593b28B3663a3C4BC2c7C5565988d18",
  "abi": [
    {
      "inputs": [
        {
          "internalType": "address",
          "name": "_validatorAddress",
          "type": "address"
        }
      ],
      "stateMutability": "nonpayable",
      "type": "constructor"
    },
    {
      "anonymous": false,
      "inputs": [
        {
          "indexed": false,
          "internalType": "string",
          "name": "franchiseeId",
          "type": "string"
        },
        {
          "indexed": false,
          "internalType": "uint256",
          "name": "provideWaitTime",
          "type": "uint256"
        },
        {
          "indexed": false,
          "internalType": "bytes32",
          "name": "email",
          "type": "bytes32"
        }
      ],
      "name": "AddedFranchisee",
      "type": "event"
    },
    {
      "anonymous": false,
      "inputs": [
        {
          "indexed": false,
          "internalType": "string",
          "name": "franchiseeId",
          "type": "string"
        },
        {
          "indexed": false,
          "internalType": "uint256",
          "name": "increase",
          "type": "uint256"
        },
        {
          "indexed": false,
          "internalType": "uint256",
          "name": "total",
          "type": "uint256"
        },
        {
          "indexed": false,
          "internalType": "string",
          "name": "purchaseId",
          "type": "string"
        }
      ],
      "name": "IncreasedClearedMileage",
      "type": "event"
    },
    {
      "anonymous": false,
      "inputs": [
        {
          "indexed": false,
          "internalType": "string",
          "name": "franchiseeId",
          "type": "string"
        },
        {
          "indexed": false,
          "internalType": "uint256",
          "name": "increase",
          "type": "uint256"
        },
        {
          "indexed": false,
          "internalType": "uint256",
          "name": "total",
          "type": "uint256"
        },
        {
          "indexed": false,
          "internalType": "string",
          "name": "purchaseId",
          "type": "string"
        }
      ],
      "name": "IncreasedProvidedMileage",
      "type": "event"
    },
    {
      "anonymous": false,
      "inputs": [
        {
          "indexed": false,
          "internalType": "string",
          "name": "franchiseeId",
          "type": "string"
        },
        {
          "indexed": false,
          "internalType": "uint256",
          "name": "increase",
          "type": "uint256"
        },
        {
          "indexed": false,
          "internalType": "uint256",
          "name": "total",
          "type": "uint256"
        },
        {
          "indexed": false,
          "internalType": "string",
          "name": "purchaseId",
          "type": "string"
        }
      ],
      "name": "IncreasedUsedMileage",
      "type": "event"
    },
    {
      "inputs": [],
      "name": "NULL",
      "outputs": [
        {
          "internalType": "bytes32",
          "name": "",
          "type": "bytes32"
        }
      ],
      "stateMutability": "view",
      "type": "function"
    },
    {
      "inputs": [
        {
          "internalType": "string",
          "name": "_franchiseeId",
          "type": "string"
        },
        {
          "internalType": "uint256",
          "name": "_payoutWaitTime",
          "type": "uint256"
        },
        {
          "internalType": "bytes32",
          "name": "_email",
          "type": "bytes32"
        }
      ],
      "name": "add",
      "outputs": [],
      "stateMutability": "nonpayable",
      "type": "function"
    },
    {
      "inputs": [
        {
          "internalType": "string",
          "name": "_franchiseeId",
          "type": "string"
        },
        {
          "internalType": "uint256",
          "name": "_amount",
          "type": "uint256"
        },
        {
          "internalType": "string",
          "name": "_purchaseId",
          "type": "string"
        }
      ],
      "name": "addClearedMileage",
      "outputs": [],
      "stateMutability": "nonpayable",
      "type": "function"
    },
    {
      "inputs": [
        {
          "internalType": "string",
          "name": "_franchiseeId",
          "type": "string"
        },
        {
          "internalType": "uint256",
          "name": "_amount",
          "type": "uint256"
        },
        {
          "internalType": "string",
          "name": "_purchaseId",
          "type": "string"
        }
      ],
      "name": "addProvidedMileage",
      "outputs": [],
      "stateMutability": "nonpayable",
      "type": "function"
    },
    {
      "inputs": [
        {
          "internalType": "string",
          "name": "_franchiseeId",
          "type": "string"
        },
        {
          "internalType": "uint256",
          "name": "_amount",
          "type": "uint256"
        },
        {
          "internalType": "string",
          "name": "_purchaseId",
          "type": "string"
        }
      ],
      "name": "addUsedMileage",
      "outputs": [],
      "stateMutability": "nonpayable",
      "type": "function"
    },
    {
      "inputs": [],
      "name": "deployer",
      "outputs": [
        {
          "internalType": "address",
          "name": "",
          "type": "address"
        }
      ],
      "stateMutability": "view",
      "type": "function"
    },
    {
      "inputs": [
        {
          "internalType": "uint256",
          "name": "_idx",
          "type": "uint256"
        }
      ],
      "name": "franchiseeIdOf",
      "outputs": [
        {
          "internalType": "string",
          "name": "",
          "type": "string"
        }
      ],
      "stateMutability": "view",
      "type": "function"
    },
    {
      "inputs": [
        {
          "internalType": "string",
          "name": "_franchiseeId",
          "type": "string"
        }
      ],
      "name": "franchiseeOf",
      "outputs": [
        {
          "components": [
            {
              "internalType": "string",
              "name": "franchiseeId",
              "type": "string"
            },
            {
              "internalType": "uint256",
              "name": "provideWaitTime",
              "type": "uint256"
            },
            {
              "internalType": "bytes32",
              "name": "email",
              "type": "bytes32"
            },
            {
              "internalType": "uint256",
              "name": "providedMileage",
              "type": "uint256"
            },
            {
              "internalType": "uint256",
              "name": "usedMileage",
              "type": "uint256"
            },
            {
              "internalType": "uint256",
              "name": "clearedMileage",
              "type": "uint256"
            },
            {
              "internalType": "enum FranchiseeCollection.FranchiseeStatus",
              "name": "status",
              "type": "uint8"
            }
          ],
          "internalType": "struct FranchiseeCollection.FranchiseeData",
          "name": "",
          "type": "tuple"
        }
      ],
      "stateMutability": "view",
      "type": "function"
    },
    {
      "inputs": [],
      "name": "franchiseesLength",
      "outputs": [
        {
          "internalType": "uint256",
          "name": "",
          "type": "uint256"
        }
      ],
      "stateMutability": "view",
      "type": "function"
    },
    {
      "inputs": [
        {
          "internalType": "string",
          "name": "_franchiseeId",
          "type": "string"
        }
      ],
      "name": "getClearMileage",
      "outputs": [
        {
          "internalType": "uint256",
          "name": "",
          "type": "uint256"
        }
      ],
      "stateMutability": "view",
      "type": "function"
    },
    {
      "inputs": [],
      "name": "ledgerAddress",
      "outputs": [
        {
          "internalType": "address",
          "name": "",
          "type": "address"
        }
      ],
      "stateMutability": "view",
      "type": "function"
    },
    {
      "inputs": [
        {
          "internalType": "address",
          "name": "_ledgerAddress",
          "type": "address"
        }
      ],
      "name": "setLedgerAddress",
      "outputs": [],
      "stateMutability": "nonpayable",
      "type": "function"
    },
    {
      "inputs": [],
      "name": "validatorAddress",
      "outputs": [
        {
          "internalType": "address",
          "name": "",
          "type": "address"
        }
      ],
      "stateMutability": "view",
      "type": "function"
    }
  ],
  "transactionHash": "0xd1796461bfae83d12048d5869f6591b067f2dc63a8c4945b3aaa50e3c37f9fb8",
  "args": [
    "0x43Bc973075748Afc704D9b59B156f9b9E24b73fb"
  ],
  "numDeployments": 1,
  "solcInputHash": "8f6323560f5d0c776c4ad5af60f0ed71",
  "bytecode": "0x608060405234801561001057600080fd5b5060405161142238038061142283398101604081905261002f91610072565b600280546001600160a01b039092166001600160a01b031992831681179091556003805483169091179055600480548216905560058054909116331790556100a0565b600060208284031215610083578081fd5b81516001600160a01b0381168114610099578182fd5b9392505050565b611373806100af6000396000f3fe608060405234801561001057600080fd5b50600436106100df5760003560e01c8063a6cd52f51161008c578063ba9e92d111610066578063ba9e92d1146101ab578063d1d20056146101cb578063d5f39488146101d3578063f26be3fc146101db576100df565b8063a6cd52f514610172578063b023e1cc14610185578063ba891f5c14610198576100df565b80634a9c2fcf116100bd5780634a9c2fcf1461012c5780635d404c6a1461014c57806377f60f371461015f576100df565b8063094d497a146100e45780633fe4676e1461010257806349cd54ab14610117575b600080fd5b6100ec6101e3565b6040516100f99190611082565b60405180910390f35b61010a6101e9565b6040516100f9919061106e565b61012a610125366004610f8c565b6101f8565b005b61013f61013a366004610f05565b61033b565b6040516100f991906111a4565b6100ec61015a366004610f05565b610486565b61012a61016d366004610f8c565b610670565b61012a610180366004610f8c565b61079d565b61012a610193366004610f40565b6108ca565b61012a6101a6366004610ec6565b610a57565b6101be6101b9366004610ff6565b610ac2565b6040516100f9919061108b565b61010a610b7f565b61010a610b8e565b6100ec610b9d565b60015490565b6002546001600160a01b031681565b6004546001600160a01b0316331461022b5760405162461bcd60e51b81526004016102229061116d565b60405180910390fd5b6000808460405161023c9190611052565b9081526040519081900360200190206006015460ff16600181111561027157634e487b7160e01b600052602160045260246000fd5b14156102a3576102a38360007fe3b0c44298fc1c149afbf4c8996fb92427ae41e4649b934ca495991b7852b855610bc1565b816000846040516102b49190611052565b908152602001604051809103902060050160008282546102d49190611226565b925050819055507f0ac277c5c4fe6d32e4031b2eda8cded4bb123e8df4b21c5c9cd424d36077ba95838360008660405161030e9190611052565b9081526040519081900360200181206005015461032e93929186906110c3565b60405180910390a1505050565b610343610d4e565b6000826040516103539190611052565b90815260200160405180910390206040518060e001604052908160008201805461037c90611285565b80601f01602080910402602001604051908101604052809291908181526020018280546103a890611285565b80156103f55780601f106103ca576101008083540402835291602001916103f5565b820191906000526020600020905b8154815290600101906020018083116103d857829003601f168201915b50505091835250506001828101546020830152600283015460408301526003830154606083015260048301546080830152600583015460a0830152600683015460c09092019160ff169081111561045c57634e487b7160e01b600052602160045260246000fd5b600181111561047b57634e487b7160e01b600052602160045260246000fd5b90525090505b919050565b6000600160008360405161049a9190611052565b9081526040519081900360200190206006015460ff1660018111156104cf57634e487b7160e01b600052602160045260246000fd5b141561066857600080836040516104e69190611052565b90815260200160405180910390206040518060e001604052908160008201805461050f90611285565b80601f016020809104026020016040519081016040528092919081815260200182805461053b90611285565b80156105885780601f1061055d57610100808354040283529160200191610588565b820191906000526020600020905b81548152906001019060200180831161056b57829003601f168201915b50505091835250506001828101546020830152600283015460408301526003830154606083015260048301546080830152600583015460a0830152600683015460c09092019160ff16908111156105ef57634e487b7160e01b600052602160045260246000fd5b600181111561060e57634e487b7160e01b600052602160045260246000fd5b81525050905080608001518160a00151826060015161062d9190611226565b101561065e578060a001518160600151826080015161064c919061123e565b610656919061123e565b915050610481565b6000915050610481565b506000610481565b6004546001600160a01b0316331461069a5760405162461bcd60e51b81526004016102229061116d565b600080846040516106ab9190611052565b9081526040519081900360200190206006015460ff1660018111156106e057634e487b7160e01b600052602160045260246000fd5b1415610712576107128360007fe3b0c44298fc1c149afbf4c8996fb92427ae41e4649b934ca495991b7852b855610bc1565b816000846040516107239190611052565b908152602001604051809103902060040160008282546107439190611226565b925050819055507fb360df333d5be540e314fc839fb4a7e1485718ff0b2e23b45b2519c22615546f838360008660405161077d9190611052565b9081526040519081900360200181206004015461032e93929186906110c3565b6004546001600160a01b031633146107c75760405162461bcd60e51b81526004016102229061116d565b600080846040516107d89190611052565b9081526040519081900360200190206006015460ff16600181111561080d57634e487b7160e01b600052602160045260246000fd5b141561083f5761083f8360007fe3b0c44298fc1c149afbf4c8996fb92427ae41e4649b934ca495991b7852b855610bc1565b816000846040516108509190611052565b908152602001604051809103902060030160008282546108709190611226565b925050819055507f169918161fee3fa37be845fd562b6e3d50e9b8534ea6d5653b5ac4ec99784e0383836000866040516108aa9190611052565b9081526040519081900360200181206003015461032e93929186906110c3565b336000805b600360009054906101000a90046001600160a01b03166001600160a01b03166377172f0e6040518163ffffffff1660e01b815260040160206040518083038186803b15801561091d57600080fd5b505afa158015610931573d6000803e3d6000fd5b505050506040513d601f19601f82011682018060405250810190610955919061100e565b811015610a27576003546040517f7a5e8be90000000000000000000000000000000000000000000000000000000081526001600160a01b0390911690637a5e8be9906109a5908490600401611082565b60206040518083038186803b1580156109bd57600080fd5b505afa1580156109d1573d6000803e3d6000fd5b505050506040513d601f19601f820116820180604052508101906109f59190610ee9565b6001600160a01b0316836001600160a01b03161415610a175760019150610a27565b610a20816112c0565b90506108cf565b5080610a455760405162461bcd60e51b8152600401610222906110ff565b610a50858585610bc1565b5050505050565b6005546001600160a01b03163314610a815760405162461bcd60e51b815260040161022290611136565b600480546001600160a01b039092167fffffffffffffffffffffffff0000000000000000000000000000000000000000928316179055600580549091169055565b606060018281548110610ae557634e487b7160e01b600052603260045260246000fd5b906000526020600020018054610afa90611285565b80601f0160208091040260200160405190810160405280929190818152602001828054610b2690611285565b8015610b735780601f10610b4857610100808354040283529160200191610b73565b820191906000526020600020905b815481529060010190602001808311610b5657829003601f168201915b50505050509050919050565b6004546001600160a01b031681565b6005546001600160a01b031681565b7fe3b0c44298fc1c149afbf4c8996fb92427ae41e4649b934ca495991b7852b85581565b60006040518060e00160405280858152602001848152602001838152602001600081526020016000815260200160008152602001600180811115610c1557634e487b7160e01b600052602160045260246000fd5b90526001805480820182556000919091528551919250610c5e917fb10e2d527612073b26eecdfd717e6a320cf44b4afac2b0732d9fcbe2b7fa0cf6909101906020870190610dac565b5080600085604051610c709190611052565b90815260200160405180910390206000820151816000019080519060200190610c9a929190610dac565b506020820151816001015560408201518160020155606082015181600301556080820151816004015560a0820151816005015560c08201518160060160006101000a81548160ff02191690836001811115610d0557634e487b7160e01b600052602160045260246000fd5b02179055509050507f476058124261a8ae7e4d41820cb41462ba0e68b6514d039da02bd6f181abb05d848484604051610d409392919061109e565b60405180910390a150505050565b6040518060e0016040528060608152602001600081526020016000801916815260200160008152602001600081526020016000815260200160006001811115610da757634e487b7160e01b600052602160045260246000fd5b905290565b828054610db890611285565b90600052602060002090601f016020900481019282610dda5760008555610e20565b82601f10610df357805160ff1916838001178555610e20565b82800160010185558215610e20579182015b82811115610e20578251825591602001919060010190610e05565b50610e2c929150610e30565b5090565b5b80821115610e2c5760008155600101610e31565b600082601f830112610e55578081fd5b813567ffffffffffffffff80821115610e7057610e7061130f565b6040516020601f19601f8501168201018181108382111715610e9457610e9461130f565b604052828152848301602001861015610eab578384fd5b82602086016020830137918201602001929092529392505050565b600060208284031215610ed7578081fd5b8135610ee281611325565b9392505050565b600060208284031215610efa578081fd5b8151610ee281611325565b600060208284031215610f16578081fd5b813567ffffffffffffffff811115610f2c578182fd5b610f3884828501610e45565b949350505050565b600080600060608486031215610f54578182fd5b833567ffffffffffffffff811115610f6a578283fd5b610f7686828701610e45565b9660208601359650604090950135949350505050565b600080600060608486031215610fa0578283fd5b833567ffffffffffffffff80821115610fb7578485fd5b610fc387838801610e45565b9450602086013593506040860135915080821115610fdf578283fd5b50610fec86828701610e45565b9150509250925092565b600060208284031215611007578081fd5b5035919050565b60006020828403121561101f578081fd5b5051919050565b6000815180845261103e816020860160208601611255565b601f01601f19169290920160200192915050565b60008251611064818460208701611255565b9190910192915050565b6001600160a01b0391909116815260200190565b90815260200190565b600060208252610ee26020830184611026565b6000606082526110b16060830186611026565b60208301949094525060400152919050565b6000608082526110d66080830187611026565b85602084015284604084015282810360608401526110f48185611026565b979650505050505050565b6020808252600d908201527f4e6f742076616c696461746f7200000000000000000000000000000000000000604082015260600190565b6020808252600e908201527f4e6f207065726d697373696f6e73000000000000000000000000000000000000604082015260600190565b6020808252600a908201527f4e6f74206c656467657200000000000000000000000000000000000000000000604082015260600190565b600060208252825160e060208401526111c1610100840182611026565b9050602084015160408401526040840151606084015260608401516080840152608084015160a084015260a084015160c084015260c08401516002811061121657634e487b7160e01b83526021600452602483fd5b60e0939093019290925250919050565b60008219821115611239576112396112f9565b500190565b600082821015611250576112506112f9565b500390565b60005b83811015611270578181015183820152602001611258565b8381111561127f576000848401525b50505050565b60028104600182168061129957607f821691505b602082108114156112ba57634e487b7160e01b600052602260045260246000fd5b50919050565b60007fffffffffffffffffffffffffffffffffffffffffffffffffffffffffffffffff8214156112f2576112f26112f9565b5060010190565b634e487b7160e01b600052601160045260246000fd5b634e487b7160e01b600052604160045260246000fd5b6001600160a01b038116811461133a57600080fd5b5056fea2646970667358221220a8e43a5748d5a1e966f32014f033a17a1be5a3b00e20a699caaed1a65f4a3f8f64736f6c63430008000033",
  "devdoc": {
    "kind": "dev",
    "methods": {
      "add(string,uint256,bytes32)": {
        "params": {
          "_email": "  ",
          "_franchiseeId": " ",
          "_payoutWaitTime": "    "
        }
      },
      "constructor": {
        "params": {
          "_validatorAddress": " "
        }
      },
      "franchiseeIdOf(uint256)": {
        "params": {
          "_idx": " "
        }
      },
      "franchiseeOf(string)": {
        "params": {
          "_franchiseeId": " "
        }
      }
    },
    "version": 1
  },
  "userdoc": {
    "events": {
      "AddedFranchisee(string,uint256,bytes32)": {
        "notice": "    "
      },
      "IncreasedClearedMileage(string,uint256,uint256,string)": {
        "notice": "     "
      },
      "IncreasedProvidedMileage(string,uint256,uint256,string)": {
        "notice": "     "
      },
      "IncreasedUsedMileage(string,uint256,uint256,string)": {
        "notice": "     "
      }
    },
    "kind": "user",
    "methods": {
      "NULL()": {
        "notice": "Hash value of a blank string"
      },
      "add(string,uint256,bytes32)": {
        "notice": " "
      },
      "addClearedMileage(string,uint256,string)": {
        "notice": "   "
      },
      "addProvidedMileage(string,uint256,string)": {
        "notice": "   "
      },
      "addUsedMileage(string,uint256,string)": {
        "notice": "   "
      },
      "constructor": {
        "notice": ""
      },
      "franchiseeIdOf(uint256)": {
        "notice": "  "
      },
      "franchiseeOf(string)": {
        "notice": "  "
      },
      "franchiseesLength()": {
        "notice": "  "
      },
      "getClearMileage(string)": {
        "notice": "    ."
      },
      "setLedgerAddress(address)": {
        "notice": "   ."
      }
    },
    "notice": "",
    "version": 1
  },
  "storageLayout": {
    "storage": [
      {
        "astId": 2734,
        "contract": "contracts/FranchiseeCollection.sol:FranchiseeCollection",
        "label": "franchisees",
        "offset": 0,
        "slot": "0",
        "type": "t_mapping(t_string_memory_ptr,t_struct(FranchiseeData)2729_storage)"
      },
      {
        "astId": 2737,
        "contract": "contracts/FranchiseeCollection.sol:FranchiseeCollection",
        "label": "items",
        "offset": 0,
        "slot": "1",
        "type": "t_array(t_string_storage)dyn_storage"
      },
      {
        "astId": 2739,
        "contract": "contracts/FranchiseeCollection.sol:FranchiseeCollection",
        "label": "validatorAddress",
        "offset": 0,
        "slot": "2",
        "type": "t_address"
      },
      {
        "astId": 2742,
        "contract": "contracts/FranchiseeCollection.sol:FranchiseeCollection",
        "label": "validatorCollection",
        "offset": 0,
        "slot": "3",
        "type": "t_contract(ValidatorCollection)5358"
      },
      {
        "astId": 2786,
        "contract": "contracts/FranchiseeCollection.sol:FranchiseeCollection",
        "label": "ledgerAddress",
        "offset": 0,
        "slot": "4",
        "type": "t_address"
      },
      {
        "astId": 2788,
        "contract": "contracts/FranchiseeCollection.sol:FranchiseeCollection",
        "label": "deployer",
        "offset": 0,
        "slot": "5",
        "type": "t_address"
      }
    ],
    "types": {
      "t_address": {
        "encoding": "inplace",
        "label": "address",
        "numberOfBytes": "20"
      },
      "t_array(t_string_storage)dyn_storage": {
        "base": "t_string_storage",
        "encoding": "dynamic_array",
        "label": "string[]",
        "numberOfBytes": "32"
      },
      "t_bytes32": {
        "encoding": "inplace",
        "label": "bytes32",
        "numberOfBytes": "32"
      },
      "t_contract(ValidatorCollection)5358": {
        "encoding": "inplace",
        "label": "contract ValidatorCollection",
        "numberOfBytes": "20"
      },
      "t_enum(FranchiseeStatus)2713": {
        "encoding": "inplace",
        "label": "enum FranchiseeCollection.FranchiseeStatus",
        "numberOfBytes": "1"
      },
      "t_mapping(t_string_memory_ptr,t_struct(FranchiseeData)2729_storage)": {
        "encoding": "mapping",
        "key": "t_string_memory_ptr",
        "label": "mapping(string => struct FranchiseeCollection.FranchiseeData)",
        "numberOfBytes": "32",
        "value": "t_struct(FranchiseeData)2729_storage"
      },
      "t_string_memory_ptr": {
        "encoding": "bytes",
        "label": "string",
        "numberOfBytes": "32"
      },
      "t_string_storage": {
        "encoding": "bytes",
        "label": "string",
        "numberOfBytes": "32"
      },
      "t_struct(FranchiseeData)2729_storage": {
        "encoding": "inplace",
        "label": "struct FranchiseeCollection.FranchiseeData",
        "members": [
          {
            "astId": 2715,
            "contract": "contracts/FranchiseeCollection.sol:FranchiseeCollection",
            "label": "franchiseeId",
            "offset": 0,
            "slot": "0",
            "type": "t_string_storage"
          },
          {
            "astId": 2717,
            "contract": "contracts/FranchiseeCollection.sol:FranchiseeCollection",
            "label": "provideWaitTime",
            "offset": 0,
            "slot": "1",
            "type": "t_uint256"
          },
          {
            "astId": 2719,
            "contract": "contracts/FranchiseeCollection.sol:FranchiseeCollection",
            "label": "email",
            "offset": 0,
            "slot": "2",
            "type": "t_bytes32"
          },
          {
            "astId": 2721,
            "contract": "contracts/FranchiseeCollection.sol:FranchiseeCollection",
            "label": "providedMileage",
            "offset": 0,
            "slot": "3",
            "type": "t_uint256"
          },
          {
            "astId": 2723,
            "contract": "contracts/FranchiseeCollection.sol:FranchiseeCollection",
            "label": "usedMileage",
            "offset": 0,
            "slot": "4",
            "type": "t_uint256"
          },
          {
            "astId": 2725,
            "contract": "contracts/FranchiseeCollection.sol:FranchiseeCollection",
            "label": "clearedMileage",
            "offset": 0,
            "slot": "5",
            "type": "t_uint256"
          },
          {
            "astId": 2728,
            "contract": "contracts/FranchiseeCollection.sol:FranchiseeCollection",
            "label": "status",
            "offset": 0,
            "slot": "6",
            "type": "t_enum(FranchiseeStatus)2713"
          }
        ],
        "numberOfBytes": "224"
      },
      "t_uint256": {
        "encoding": "inplace",
        "label": "uint256",
        "numberOfBytes": "32"
      }
    }
  }
}