{
  "address": "0x2473770AdCAB3253504f8d9B46dA22417037a2ce",
  "abi": [
    {
      "inputs": [
        {
          "internalType": "address",
          "name": "_validatorAddress",
          "type": "address"
        }
      ],
      "stateMutability": "nonpayable",
      "type": "constructor"
    },
    {
      "anonymous": false,
      "inputs": [
        {
          "indexed": false,
          "internalType": "string",
          "name": "currency",
          "type": "string"
        },
        {
          "indexed": false,
          "internalType": "uint256",
          "name": "price",
          "type": "uint256"
        }
      ],
      "name": "SetPrice",
      "type": "event"
    },
    {
      "inputs": [],
      "name": "MULTIPLE",
      "outputs": [
        {
          "internalType": "uint256",
          "name": "",
          "type": "uint256"
        }
      ],
      "stateMutability": "view",
      "type": "function"
    },
    {
      "inputs": [
        {
          "internalType": "string",
          "name": "_currency",
          "type": "string"
        }
      ],
      "name": "get",
      "outputs": [
        {
          "internalType": "uint256",
          "name": "",
          "type": "uint256"
        }
      ],
      "stateMutability": "view",
      "type": "function"
    },
    {
      "inputs": [
        {
          "internalType": "string",
          "name": "_currency",
          "type": "string"
        },
        {
          "internalType": "uint256",
          "name": "_price",
          "type": "uint256"
        }
      ],
      "name": "set",
      "outputs": [],
      "stateMutability": "nonpayable",
      "type": "function"
    },
    {
      "inputs": [],
      "name": "validatorAddress",
      "outputs": [
        {
          "internalType": "address",
          "name": "",
          "type": "address"
        }
      ],
      "stateMutability": "view",
      "type": "function"
    }
  ],
  "transactionHash": "0x3a4d1764faf093a295fe7a0bea09b8f87020482d7249fe377d41c7982be1a3c2",
  "args": [
    "0x43Bc973075748Afc704D9b59B156f9b9E24b73fb"
  ],
  "numDeployments": 1,
  "solcInputHash": "6aeb5c0a3dc6e50881dca4e2212ca1b0",
  "bytecode": "0x608060405234801561001057600080fd5b506040516106d03803806106d083398101604081905261002f9161005e565b600180546001600160a01b039092166001600160a01b031992831681179091556002805490921617905561008c565b60006020828403121561006f578081fd5b81516001600160a01b0381168114610085578182fd5b9392505050565b6106358061009b6000396000f3fe608060405234801561001057600080fd5b506004361061004c5760003560e01c80633fe4676e14610051578063693ec85e1461006f5780637516a79e1461008f5780638a42ebe914610097575b600080fd5b6100596100ac565b60405161006691906104a6565b60405180910390f35b61008261007d3660046103f4565b6100c8565b6040516100669190610539565b6100826100ef565b6100aa6100a536600461042f565b6100f7565b005b60015473ffffffffffffffffffffffffffffffffffffffff1681565b600080826040516100d9919061048a565b9081526020016040518091039020549050919050565b633b9aca0081565b336000805b600260009054906101000a900473ffffffffffffffffffffffffffffffffffffffff1673ffffffffffffffffffffffffffffffffffffffff166377172f0e6040518163ffffffff1660e01b815260040160206040518083038186803b15801561016457600080fd5b505afa158015610178573d6000803e3d6000fd5b505050506040513d601f19601f8201168201806040525081019061019c9190610472565b811015610295576002546040517f7a5e8be900000000000000000000000000000000000000000000000000000000815273ffffffffffffffffffffffffffffffffffffffff90911690637a5e8be9906101f9908490600401610539565b60206040518083038186803b15801561021157600080fd5b505afa158015610225573d6000803e3d6000fd5b505050506040513d601f19601f8201168201806040525081019061024991906103b9565b73ffffffffffffffffffffffffffffffffffffffff168373ffffffffffffffffffffffffffffffffffffffff1614156102855760019150610295565b61028e81610572565b90506100fc565b50806102d6576040517f08c379a00000000000000000000000000000000000000000000000000000000081526004016102cd90610502565b60405180910390fd5b826000856040516102e7919061048a565b9081526020016040518091039020819055507f14735e2c0cd7e16a25f316cdd058b58299fc5f725b090e11835ca139a2803405848460405161032a9291906104c7565b60405180910390a150505050565b600082601f830112610348578081fd5b813567ffffffffffffffff80821115610363576103636105d0565b6040516020601f19601f8501168201018181108382111715610387576103876105d0565b60405282815284830160200186101561039e578384fd5b82602086016020830137918201602001929092529392505050565b6000602082840312156103ca578081fd5b815173ffffffffffffffffffffffffffffffffffffffff811681146103ed578182fd5b9392505050565b600060208284031215610405578081fd5b813567ffffffffffffffff81111561041b578182fd5b61042784828501610338565b949350505050565b60008060408385031215610441578081fd5b823567ffffffffffffffff811115610457578182fd5b61046385828601610338565b95602094909401359450505050565b600060208284031215610483578081fd5b5051919050565b6000825161049c818460208701610542565b9190910192915050565b73ffffffffffffffffffffffffffffffffffffffff91909116815260200190565b60006040825283518060408401526104e6816060850160208801610542565b602083019390935250601f91909101601f191601606001919050565b6020808252600d908201527f4e6f742076616c696461746f7200000000000000000000000000000000000000604082015260600190565b90815260200190565b60005b8381101561055d578181015183820152602001610545565b8381111561056c576000848401525b50505050565b60007fffffffffffffffffffffffffffffffffffffffffffffffffffffffffffffffff8214156105c9577f4e487b710000000000000000000000000000000000000000000000000000000081526011600452602481fd5b5060010190565b7f4e487b7100000000000000000000000000000000000000000000000000000000600052604160045260246000fdfea2646970667358221220b39a7bba54f82921a56f43dc811e4e9f0b34ddf10ce9c764301bd0192074c04664736f6c63430008000033",
  "devdoc": {
    "kind": "dev",
    "methods": {
      "constructor": {
        "params": {
          "_validatorAddress": "검증자컬랙션의 주소"
        }
      },
      "get(string)": {
        "params": {
          "_currency": "통화명"
        }
      },
      "set(string,uint256)": {
        "params": {
          "_currency": "통화명",
          "_price": "토큰의 가격"
        }
      }
    },
    "version": 1
  },
  "userdoc": {
    "events": {
      "SetPrice(string,uint256)": {
        "notice": "가격이 저장될 때 발생되는 이벤트"
      }
    },
    "kind": "user",
    "methods": {
      "constructor": {
        "notice": "생성자"
      },
      "get(string)": {
        "notice": "통화에 대한 가격을 제공한다."
      },
      "set(string,uint256)": {
        "notice": "통화에 대한 가격을 저장한다."
      }
    },
    "notice": "토큰 가격을 제공하는 스마트컨트랙트",
    "version": 1
  },
  "storageLayout": {
    "storage": [
      {
        "astId": 4152,
        "contract": "contracts/TokenPrice.sol:TokenPrice",
        "label": "prices",
        "offset": 0,
        "slot": "0",
        "type": "t_mapping(t_string_memory_ptr,t_uint256)"
      },
      {
        "astId": 4154,
        "contract": "contracts/TokenPrice.sol:TokenPrice",
        "label": "validatorAddress",
        "offset": 0,
        "slot": "1",
        "type": "t_address"
      },
      {
        "astId": 4157,
        "contract": "contracts/TokenPrice.sol:TokenPrice",
        "label": "validatorCollection",
        "offset": 0,
        "slot": "2",
        "type": "t_contract(ValidatorCollection)4933"
      }
    ],
    "types": {
      "t_address": {
        "encoding": "inplace",
        "label": "address",
        "numberOfBytes": "20"
      },
      "t_contract(ValidatorCollection)4933": {
        "encoding": "inplace",
        "label": "contract ValidatorCollection",
        "numberOfBytes": "20"
      },
      "t_mapping(t_string_memory_ptr,t_uint256)": {
        "encoding": "mapping",
        "key": "t_string_memory_ptr",
        "label": "mapping(string => uint256)",
        "numberOfBytes": "32",
        "value": "t_uint256"
      },
      "t_string_memory_ptr": {
        "encoding": "bytes",
        "label": "string",
        "numberOfBytes": "32"
      },
      "t_uint256": {
        "encoding": "inplace",
        "label": "uint256",
        "numberOfBytes": "32"
      }
    }
  }
}