{
  "address": "0x52bB9258733086243Ad1a4A818945F94BCAd05B9",
  "abi": [
    {
      "inputs": [
        {
          "internalType": "address",
          "name": "_validatorAddress",
          "type": "address"
        }
      ],
      "stateMutability": "nonpayable",
      "type": "constructor"
    },
    {
      "anonymous": false,
      "inputs": [
        {
          "indexed": false,
          "internalType": "string",
          "name": "franchiseeId",
          "type": "string"
        },
        {
          "indexed": false,
          "internalType": "uint256",
          "name": "timestamp",
          "type": "uint256"
        },
        {
          "indexed": false,
          "internalType": "bytes32",
          "name": "email",
          "type": "bytes32"
        }
      ],
      "name": "Added",
      "type": "event"
    },
    {
      "anonymous": false,
      "inputs": [
        {
          "indexed": false,
          "internalType": "string",
          "name": "franchiseeId",
          "type": "string"
        },
        {
          "indexed": false,
          "internalType": "uint256",
          "name": "increase",
          "type": "uint256"
        },
        {
          "indexed": false,
          "internalType": "uint256",
          "name": "total",
          "type": "uint256"
        }
      ],
      "name": "IncreasedClearedMileage",
      "type": "event"
    },
    {
      "anonymous": false,
      "inputs": [
        {
          "indexed": false,
          "internalType": "string",
          "name": "franchiseeId",
          "type": "string"
        },
        {
          "indexed": false,
          "internalType": "uint256",
          "name": "increase",
          "type": "uint256"
        },
        {
          "indexed": false,
          "internalType": "uint256",
          "name": "total",
          "type": "uint256"
        }
      ],
      "name": "IncreasedProvidedMileage",
      "type": "event"
    },
    {
      "anonymous": false,
      "inputs": [
        {
          "indexed": false,
          "internalType": "string",
          "name": "franchiseeId",
          "type": "string"
        },
        {
          "indexed": false,
          "internalType": "uint256",
          "name": "increase",
          "type": "uint256"
        },
        {
          "indexed": false,
          "internalType": "uint256",
          "name": "total",
          "type": "uint256"
        }
      ],
      "name": "IncreasedUsedMileage",
      "type": "event"
    },
    {
      "inputs": [],
      "name": "NULL",
      "outputs": [
        {
          "internalType": "bytes32",
          "name": "",
          "type": "bytes32"
        }
      ],
      "stateMutability": "view",
      "type": "function"
    },
    {
      "inputs": [
        {
          "internalType": "string",
          "name": "_franchiseeId",
          "type": "string"
        },
        {
          "internalType": "uint256",
          "name": "_payoutWaitTime",
          "type": "uint256"
        },
        {
          "internalType": "bytes32",
          "name": "_email",
          "type": "bytes32"
        }
      ],
      "name": "add",
      "outputs": [],
      "stateMutability": "nonpayable",
      "type": "function"
    },
    {
      "inputs": [
        {
          "internalType": "string",
          "name": "_franchiseeId",
          "type": "string"
        },
        {
          "internalType": "uint256",
          "name": "_amount",
          "type": "uint256"
        }
      ],
      "name": "addClearedMileage",
      "outputs": [],
      "stateMutability": "nonpayable",
      "type": "function"
    },
    {
      "inputs": [
        {
          "internalType": "string",
          "name": "_franchiseeId",
          "type": "string"
        },
        {
          "internalType": "uint256",
          "name": "_amount",
          "type": "uint256"
        }
      ],
      "name": "addProvidedMileage",
      "outputs": [],
      "stateMutability": "nonpayable",
      "type": "function"
    },
    {
      "inputs": [
        {
          "internalType": "string",
          "name": "_franchiseeId",
          "type": "string"
        },
        {
          "internalType": "uint256",
          "name": "_amount",
          "type": "uint256"
        }
      ],
      "name": "addUsedMileage",
      "outputs": [],
      "stateMutability": "nonpayable",
      "type": "function"
    },
    {
      "inputs": [],
      "name": "deployer",
      "outputs": [
        {
          "internalType": "address",
          "name": "",
          "type": "address"
        }
      ],
      "stateMutability": "view",
      "type": "function"
    },
    {
      "inputs": [
        {
          "internalType": "uint256",
          "name": "_idx",
          "type": "uint256"
        }
      ],
      "name": "franchiseeIdOf",
      "outputs": [
        {
          "internalType": "string",
          "name": "",
          "type": "string"
        }
      ],
      "stateMutability": "view",
      "type": "function"
    },
    {
      "inputs": [
        {
          "internalType": "string",
          "name": "_franchiseeId",
          "type": "string"
        }
      ],
      "name": "franchiseeOf",
      "outputs": [
        {
          "components": [
            {
              "internalType": "string",
              "name": "franchiseeId",
              "type": "string"
            },
            {
              "internalType": "uint256",
              "name": "payoutWaitTime",
              "type": "uint256"
            },
            {
              "internalType": "bytes32",
              "name": "email",
              "type": "bytes32"
            },
            {
              "internalType": "uint256",
              "name": "providedMileage",
              "type": "uint256"
            },
            {
              "internalType": "uint256",
              "name": "usedMileage",
              "type": "uint256"
            },
            {
              "internalType": "uint256",
              "name": "clearedMileage",
              "type": "uint256"
            },
            {
              "internalType": "enum FranchiseeCollection.FranchiseeStatus",
              "name": "status",
              "type": "uint8"
            }
          ],
          "internalType": "struct FranchiseeCollection.FranchiseeData",
          "name": "",
          "type": "tuple"
        }
      ],
      "stateMutability": "view",
      "type": "function"
    },
    {
      "inputs": [],
      "name": "franchiseesLength",
      "outputs": [
        {
          "internalType": "uint256",
          "name": "",
          "type": "uint256"
        }
      ],
      "stateMutability": "view",
      "type": "function"
    },
    {
      "inputs": [
        {
          "internalType": "string",
          "name": "_franchiseeId",
          "type": "string"
        }
      ],
      "name": "getClearMileage",
      "outputs": [
        {
          "internalType": "uint256",
          "name": "",
          "type": "uint256"
        }
      ],
      "stateMutability": "view",
      "type": "function"
    },
    {
      "inputs": [],
      "name": "ledgerAddress",
      "outputs": [
        {
          "internalType": "address",
          "name": "",
          "type": "address"
        }
      ],
      "stateMutability": "view",
      "type": "function"
    },
    {
      "inputs": [
        {
          "internalType": "address",
          "name": "_ledgerAddress",
          "type": "address"
        }
      ],
      "name": "setLedgerAddress",
      "outputs": [],
      "stateMutability": "nonpayable",
      "type": "function"
    },
    {
      "inputs": [],
      "name": "validatorAddress",
      "outputs": [
        {
          "internalType": "address",
          "name": "",
          "type": "address"
        }
      ],
      "stateMutability": "view",
      "type": "function"
    }
  ],
  "transactionHash": "0x232d2839ac10a6050fd813db92cfa139157cd3ccead671be0c4c5ef22b601ce7",
  "args": [
    "0x3D6B7A5C7e471C53B5146CdBEFd59ffaA03138Ee"
  ],
  "numDeployments": 1,
  "solcInputHash": "7ccf1a4a5c4293366ab888224207d7f7",
  "bytecode": "0x608060405234801561001057600080fd5b506040516113b83803806113b883398101604081905261002f91610072565b600280546001600160a01b039092166001600160a01b031992831681179091556003805483169091179055600480548216905560058054909116331790556100a0565b600060208284031215610083578081fd5b81516001600160a01b0381168114610099578182fd5b9392505050565b611309806100af6000396000f3fe608060405234801561001057600080fd5b50600436106100df5760003560e01c80636c8502601161008c578063ba9e92d111610066578063ba9e92d1146101ab578063d1d20056146101cb578063d5f39488146101d3578063f26be3fc146101db576100df565b80636c85026014610172578063b023e1cc14610185578063ba891f5c14610198576100df565b806345405ed1116100bd57806345405ed11461012c5780634a9c2fcf1461013f5780635d404c6a1461015f576100df565b8063094d497a146100e4578063356bb1ab146101025780633fe4676e14610117575b600080fd5b6100ec6101e3565b6040516100f99190611054565b60405180910390f35b610115610110366004610f39565b6101e9565b005b61011f610329565b6040516100f99190611040565b61011561013a366004610f39565b610338565b61015261014d366004610efe565b610463565b6040516100f9919061113a565b6100ec61016d366004610efe565b6105ae565b610115610180366004610f39565b610798565b610115610193366004610f7c565b6108c3565b6101156101a6366004610ebf565b610a50565b6101be6101b9366004610fc8565b610abb565b6040516100f9919061105d565b61011f610b78565b61011f610b87565b6100ec610b96565b60015490565b6004546001600160a01b0316331461021c5760405162461bcd60e51b815260040161021390611103565b60405180910390fd5b6000808360405161022d9190611024565b9081526040519081900360200190206006015460ff16600181111561026257634e487b7160e01b600052602160045260246000fd5b1415610294576102948260007fe3b0c44298fc1c149afbf4c8996fb92427ae41e4649b934ca495991b7852b855610bba565b806000836040516102a59190611024565b908152602001604051809103902060040160008282546102c591906111bc565b925050819055507f1d84bae8d1f563d4e131a40d8c645666e1629dc693f0e9efdb8824f86de96a9182826000856040516102ff9190611024565b9081526040519081900360200181206004015461031d939291611070565b60405180910390a15050565b6002546001600160a01b031681565b6004546001600160a01b031633146103625760405162461bcd60e51b815260040161021390611103565b600080836040516103739190611024565b9081526040519081900360200190206006015460ff1660018111156103a857634e487b7160e01b600052602160045260246000fd5b14156103da576103da8260007fe3b0c44298fc1c149afbf4c8996fb92427ae41e4649b934ca495991b7852b855610bba565b806000836040516103eb9190611024565b9081526020016040518091039020600501600082825461040b91906111bc565b925050819055507f278f87ebfef3375948dc9e7b2f38fc7b8a349f190b4d8223464de7f9d608082882826000856040516104459190611024565b9081526040519081900360200181206005015461031d939291611070565b61046b610d47565b60008260405161047b9190611024565b90815260200160405180910390206040518060e00160405290816000820180546104a49061121b565b80601f01602080910402602001604051908101604052809291908181526020018280546104d09061121b565b801561051d5780601f106104f25761010080835404028352916020019161051d565b820191906000526020600020905b81548152906001019060200180831161050057829003601f168201915b50505091835250506001828101546020830152600283015460408301526003830154606083015260048301546080830152600583015460a0830152600683015460c09092019160ff169081111561058457634e487b7160e01b600052602160045260246000fd5b60018111156105a357634e487b7160e01b600052602160045260246000fd5b90525090505b919050565b600060016000836040516105c29190611024565b9081526040519081900360200190206006015460ff1660018111156105f757634e487b7160e01b600052602160045260246000fd5b1415610790576000808360405161060e9190611024565b90815260200160405180910390206040518060e00160405290816000820180546106379061121b565b80601f01602080910402602001604051908101604052809291908181526020018280546106639061121b565b80156106b05780601f10610685576101008083540402835291602001916106b0565b820191906000526020600020905b81548152906001019060200180831161069357829003601f168201915b50505091835250506001828101546020830152600283015460408301526003830154606083015260048301546080830152600583015460a0830152600683015460c09092019160ff169081111561071757634e487b7160e01b600052602160045260246000fd5b600181111561073657634e487b7160e01b600052602160045260246000fd5b81525050905080608001518160a00151826060015161075591906111bc565b1015610786578060a001518160600151826080015161077491906111d4565b61077e91906111d4565b9150506105a9565b60009150506105a9565b5060006105a9565b6004546001600160a01b031633146107c25760405162461bcd60e51b815260040161021390611103565b600080836040516107d39190611024565b9081526040519081900360200190206006015460ff16600181111561080857634e487b7160e01b600052602160045260246000fd5b141561083a5761083a8260007fe3b0c44298fc1c149afbf4c8996fb92427ae41e4649b934ca495991b7852b855610bba565b8060008360405161084b9190611024565b9081526020016040518091039020600301600082825461086b91906111bc565b925050819055507f2a612b699b277ec7ea9851a2fddd295606bce35f368c4583e74254ce7b92d9d582826000856040516108a59190611024565b9081526040519081900360200181206003015461031d939291611070565b336000805b600360009054906101000a90046001600160a01b03166001600160a01b03166377172f0e6040518163ffffffff1660e01b815260040160206040518083038186803b15801561091657600080fd5b505afa15801561092a573d6000803e3d6000fd5b505050506040513d601f19601f8201168201806040525081019061094e9190610fe0565b811015610a20576003546040517f7a5e8be90000000000000000000000000000000000000000000000000000000081526001600160a01b0390911690637a5e8be99061099e908490600401611054565b60206040518083038186803b1580156109b657600080fd5b505afa1580156109ca573d6000803e3d6000fd5b505050506040513d601f19601f820116820180604052508101906109ee9190610ee2565b6001600160a01b0316836001600160a01b03161415610a105760019150610a20565b610a1981611256565b90506108c8565b5080610a3e5760405162461bcd60e51b815260040161021390611095565b610a49858585610bba565b5050505050565b6005546001600160a01b03163314610a7a5760405162461bcd60e51b8152600401610213906110cc565b600480546001600160a01b039092167fffffffffffffffffffffffff0000000000000000000000000000000000000000928316179055600580549091169055565b606060018281548110610ade57634e487b7160e01b600052603260045260246000fd5b906000526020600020018054610af39061121b565b80601f0160208091040260200160405190810160405280929190818152602001828054610b1f9061121b565b8015610b6c5780601f10610b4157610100808354040283529160200191610b6c565b820191906000526020600020905b815481529060010190602001808311610b4f57829003601f168201915b50505050509050919050565b6004546001600160a01b031681565b6005546001600160a01b031681565b7fe3b0c44298fc1c149afbf4c8996fb92427ae41e4649b934ca495991b7852b85581565b60006040518060e00160405280858152602001848152602001838152602001600081526020016000815260200160008152602001600180811115610c0e57634e487b7160e01b600052602160045260246000fd5b90526001805480820182556000919091528551919250610c57917fb10e2d527612073b26eecdfd717e6a320cf44b4afac2b0732d9fcbe2b7fa0cf6909101906020870190610da5565b5080600085604051610c699190611024565b90815260200160405180910390206000820151816000019080519060200190610c93929190610da5565b506020820151816001015560408201518160020155606082015181600301556080820151816004015560a0820151816005015560c08201518160060160006101000a81548160ff02191690836001811115610cfe57634e487b7160e01b600052602160045260246000fd5b02179055509050507f4830c66baef6ebbd1ea845dea5eacc38b4955bfcd724b9c8a3a1bd618175157b848484604051610d3993929190611070565b60405180910390a150505050565b6040518060e0016040528060608152602001600081526020016000801916815260200160008152602001600081526020016000815260200160006001811115610da057634e487b7160e01b600052602160045260246000fd5b905290565b828054610db19061121b565b90600052602060002090601f016020900481019282610dd35760008555610e19565b82601f10610dec57805160ff1916838001178555610e19565b82800160010185558215610e19579182015b82811115610e19578251825591602001919060010190610dfe565b50610e25929150610e29565b5090565b5b80821115610e255760008155600101610e2a565b600082601f830112610e4e578081fd5b813567ffffffffffffffff80821115610e6957610e696112a5565b6040516020601f19601f8501168201018181108382111715610e8d57610e8d6112a5565b604052828152848301602001861015610ea4578384fd5b82602086016020830137918201602001929092529392505050565b600060208284031215610ed0578081fd5b8135610edb816112bb565b9392505050565b600060208284031215610ef3578081fd5b8151610edb816112bb565b600060208284031215610f0f578081fd5b813567ffffffffffffffff811115610f25578182fd5b610f3184828501610e3e565b949350505050565b60008060408385031215610f4b578081fd5b823567ffffffffffffffff811115610f61578182fd5b610f6d85828601610e3e565b95602094909401359450505050565b600080600060608486031215610f90578081fd5b833567ffffffffffffffff811115610fa6578182fd5b610fb286828701610e3e565b9660208601359650604090950135949350505050565b600060208284031215610fd9578081fd5b5035919050565b600060208284031215610ff1578081fd5b5051919050565b600081518084526110108160208601602086016111eb565b601f01601f19169290920160200192915050565b600082516110368184602087016111eb565b9190910192915050565b6001600160a01b0391909116815260200190565b90815260200190565b600060208252610edb6020830184610ff8565b6000606082526110836060830186610ff8565b60208301949094525060400152919050565b6020808252600d908201527f4e6f742076616c696461746f7200000000000000000000000000000000000000604082015260600190565b6020808252600e908201527f4e6f207065726d697373696f6e73000000000000000000000000000000000000604082015260600190565b6020808252600a908201527f4e6f74206c656467657200000000000000000000000000000000000000000000604082015260600190565b600060208252825160e06020840152611157610100840182610ff8565b9050602084015160408401526040840151606084015260608401516080840152608084015160a084015260a084015160c084015260c0840151600281106111ac57634e487b7160e01b83526021600452602483fd5b60e0939093019290925250919050565b600082198211156111cf576111cf61128f565b500190565b6000828210156111e6576111e661128f565b500390565b60005b838110156112065781810151838201526020016111ee565b83811115611215576000848401525b50505050565b60028104600182168061122f57607f821691505b6020821081141561125057634e487b7160e01b600052602260045260246000fd5b50919050565b60007fffffffffffffffffffffffffffffffffffffffffffffffffffffffffffffffff8214156112885761128861128f565b5060010190565b634e487b7160e01b600052601160045260246000fd5b634e487b7160e01b600052604160045260246000fd5b6001600160a01b03811681146112d057600080fd5b5056fea264697066735822122047ccc4d2bf436031127288ded93fa31922882339d8e6c0894beb1739afa14f1964736f6c63430008000033",
  "devdoc": {
    "kind": "dev",
    "methods": {
      "add(string,uint256,bytes32)": {
        "params": {
          "_email": "  ",
          "_franchiseeId": " ",
          "_payoutWaitTime": "    "
        }
      },
      "constructor": {
        "params": {
          "_validatorAddress": " "
        }
      },
      "franchiseeIdOf(uint256)": {
        "params": {
          "_idx": " "
        }
      },
      "franchiseeOf(string)": {
        "params": {
          "_franchiseeId": " "
        }
      }
    },
    "version": 1
  },
  "userdoc": {
    "events": {
      "Added(string,uint256,bytes32)": {
        "notice": "    "
      },
      "IncreasedClearedMileage(string,uint256,uint256)": {
        "notice": "     "
      },
      "IncreasedProvidedMileage(string,uint256,uint256)": {
        "notice": "     "
      },
      "IncreasedUsedMileage(string,uint256,uint256)": {
        "notice": "     "
      }
    },
    "kind": "user",
    "methods": {
      "NULL()": {
        "notice": "Hash value of a blank string"
      },
      "add(string,uint256,bytes32)": {
        "notice": " "
      },
      "addClearedMileage(string,uint256)": {
        "notice": "   "
      },
      "addProvidedMileage(string,uint256)": {
        "notice": "   "
      },
      "addUsedMileage(string,uint256)": {
        "notice": "   "
      },
      "constructor": {
        "notice": ""
      },
      "franchiseeIdOf(uint256)": {
        "notice": "  "
      },
      "franchiseeOf(string)": {
        "notice": "  "
      },
      "franchiseesLength()": {
        "notice": "  "
      },
      "getClearMileage(string)": {
        "notice": "    ."
      },
      "setLedgerAddress(address)": {
        "notice": "   ."
      }
    },
    "notice": "",
    "version": 1
  },
  "storageLayout": {
    "storage": [
      {
        "astId": 2122,
        "contract": "contracts/FranchiseeCollection.sol:FranchiseeCollection",
        "label": "franchisees",
        "offset": 0,
        "slot": "0",
        "type": "t_mapping(t_string_memory_ptr,t_struct(FranchiseeData)2117_storage)"
      },
      {
        "astId": 2125,
        "contract": "contracts/FranchiseeCollection.sol:FranchiseeCollection",
        "label": "items",
        "offset": 0,
        "slot": "1",
        "type": "t_array(t_string_storage)dyn_storage"
      },
      {
        "astId": 2127,
        "contract": "contracts/FranchiseeCollection.sol:FranchiseeCollection",
        "label": "validatorAddress",
        "offset": 0,
        "slot": "2",
        "type": "t_address"
      },
      {
        "astId": 2130,
        "contract": "contracts/FranchiseeCollection.sol:FranchiseeCollection",
        "label": "validatorCollection",
        "offset": 0,
        "slot": "3",
        "type": "t_contract(ValidatorCollection)4586"
      },
      {
        "astId": 2168,
        "contract": "contracts/FranchiseeCollection.sol:FranchiseeCollection",
        "label": "ledgerAddress",
        "offset": 0,
        "slot": "4",
        "type": "t_address"
      },
      {
        "astId": 2170,
        "contract": "contracts/FranchiseeCollection.sol:FranchiseeCollection",
        "label": "deployer",
        "offset": 0,
        "slot": "5",
        "type": "t_address"
      }
    ],
    "types": {
      "t_address": {
        "encoding": "inplace",
        "label": "address",
        "numberOfBytes": "20"
      },
      "t_array(t_string_storage)dyn_storage": {
        "base": "t_string_storage",
        "encoding": "dynamic_array",
        "label": "string[]",
        "numberOfBytes": "32"
      },
      "t_bytes32": {
        "encoding": "inplace",
        "label": "bytes32",
        "numberOfBytes": "32"
      },
      "t_contract(ValidatorCollection)4586": {
        "encoding": "inplace",
        "label": "contract ValidatorCollection",
        "numberOfBytes": "20"
      },
      "t_enum(FranchiseeStatus)2101": {
        "encoding": "inplace",
        "label": "enum FranchiseeCollection.FranchiseeStatus",
        "numberOfBytes": "1"
      },
      "t_mapping(t_string_memory_ptr,t_struct(FranchiseeData)2117_storage)": {
        "encoding": "mapping",
        "key": "t_string_memory_ptr",
        "label": "mapping(string => struct FranchiseeCollection.FranchiseeData)",
        "numberOfBytes": "32",
        "value": "t_struct(FranchiseeData)2117_storage"
      },
      "t_string_memory_ptr": {
        "encoding": "bytes",
        "label": "string",
        "numberOfBytes": "32"
      },
      "t_string_storage": {
        "encoding": "bytes",
        "label": "string",
        "numberOfBytes": "32"
      },
      "t_struct(FranchiseeData)2117_storage": {
        "encoding": "inplace",
        "label": "struct FranchiseeCollection.FranchiseeData",
        "members": [
          {
            "astId": 2103,
            "contract": "contracts/FranchiseeCollection.sol:FranchiseeCollection",
            "label": "franchiseeId",
            "offset": 0,
            "slot": "0",
            "type": "t_string_storage"
          },
          {
            "astId": 2105,
            "contract": "contracts/FranchiseeCollection.sol:FranchiseeCollection",
            "label": "payoutWaitTime",
            "offset": 0,
            "slot": "1",
            "type": "t_uint256"
          },
          {
            "astId": 2107,
            "contract": "contracts/FranchiseeCollection.sol:FranchiseeCollection",
            "label": "email",
            "offset": 0,
            "slot": "2",
            "type": "t_bytes32"
          },
          {
            "astId": 2109,
            "contract": "contracts/FranchiseeCollection.sol:FranchiseeCollection",
            "label": "providedMileage",
            "offset": 0,
            "slot": "3",
            "type": "t_uint256"
          },
          {
            "astId": 2111,
            "contract": "contracts/FranchiseeCollection.sol:FranchiseeCollection",
            "label": "usedMileage",
            "offset": 0,
            "slot": "4",
            "type": "t_uint256"
          },
          {
            "astId": 2113,
            "contract": "contracts/FranchiseeCollection.sol:FranchiseeCollection",
            "label": "clearedMileage",
            "offset": 0,
            "slot": "5",
            "type": "t_uint256"
          },
          {
            "astId": 2116,
            "contract": "contracts/FranchiseeCollection.sol:FranchiseeCollection",
            "label": "status",
            "offset": 0,
            "slot": "6",
            "type": "t_enum(FranchiseeStatus)2101"
          }
        ],
        "numberOfBytes": "224"
      },
      "t_uint256": {
        "encoding": "inplace",
        "label": "uint256",
        "numberOfBytes": "32"
      }
    }
  }
}