{
    "address": "0xD9d2A3fA6A93EC688831969C286B91524735aa35",
    "abi": [
        {
            "inputs": [
                {
                    "internalType": "address",
                    "name": "_validatorAddress",
                    "type": "address"
                }
            ],
            "stateMutability": "nonpayable",
            "type": "constructor"
        },
        {
            "anonymous": false,
            "inputs": [
                {
                    "indexed": false,
                    "internalType": "string",
                    "name": "franchiseeId",
                    "type": "string"
                },
                {
                    "indexed": false,
                    "internalType": "uint256",
                    "name": "timestamp",
                    "type": "uint256"
                },
                {
                    "indexed": false,
                    "internalType": "bytes32",
                    "name": "email",
                    "type": "bytes32"
                }
            ],
            "name": "Added",
            "type": "event"
        },
        {
            "anonymous": false,
            "inputs": [
                {
                    "indexed": false,
                    "internalType": "string",
                    "name": "franchiseeId",
                    "type": "string"
                },
                {
                    "indexed": false,
                    "internalType": "uint256",
                    "name": "increase",
                    "type": "uint256"
                },
                {
                    "indexed": false,
                    "internalType": "uint256",
                    "name": "total",
                    "type": "uint256"
                }
            ],
            "name": "IncreasedClearedMileage",
            "type": "event"
        },
        {
            "anonymous": false,
            "inputs": [
                {
                    "indexed": false,
                    "internalType": "string",
                    "name": "franchiseeId",
                    "type": "string"
                },
                {
                    "indexed": false,
                    "internalType": "uint256",
                    "name": "increase",
                    "type": "uint256"
                },
                {
                    "indexed": false,
                    "internalType": "uint256",
                    "name": "total",
                    "type": "uint256"
                }
            ],
            "name": "IncreasedProvidedMileage",
            "type": "event"
        },
        {
            "anonymous": false,
            "inputs": [
                {
                    "indexed": false,
                    "internalType": "string",
                    "name": "franchiseeId",
                    "type": "string"
                },
                {
                    "indexed": false,
                    "internalType": "uint256",
                    "name": "increase",
                    "type": "uint256"
                },
                {
                    "indexed": false,
                    "internalType": "uint256",
                    "name": "total",
                    "type": "uint256"
                }
            ],
            "name": "IncreasedUsedMileage",
            "type": "event"
        },
        {
            "inputs": [
                {
                    "internalType": "string",
                    "name": "_franchiseeId",
                    "type": "string"
                },
                {
                    "internalType": "uint256",
                    "name": "_payoutWaitTime",
                    "type": "uint256"
                },
                {
                    "internalType": "bytes32",
                    "name": "_email",
                    "type": "bytes32"
                }
            ],
            "name": "add",
            "outputs": [],
            "stateMutability": "nonpayable",
            "type": "function"
        },
        {
            "inputs": [
                {
                    "internalType": "string",
                    "name": "_franchiseeId",
                    "type": "string"
                },
                {
                    "internalType": "uint256",
                    "name": "_amount",
                    "type": "uint256"
                }
            ],
            "name": "addClearedMileage",
            "outputs": [],
            "stateMutability": "nonpayable",
            "type": "function"
        },
        {
            "inputs": [
                {
                    "internalType": "string",
                    "name": "_franchiseeId",
                    "type": "string"
                },
                {
                    "internalType": "uint256",
                    "name": "_amount",
                    "type": "uint256"
                }
            ],
            "name": "addProvidedMileage",
            "outputs": [],
            "stateMutability": "nonpayable",
            "type": "function"
        },
        {
            "inputs": [
                {
                    "internalType": "string",
                    "name": "_franchiseeId",
                    "type": "string"
                },
                {
                    "internalType": "uint256",
                    "name": "_amount",
                    "type": "uint256"
                }
            ],
            "name": "addUsedMileage",
            "outputs": [],
            "stateMutability": "nonpayable",
            "type": "function"
        },
        {
            "inputs": [],
            "name": "deployer",
            "outputs": [
                {
                    "internalType": "address",
                    "name": "",
                    "type": "address"
                }
            ],
            "stateMutability": "view",
            "type": "function"
        },
        {
            "inputs": [
                {
                    "internalType": "string",
                    "name": "",
                    "type": "string"
                }
            ],
            "name": "franchisees",
            "outputs": [
                {
                    "internalType": "string",
                    "name": "franchiseeId",
                    "type": "string"
                },
                {
                    "internalType": "uint256",
                    "name": "payoutWaitTime",
                    "type": "uint256"
                },
                {
                    "internalType": "bytes32",
                    "name": "email",
                    "type": "bytes32"
                },
                {
                    "internalType": "uint256",
                    "name": "providedMileage",
                    "type": "uint256"
                },
                {
                    "internalType": "uint256",
                    "name": "usedMileage",
                    "type": "uint256"
                },
                {
                    "internalType": "uint256",
                    "name": "clearedMileage",
                    "type": "uint256"
                },
                {
                    "internalType": "enum FranchiseeCollection.FranchiseeStatus",
                    "name": "status",
                    "type": "uint8"
                }
            ],
            "stateMutability": "view",
            "type": "function"
        },
        {
            "inputs": [
                {
                    "internalType": "string",
                    "name": "_franchiseeId",
                    "type": "string"
                }
            ],
            "name": "getClearMileage",
            "outputs": [
                {
                    "internalType": "uint256",
                    "name": "",
                    "type": "uint256"
                }
            ],
            "stateMutability": "view",
            "type": "function"
        },
        {
            "inputs": [
                {
                    "internalType": "string",
                    "name": "_franchiseeId",
                    "type": "string"
                }
            ],
            "name": "getItem",
            "outputs": [
                {
                    "components": [
                        {
                            "internalType": "string",
                            "name": "franchiseeId",
                            "type": "string"
                        },
                        {
                            "internalType": "uint256",
                            "name": "payoutWaitTime",
                            "type": "uint256"
                        },
                        {
                            "internalType": "bytes32",
                            "name": "email",
                            "type": "bytes32"
                        },
                        {
                            "internalType": "uint256",
                            "name": "providedMileage",
                            "type": "uint256"
                        },
                        {
                            "internalType": "uint256",
                            "name": "usedMileage",
                            "type": "uint256"
                        },
                        {
                            "internalType": "uint256",
                            "name": "clearedMileage",
                            "type": "uint256"
                        },
                        {
                            "internalType": "enum FranchiseeCollection.FranchiseeStatus",
                            "name": "status",
                            "type": "uint8"
                        }
                    ],
                    "internalType": "struct FranchiseeCollection.FranchiseeData",
                    "name": "",
                    "type": "tuple"
                }
            ],
            "stateMutability": "view",
            "type": "function"
        },
        {
            "inputs": [
                {
                    "internalType": "uint256",
                    "name": "",
                    "type": "uint256"
                }
            ],
            "name": "items",
            "outputs": [
                {
                    "internalType": "string",
                    "name": "",
                    "type": "string"
                }
            ],
            "stateMutability": "view",
            "type": "function"
        },
        {
            "inputs": [],
            "name": "ledgerAddress",
            "outputs": [
                {
                    "internalType": "address",
                    "name": "",
                    "type": "address"
                }
            ],
            "stateMutability": "view",
            "type": "function"
        },
        {
            "inputs": [],
            "name": "length",
            "outputs": [
                {
                    "internalType": "uint256",
                    "name": "",
                    "type": "uint256"
                }
            ],
            "stateMutability": "view",
            "type": "function"
        },
        {
            "inputs": [
                {
                    "internalType": "address",
                    "name": "_ledgerAddress",
                    "type": "address"
                }
            ],
            "name": "setLedgerAddress",
            "outputs": [],
            "stateMutability": "nonpayable",
            "type": "function"
        },
        {
            "inputs": [],
            "name": "validatorAddress",
            "outputs": [
                {
                    "internalType": "address",
                    "name": "",
                    "type": "address"
                }
            ],
            "stateMutability": "view",
            "type": "function"
        }
    ],
    "transactionHash": "0xadebd188991b42367de0918a74bf2f4f466ee0ede878fa13467120a58197121a",
    "args": [
        "0x979a62090BDCff36F2e140F6915fbAdA7510cb6a"
    ],
    "numDeployments": 1,
    "solcInputHash": "a7b1b71c1f5d4e04a8f1a0f0fa51eebb",
    "bytecode": "0x608060405234801561001057600080fd5b5060405161143a38038061143a83398101604081905261002f91610072565b600280546001600160a01b039092166001600160a01b031992831681179091556003805483169091179055600480548216905560058054909116331790556100a0565b600060208284031215610083578081fd5b81516001600160a01b0381168114610099578182fd5b9392505050565b61138b806100af6000396000f3fe608060405234801561001057600080fd5b50600436106100df5760003560e01c80637bc324051161008c578063ba891f5c11610066578063ba891f5c146101be578063bfb231d2146101d1578063d1d20056146101f1578063d5f39488146101f9576100df565b80637bc3240514610165578063b023e1cc1461018b578063b6010fcd1461019e576100df565b806345405ed1116100bd57806345405ed11461012c5780635d404c6a1461013f5780636c85026014610152576100df565b80631f7b6d32146100e4578063356bb1ab146101025780633fe4676e14610117575b600080fd5b6100ec610201565b6040516100f99190611235565b60405180910390f35b610115610110366004610f64565b610207565b005b61011f61031d565b6040516100f9919061108d565b61011561013a366004610f64565b61032c565b6100ec61014d366004610f29565b61042c565b610115610160366004610f64565b610617565b610178610173366004610f29565b610717565b6040516100f997969594939291906110d9565b610115610199366004610fa7565b6107ea565b6101b16101ac366004610f29565b610af4565b6040516100f991906111ca565b6101156101cc366004610eea565b610c3d565b6101e46101df366004610ff3565b610ca8565b6040516100f991906110a1565b61011f610d54565b61011f610d63565b60015490565b6004546001600160a01b0316331461023a5760405162461bcd60e51b815260040161023190611193565b60405180910390fd5b600160008360405161024c9190611071565b9081526040519081900360200190206006015460ff16600181111561028157634e487b7160e01b600052602160045260246000fd5b141561031957806000836040516102989190611071565b908152602001604051809103902060040160008282546102b8919061123e565b925050819055507f1d84bae8d1f563d4e131a40d8c645666e1629dc693f0e9efdb8824f86de96a9182826000856040516102f29190611071565b908152604051908190036020018120600401546103109392916110b4565b60405180910390a15b5050565b6002546001600160a01b031681565b6004546001600160a01b031633146103565760405162461bcd60e51b815260040161023190611193565b60016000836040516103689190611071565b9081526040519081900360200190206006015460ff16600181111561039d57634e487b7160e01b600052602160045260246000fd5b141561031957806000836040516103b49190611071565b908152602001604051809103902060050160008282546103d4919061123e565b925050819055507f278f87ebfef3375948dc9e7b2f38fc7b8a349f190b4d8223464de7f9d6080828828260008560405161040e9190611071565b908152604051908190036020018120600501546103109392916110b4565b600060016000836040516104409190611071565b9081526040519081900360200190206006015460ff16600181111561047557634e487b7160e01b600052602160045260246000fd5b141561060e576000808360405161048c9190611071565b90815260200160405180910390206040518060e00160405290816000820180546104b59061129d565b80601f01602080910402602001604051908101604052809291908181526020018280546104e19061129d565b801561052e5780601f106105035761010080835404028352916020019161052e565b820191906000526020600020905b81548152906001019060200180831161051157829003601f168201915b50505091835250506001828101546020830152600283015460408301526003830154606083015260048301546080830152600583015460a0830152600683015460c09092019160ff169081111561059557634e487b7160e01b600052602160045260246000fd5b60018111156105b457634e487b7160e01b600052602160045260246000fd5b81525050905080608001518160a0015182606001516105d3919061123e565b1015610604578060a00151816060015182608001516105f29190611256565b6105fc9190611256565b915050610612565b6000915050610612565b5060005b919050565b6004546001600160a01b031633146106415760405162461bcd60e51b815260040161023190611193565b60016000836040516106539190611071565b9081526040519081900360200190206006015460ff16600181111561068857634e487b7160e01b600052602160045260246000fd5b1415610319578060008360405161069f9190611071565b908152602001604051809103902060030160008282546106bf919061123e565b925050819055507f2a612b699b277ec7ea9851a2fddd295606bce35f368c4583e74254ce7b92d9d582826000856040516106f99190611071565b908152604051908190036020018120600301546103109392916110b4565b805160208183018101805160008252928201919093012091528054819061073d9061129d565b80601f01602080910402602001604051908101604052809291908181526020018280546107699061129d565b80156107b65780601f1061078b576101008083540402835291602001916107b6565b820191906000526020600020905b81548152906001019060200180831161079957829003601f168201915b5050506001840154600285015460038601546004870154600588015460069098015496979396929550909350919060ff1687565b336000805b600360009054906101000a90046001600160a01b03166001600160a01b031663de4847c46040518163ffffffff1660e01b815260040160206040518083038186803b15801561083d57600080fd5b505afa158015610851573d6000803e3d6000fd5b505050506040513d601f19601f82011682018060405250810190610875919061100b565b811015610947576003546040517f9c318c7b0000000000000000000000000000000000000000000000000000000081526001600160a01b0390911690639c318c7b906108c5908490600401611235565b60206040518083038186803b1580156108dd57600080fd5b505afa1580156108f1573d6000803e3d6000fd5b505050506040513d601f19601f820116820180604052508101906109159190610f0d565b6001600160a01b0316836001600160a01b031614156109375760019150610947565b610940816112d8565b90506107ef565b50806109655760405162461bcd60e51b815260040161023190611125565b60006040518060e001604052808781526020018681526020018581526020016000815260200160008152602001600081526020016001808111156109b957634e487b7160e01b600052602160045260246000fd5b90526001805480820182556000919091528751919250610a02917fb10e2d527612073b26eecdfd717e6a320cf44b4afac2b0732d9fcbe2b7fa0cf6909101906020890190610d72565b5080600087604051610a149190611071565b90815260200160405180910390206000820151816000019080519060200190610a3e929190610d72565b506020820151816001015560408201518160020155606082015181600301556080820151816004015560a0820151816005015560c08201518160060160006101000a81548160ff02191690836001811115610aa957634e487b7160e01b600052602160045260246000fd5b02179055509050507f4830c66baef6ebbd1ea845dea5eacc38b4955bfcd724b9c8a3a1bd618175157b868686604051610ae4939291906110b4565b60405180910390a1505050505050565b610afc610df6565b600082604051610b0c9190611071565b90815260200160405180910390206040518060e0016040529081600082018054610b359061129d565b80601f0160208091040260200160405190810160405280929190818152602001828054610b619061129d565b8015610bae5780601f10610b8357610100808354040283529160200191610bae565b820191906000526020600020905b815481529060010190602001808311610b9157829003601f168201915b50505091835250506001828101546020830152600283015460408301526003830154606083015260048301546080830152600583015460a0830152600683015460c09092019160ff1690811115610c1557634e487b7160e01b600052602160045260246000fd5b6001811115610c3457634e487b7160e01b600052602160045260246000fd5b90525092915050565b6005546001600160a01b03163314610c675760405162461bcd60e51b81526004016102319061115c565b600480546001600160a01b039092167fffffffffffffffffffffffff0000000000000000000000000000000000000000928316179055600580549091169055565b60018181548110610cb857600080fd5b906000526020600020016000915090508054610cd39061129d565b80601f0160208091040260200160405190810160405280929190818152602001828054610cff9061129d565b8015610d4c5780601f10610d2157610100808354040283529160200191610d4c565b820191906000526020600020905b815481529060010190602001808311610d2f57829003601f168201915b505050505081565b6004546001600160a01b031681565b6005546001600160a01b031681565b828054610d7e9061129d565b90600052602060002090601f016020900481019282610da05760008555610de6565b82601f10610db957805160ff1916838001178555610de6565b82800160010185558215610de6579182015b82811115610de6578251825591602001919060010190610dcb565b50610df2929150610e54565b5090565b6040518060e0016040528060608152602001600081526020016000801916815260200160008152602001600081526020016000815260200160006001811115610e4f57634e487b7160e01b600052602160045260246000fd5b905290565b5b80821115610df25760008155600101610e55565b600082601f830112610e79578081fd5b813567ffffffffffffffff80821115610e9457610e94611327565b6040516020601f19601f8501168201018181108382111715610eb857610eb8611327565b604052828152848301602001861015610ecf578384fd5b82602086016020830137918201602001929092529392505050565b600060208284031215610efb578081fd5b8135610f068161133d565b9392505050565b600060208284031215610f1e578081fd5b8151610f068161133d565b600060208284031215610f3a578081fd5b813567ffffffffffffffff811115610f50578182fd5b610f5c84828501610e69565b949350505050565b60008060408385031215610f76578081fd5b823567ffffffffffffffff811115610f8c578182fd5b610f9885828601610e69565b95602094909401359450505050565b600080600060608486031215610fbb578081fd5b833567ffffffffffffffff811115610fd1578182fd5b610fdd86828701610e69565b9660208601359650604090950135949350505050565b600060208284031215611004578081fd5b5035919050565b60006020828403121561101c578081fd5b5051919050565b6002811061104157634e487b7160e01b600052602160045260246000fd5b9052565b6000815180845261105d81602086016020860161126d565b601f01601f19169290920160200192915050565b6000825161108381846020870161126d565b9190910192915050565b6001600160a01b0391909116815260200190565b600060208252610f066020830184611045565b6000606082526110c76060830186611045565b60208301949094525060400152919050565b600060e082526110ec60e083018a611045565b90508760208301528660408301528560608301528460808301528360a083015261111960c0830184611023565b98975050505050505050565b6020808252600d908201527f4e6f742076616c696461746f7200000000000000000000000000000000000000604082015260600190565b6020808252600e908201527f4e6f207065726d697373696f6e73000000000000000000000000000000000000604082015260600190565b6020808252600a908201527f4e6f74206c656467657200000000000000000000000000000000000000000000604082015260600190565b600060208252825160e060208401526111e7610100840182611045565b9050602084015160408401526040840151606084015260608401516080840152608084015160a084015260a084015160c084015260c084015161122d60e0850182611023565b509392505050565b90815260200190565b6000821982111561125157611251611311565b500190565b60008282101561126857611268611311565b500390565b60005b83811015611288578181015183820152602001611270565b83811115611297576000848401525b50505050565b6002810460018216806112b157607f821691505b602082108114156112d257634e487b7160e01b600052602260045260246000fd5b50919050565b60007fffffffffffffffffffffffffffffffffffffffffffffffffffffffffffffffff82141561130a5761130a611311565b5060010190565b634e487b7160e01b600052601160045260246000fd5b634e487b7160e01b600052604160045260246000fd5b6001600160a01b038116811461135257600080fd5b5056fea26469706673582212202e121aa45e68be8b0e68e83c18478170a5ff66ca65fd37ce2295fb431ec0479a64736f6c63430008000033",
    "devdoc": {
        "kind": "dev",
        "methods": {
            "add(string,uint256,bytes32)": {
                "params": {
                    "_email": "  ",
                    "_franchiseeId": " ",
                    "_payoutWaitTime": "    "
                }
            },
            "constructor": {
                "params": {
                    "_validatorAddress": " "
                }
            }
        },
        "version": 1
    },
    "userdoc": {
        "events": {
            "Added(string,uint256,bytes32)": {
                "notice": "    "
            },
            "IncreasedClearedMileage(string,uint256,uint256)": {
                "notice": "     "
            },
            "IncreasedProvidedMileage(string,uint256,uint256)": {
                "notice": "     "
            },
            "IncreasedUsedMileage(string,uint256,uint256)": {
                "notice": "     "
            }
        },
        "kind": "user",
        "methods": {
            "add(string,uint256,bytes32)": {
                "notice": " "
            },
            "addClearedMileage(string,uint256)": {
                "notice": "   "
            },
            "addProvidedMileage(string,uint256)": {
                "notice": "   "
            },
            "addUsedMileage(string,uint256)": {
                "notice": "   "
            },
            "constructor": {
                "notice": ""
            },
            "franchisees(string)": {
                "notice": "      "
            },
            "getClearMileage(string)": {
                "notice": "    ."
            },
            "getItem(string)": {
                "notice": "  "
            },
            "items(uint256)": {
                "notice": "   "
            },
            "length()": {
                "notice": "  "
            },
            "setLedgerAddress(address)": {
                "notice": "   ."
            }
        },
        "notice": "",
        "version": 1
    },
    "storageLayout": {
        "storage": [
            {
                "astId": 2119,
                "contract": "contracts/FranchiseeCollection.sol:FranchiseeCollection",
                "label": "franchisees",
                "offset": 0,
                "slot": "0",
                "type": "t_mapping(t_string_memory_ptr,t_struct(FranchiseeData)2113_storage)"
            },
            {
                "astId": 2123,
                "contract": "contracts/FranchiseeCollection.sol:FranchiseeCollection",
                "label": "items",
                "offset": 0,
                "slot": "1",
                "type": "t_array(t_string_storage)dyn_storage"
            },
            {
                "astId": 2125,
                "contract": "contracts/FranchiseeCollection.sol:FranchiseeCollection",
                "label": "validatorAddress",
                "offset": 0,
                "slot": "2",
                "type": "t_address"
            },
            {
                "astId": 2128,
                "contract": "contracts/FranchiseeCollection.sol:FranchiseeCollection",
                "label": "validatorCollection",
                "offset": 0,
                "slot": "3",
                "type": "t_contract(ValidatorCollection)4414"
            },
            {
                "astId": 2166,
                "contract": "contracts/FranchiseeCollection.sol:FranchiseeCollection",
                "label": "ledgerAddress",
                "offset": 0,
                "slot": "4",
                "type": "t_address"
            },
            {
                "astId": 2168,
                "contract": "contracts/FranchiseeCollection.sol:FranchiseeCollection",
                "label": "deployer",
                "offset": 0,
                "slot": "5",
                "type": "t_address"
            }
        ],
        "types": {
            "t_address": {
                "encoding": "inplace",
                "label": "address",
                "numberOfBytes": "20"
            },
            "t_array(t_string_storage)dyn_storage": {
                "base": "t_string_storage",
                "encoding": "dynamic_array",
                "label": "string[]",
                "numberOfBytes": "32"
            },
            "t_bytes32": {
                "encoding": "inplace",
                "label": "bytes32",
                "numberOfBytes": "32"
            },
            "t_contract(ValidatorCollection)4414": {
                "encoding": "inplace",
                "label": "contract ValidatorCollection",
                "numberOfBytes": "20"
            },
            "t_enum(FranchiseeStatus)2097": {
                "encoding": "inplace",
                "label": "enum FranchiseeCollection.FranchiseeStatus",
                "numberOfBytes": "1"
            },
            "t_mapping(t_string_memory_ptr,t_struct(FranchiseeData)2113_storage)": {
                "encoding": "mapping",
                "key": "t_string_memory_ptr",
                "label": "mapping(string => struct FranchiseeCollection.FranchiseeData)",
                "numberOfBytes": "32",
                "value": "t_struct(FranchiseeData)2113_storage"
            },
            "t_string_memory_ptr": {
                "encoding": "bytes",
                "label": "string",
                "numberOfBytes": "32"
            },
            "t_string_storage": {
                "encoding": "bytes",
                "label": "string",
                "numberOfBytes": "32"
            },
            "t_struct(FranchiseeData)2113_storage": {
                "encoding": "inplace",
                "label": "struct FranchiseeCollection.FranchiseeData",
                "members": [
                    {
                        "astId": 2099,
                        "contract": "contracts/FranchiseeCollection.sol:FranchiseeCollection",
                        "label": "franchiseeId",
                        "offset": 0,
                        "slot": "0",
                        "type": "t_string_storage"
                    },
                    {
                        "astId": 2101,
                        "contract": "contracts/FranchiseeCollection.sol:FranchiseeCollection",
                        "label": "payoutWaitTime",
                        "offset": 0,
                        "slot": "1",
                        "type": "t_uint256"
                    },
                    {
                        "astId": 2103,
                        "contract": "contracts/FranchiseeCollection.sol:FranchiseeCollection",
                        "label": "email",
                        "offset": 0,
                        "slot": "2",
                        "type": "t_bytes32"
                    },
                    {
                        "astId": 2105,
                        "contract": "contracts/FranchiseeCollection.sol:FranchiseeCollection",
                        "label": "providedMileage",
                        "offset": 0,
                        "slot": "3",
                        "type": "t_uint256"
                    },
                    {
                        "astId": 2107,
                        "contract": "contracts/FranchiseeCollection.sol:FranchiseeCollection",
                        "label": "usedMileage",
                        "offset": 0,
                        "slot": "4",
                        "type": "t_uint256"
                    },
                    {
                        "astId": 2109,
                        "contract": "contracts/FranchiseeCollection.sol:FranchiseeCollection",
                        "label": "clearedMileage",
                        "offset": 0,
                        "slot": "5",
                        "type": "t_uint256"
                    },
                    {
                        "astId": 2112,
                        "contract": "contracts/FranchiseeCollection.sol:FranchiseeCollection",
                        "label": "status",
                        "offset": 0,
                        "slot": "6",
                        "type": "t_enum(FranchiseeStatus)2097"
                    }
                ],
                "numberOfBytes": "224"
            },
            "t_uint256": {
                "encoding": "inplace",
                "label": "uint256",
                "numberOfBytes": "32"
            }
        }
    }
}