{
  "address": "0x360F09E3d8b8D21bb90F694b7DAa7FcA2D43f8C7",
  "abi": [
    {
      "inputs": [
        {
          "internalType": "bytes32",
          "name": "_foundationAccount",
          "type": "bytes32"
        },
        {
          "internalType": "address",
          "name": "_tokenAddress",
          "type": "address"
        },
        {
          "internalType": "address",
          "name": "_validatorAddress",
          "type": "address"
        },
        {
          "internalType": "address",
          "name": "_linkCollectionAddress",
          "type": "address"
        },
        {
          "internalType": "address",
          "name": "_tokenPriceAddress",
          "type": "address"
        },
        {
          "internalType": "address",
          "name": "_franchiseeCollectionAddress",
          "type": "address"
        }
      ],
      "stateMutability": "nonpayable",
      "type": "constructor"
    },
    {
      "anonymous": false,
      "inputs": [
        {
          "indexed": false,
          "internalType": "address",
          "name": "depositor",
          "type": "address"
        },
        {
          "indexed": false,
          "internalType": "uint256",
          "name": "amount",
          "type": "uint256"
        },
        {
          "indexed": false,
          "internalType": "uint256",
          "name": "balance",
          "type": "uint256"
        }
      ],
      "name": "Deposited",
      "type": "event"
    },
    {
      "anonymous": false,
      "inputs": [
        {
          "indexed": false,
          "internalType": "bytes32",
          "name": "email",
          "type": "bytes32"
        },
        {
          "indexed": false,
          "internalType": "uint256",
          "name": "amountMileage",
          "type": "uint256"
        },
        {
          "indexed": false,
          "internalType": "uint256",
          "name": "amountToken",
          "type": "uint256"
        }
      ],
      "name": "ExchangedMileageToToken",
      "type": "event"
    },
    {
      "anonymous": false,
      "inputs": [
        {
          "indexed": false,
          "internalType": "bytes32",
          "name": "email",
          "type": "bytes32"
        },
        {
          "indexed": false,
          "internalType": "uint256",
          "name": "amountToken",
          "type": "uint256"
        },
        {
          "indexed": false,
          "internalType": "uint256",
          "name": "amountMileage",
          "type": "uint256"
        }
      ],
      "name": "ExchangedTokenToMileage",
      "type": "event"
    },
    {
      "anonymous": false,
      "inputs": [
        {
          "indexed": false,
          "internalType": "string",
          "name": "purchaseId",
          "type": "string"
        },
        {
          "indexed": false,
          "internalType": "uint256",
          "name": "timestamp",
          "type": "uint256"
        },
        {
          "indexed": false,
          "internalType": "uint256",
          "name": "amount",
          "type": "uint256"
        },
        {
          "indexed": false,
          "internalType": "bytes32",
          "name": "userEmail",
          "type": "bytes32"
        },
        {
          "indexed": false,
          "internalType": "string",
          "name": "franchiseeId",
          "type": "string"
        }
      ],
      "name": "PaidMileage",
      "type": "event"
    },
    {
      "anonymous": false,
      "inputs": [
        {
          "indexed": false,
          "internalType": "string",
          "name": "purchaseId",
          "type": "string"
        },
        {
          "indexed": false,
          "internalType": "uint256",
          "name": "timestamp",
          "type": "uint256"
        },
        {
          "indexed": false,
          "internalType": "uint256",
          "name": "amount",
          "type": "uint256"
        },
        {
          "indexed": false,
          "internalType": "uint256",
          "name": "amountToken",
          "type": "uint256"
        },
        {
          "indexed": false,
          "internalType": "bytes32",
          "name": "userEmail",
          "type": "bytes32"
        },
        {
          "indexed": false,
          "internalType": "string",
          "name": "franchiseeId",
          "type": "string"
        }
      ],
      "name": "PaidToken",
      "type": "event"
    },
    {
      "anonymous": false,
      "inputs": [
        {
          "indexed": false,
          "internalType": "bytes32",
          "name": "email",
          "type": "bytes32"
        },
        {
          "indexed": false,
          "internalType": "uint256",
          "name": "amount",
          "type": "uint256"
        }
      ],
      "name": "ProvidedMileage",
      "type": "event"
    },
    {
      "anonymous": false,
      "inputs": [
        {
          "indexed": false,
          "internalType": "bytes32",
          "name": "email",
          "type": "bytes32"
        },
        {
          "indexed": false,
          "internalType": "uint256",
          "name": "amount",
          "type": "uint256"
        }
      ],
      "name": "ProvidedMileageToFranchisee",
      "type": "event"
    },
    {
      "anonymous": false,
      "inputs": [
        {
          "indexed": false,
          "internalType": "bytes32",
          "name": "email",
          "type": "bytes32"
        },
        {
          "indexed": false,
          "internalType": "uint256",
          "name": "amount",
          "type": "uint256"
        },
        {
          "indexed": false,
          "internalType": "uint256",
          "name": "amountToken",
          "type": "uint256"
        }
      ],
      "name": "ProvidedToken",
      "type": "event"
    },
    {
      "anonymous": false,
      "inputs": [
        {
          "indexed": false,
          "internalType": "string",
          "name": "purchaseId",
          "type": "string"
        },
        {
          "indexed": false,
          "internalType": "uint256",
          "name": "timestamp",
          "type": "uint256"
        },
        {
          "indexed": false,
          "internalType": "uint256",
          "name": "amount",
          "type": "uint256"
        },
        {
          "indexed": false,
          "internalType": "bytes32",
          "name": "userEmail",
          "type": "bytes32"
        },
        {
          "indexed": false,
          "internalType": "string",
          "name": "franchiseeId",
          "type": "string"
        }
      ],
      "name": "SavedPurchase",
      "type": "event"
    },
    {
      "anonymous": false,
      "inputs": [
        {
          "indexed": false,
          "internalType": "address",
          "name": "withdrawer",
          "type": "address"
        },
        {
          "indexed": false,
          "internalType": "uint256",
          "name": "amount",
          "type": "uint256"
        },
        {
          "indexed": false,
          "internalType": "uint256",
          "name": "balance",
          "type": "uint256"
        }
      ],
      "name": "Withdrawn",
      "type": "event"
    },
    {
      "inputs": [],
      "name": "NULL",
      "outputs": [
        {
          "internalType": "bytes32",
          "name": "",
          "type": "bytes32"
        }
      ],
      "stateMutability": "view",
      "type": "function"
    },
    {
      "inputs": [
        {
          "internalType": "uint256",
          "name": "_amount",
          "type": "uint256"
        }
      ],
      "name": "deposit",
      "outputs": [],
      "stateMutability": "nonpayable",
      "type": "function"
    },
    {
      "inputs": [
        {
          "internalType": "bytes32",
          "name": "_userEmail",
          "type": "bytes32"
        },
        {
          "internalType": "uint256",
          "name": "_amountMileage",
          "type": "uint256"
        },
        {
          "internalType": "address",
          "name": "_signer",
          "type": "address"
        },
        {
          "internalType": "bytes",
          "name": "_signature",
          "type": "bytes"
        }
      ],
      "name": "exchangeMileageToToken",
      "outputs": [],
      "stateMutability": "nonpayable",
      "type": "function"
    },
    {
      "inputs": [
        {
          "internalType": "bytes32",
          "name": "_userEmail",
          "type": "bytes32"
        },
        {
          "internalType": "uint256",
          "name": "_amountToken",
          "type": "uint256"
        },
        {
          "internalType": "address",
          "name": "_signer",
          "type": "address"
        },
        {
          "internalType": "bytes",
          "name": "_signature",
          "type": "bytes"
        }
      ],
      "name": "exchangeTokenToMileage",
      "outputs": [],
      "stateMutability": "nonpayable",
      "type": "function"
    },
    {
      "inputs": [],
      "name": "foundationAccount",
      "outputs": [
        {
          "internalType": "bytes32",
          "name": "",
          "type": "bytes32"
        }
      ],
      "stateMutability": "view",
      "type": "function"
    },
    {
      "inputs": [],
      "name": "franchiseeCollectionAddress",
      "outputs": [
        {
          "internalType": "address",
          "name": "",
          "type": "address"
        }
      ],
      "stateMutability": "view",
      "type": "function"
    },
    {
      "inputs": [],
      "name": "linkCollectionAddress",
      "outputs": [
        {
          "internalType": "address",
          "name": "",
          "type": "address"
        }
      ],
      "stateMutability": "view",
      "type": "function"
    },
    {
      "inputs": [
        {
          "internalType": "bytes32",
          "name": "_hash",
          "type": "bytes32"
        }
      ],
      "name": "mileageBalanceOf",
      "outputs": [
        {
          "internalType": "uint256",
          "name": "",
          "type": "uint256"
        }
      ],
      "stateMutability": "view",
      "type": "function"
    },
    {
      "inputs": [
        {
          "internalType": "address",
          "name": "_account",
          "type": "address"
        }
      ],
      "name": "nonceOf",
      "outputs": [
        {
          "internalType": "uint256",
          "name": "",
          "type": "uint256"
        }
      ],
      "stateMutability": "view",
      "type": "function"
    },
    {
      "inputs": [
        {
          "internalType": "string",
          "name": "_purchaseId",
          "type": "string"
        },
        {
          "internalType": "uint256",
          "name": "_amount",
          "type": "uint256"
        },
        {
          "internalType": "bytes32",
          "name": "_userEmail",
          "type": "bytes32"
        },
        {
          "internalType": "string",
          "name": "_franchiseeId",
          "type": "string"
        },
        {
          "internalType": "address",
          "name": "_signer",
          "type": "address"
        },
        {
          "internalType": "bytes",
          "name": "_signature",
          "type": "bytes"
        }
      ],
      "name": "payMileage",
      "outputs": [],
      "stateMutability": "nonpayable",
      "type": "function"
    },
    {
      "inputs": [
        {
          "internalType": "string",
          "name": "_purchaseId",
          "type": "string"
        },
        {
          "internalType": "uint256",
          "name": "_amount",
          "type": "uint256"
        },
        {
          "internalType": "bytes32",
          "name": "_userEmail",
          "type": "bytes32"
        },
        {
          "internalType": "string",
          "name": "_franchiseeId",
          "type": "string"
        },
        {
          "internalType": "address",
          "name": "_signer",
          "type": "address"
        },
        {
          "internalType": "bytes",
          "name": "_signature",
          "type": "bytes"
        }
      ],
      "name": "payToken",
      "outputs": [],
      "stateMutability": "nonpayable",
      "type": "function"
    },
    {
      "inputs": [
        {
          "internalType": "uint256",
          "name": "_idx",
          "type": "uint256"
        }
      ],
      "name": "purchaseIdOf",
      "outputs": [
        {
          "internalType": "string",
          "name": "",
          "type": "string"
        }
      ],
      "stateMutability": "view",
      "type": "function"
    },
    {
      "inputs": [
        {
          "internalType": "string",
          "name": "_purchaseId",
          "type": "string"
        }
      ],
      "name": "purchaseOf",
      "outputs": [
        {
          "components": [
            {
              "internalType": "string",
              "name": "purchaseId",
              "type": "string"
            },
            {
              "internalType": "uint256",
              "name": "timestamp",
              "type": "uint256"
            },
            {
              "internalType": "uint256",
              "name": "amount",
              "type": "uint256"
            },
            {
              "internalType": "bytes32",
              "name": "userEmail",
              "type": "bytes32"
            },
            {
              "internalType": "string",
              "name": "franchiseeId",
              "type": "string"
            }
          ],
          "internalType": "struct Ledger.PurchaseData",
          "name": "",
          "type": "tuple"
        }
      ],
      "stateMutability": "view",
      "type": "function"
    },
    {
      "inputs": [],
      "name": "purchasesLength",
      "outputs": [
        {
          "internalType": "uint256",
          "name": "",
          "type": "uint256"
        }
      ],
      "stateMutability": "view",
      "type": "function"
    },
    {
      "inputs": [
        {
          "internalType": "string",
          "name": "_purchaseId",
          "type": "string"
        },
        {
          "internalType": "uint256",
          "name": "_timestamp",
          "type": "uint256"
        },
        {
          "internalType": "uint256",
          "name": "_amount",
          "type": "uint256"
        },
        {
          "internalType": "bytes32",
          "name": "_userEmail",
          "type": "bytes32"
        },
        {
          "internalType": "string",
          "name": "_franchiseeId",
          "type": "string"
        }
      ],
      "name": "savePurchase",
      "outputs": [],
      "stateMutability": "nonpayable",
      "type": "function"
    },
    {
      "inputs": [],
      "name": "tokenAddress",
      "outputs": [
        {
          "internalType": "address",
          "name": "",
          "type": "address"
        }
      ],
      "stateMutability": "view",
      "type": "function"
    },
    {
      "inputs": [
        {
          "internalType": "bytes32",
          "name": "_hash",
          "type": "bytes32"
        }
      ],
      "name": "tokenBalanceOf",
      "outputs": [
        {
          "internalType": "uint256",
          "name": "",
          "type": "uint256"
        }
      ],
      "stateMutability": "view",
      "type": "function"
    },
    {
      "inputs": [],
      "name": "tokenPriceAddress",
      "outputs": [
        {
          "internalType": "address",
          "name": "",
          "type": "address"
        }
      ],
      "stateMutability": "view",
      "type": "function"
    },
    {
      "inputs": [],
      "name": "validatorAddress",
      "outputs": [
        {
          "internalType": "address",
          "name": "",
          "type": "address"
        }
      ],
      "stateMutability": "view",
      "type": "function"
    },
    {
      "inputs": [
        {
          "internalType": "uint256",
          "name": "_amount",
          "type": "uint256"
        }
      ],
      "name": "withdraw",
      "outputs": [],
      "stateMutability": "nonpayable",
      "type": "function"
    }
  ],
  "transactionHash": "0x51ec9ac5908202a1b3b5071d6fa064748d1576913aad21f1ceb79b6aabbedc74",
  "args": [
    "0x1553fe63710743b6a67e5400471ba1a18218e7e06a4e3004a41e0e8bf9a15768",
    "0x4Ca91738C7cD24895467c6d550D96BE8dC4b33AA",
    "0x3D6B7A5C7e471C53B5146CdBEFd59ffaA03138Ee",
    "0xFDa3d1ff3C570c2f76c2157Ef7A8640A75794eD9",
    "0x3705f330B593b28B3663a3C4BC2c7C5565988d18",
    "0x52bB9258733086243Ad1a4A818945F94BCAd05B9"
  ],
  "numDeployments": 1,
  "solcInputHash": "7ccf1a4a5c4293366ab888224207d7f7",
  "bytecode": "0x60806040523480156200001157600080fd5b506040516200309e3803806200309e8339810160408190526200003491620000ee565b600595909555600680546001600160a01b039586166001600160a01b03199182168117909255600780549587169582168617905560088054948716948216851790556009805493871693821684179055600a8054969097169581168617909655600b805487169091179055600c80548616909317909255600d805485169091179055600e805484169091179055600f805490921617905562000165565b80516001600160a01b0381168114620000e957600080fd5b919050565b60008060008060008060c0878903121562000107578182fd5b865195506200011960208801620000d1565b94506200012960408801620000d1565b93506200013960608801620000d1565b92506200014960808801620000d1565b91506200015960a08801620000d1565b90509295509295509295565b612f2980620001756000396000f3fe608060405234801561001057600080fd5b506004361061016b5760003560e01c8063a58ea827116100cd578063ca6b4ffc11610081578063f26be3fc11610066578063f26be3fc146102b0578063f6aeff3c146102b8578063f9b0a0d2146102cb5761016b565b8063ca6b4ffc1461028a578063ed2a2d641461029d5761016b565b8063b6b55f25116100b2578063b6b55f2514610251578063c268508014610264578063ca1b73f4146102775761016b565b8063a58ea82714610236578063af0721c8146102495761016b565b80632e1a7d4d116101245780634f071d67116101095780634f071d67146102135780639d76ea5814610226578063a47ec3ad1461022e5761016b565b80632e1a7d4d146101e95780633fe4676e146101fe5761016b565b8063098b85d311610155578063098b85d3146101b957806319e36708146101d957806328e671b9146101e15761016b565b806298584214610170578063011610a414610199575b600080fd5b61018361017e36600461258a565b6102d3565b6040516101909190612908565b60405180910390f35b6101ac6101a7366004612622565b6102e8565b6040516101909190612d0c565b6101cc6101c736600461258a565b610462565b6040516101909190612977565b61018361051f565b610183610525565b6101fc6101f736600461258a565b61052b565b005b61020661072a565b604051610190919061287c565b6101fc6102213660046125ba565b610739565b6102066109eb565b6102066109fa565b6101fc610244366004612708565b610a09565b610206610e01565b6101fc61025f36600461258a565b610e10565b6101fc610272366004612655565b611088565b61018361028536600461258a565b611586565b6101fc610298366004612655565b611598565b6101836102ab366004612532565b611acd565b610183611ae8565b6101fc6102c63660046125ba565b611b0c565b610206611d9d565b6000818152602081905260409020545b919050565b6102f061237c565b6003826040516103009190612860565b90815260200160405180910390206040518060a001604052908160008201805461032990612e5c565b80601f016020809104026020016040519081016040528092919081815260200182805461035590612e5c565b80156103a25780601f10610377576101008083540402835291602001916103a2565b820191906000526020600020905b81548152906001019060200180831161038557829003601f168201915b505050505081526020016001820154815260200160028201548152602001600382015481526020016004820180546103d990612e5c565b80601f016020809104026020016040519081016040528092919081815260200182805461040590612e5c565b80156104525780601f1061042757610100808354040283529160200191610452565b820191906000526020600020905b81548152906001019060200180831161043557829003601f168201915b5050505050815250509050919050565b60606004828154811061048557634e487b7160e01b600052603260045260246000fd5b90600052602060002001805461049a90612e5c565b80601f01602080910402602001604051908101604052809291908181526020018280546104c690612e5c565b80156105135780601f106104e857610100808354040283529160200191610513565b820191906000526020600020905b8154815290600101906020018083116104f657829003601f168201915b50505050509050919050565b60055481565b60045490565b600d546040517fdea567fc0000000000000000000000000000000000000000000000000000000081526000916001600160a01b03169063dea567fc9061057590339060040161287c565b60206040518083038186803b15801561058d57600080fd5b505afa1580156105a1573d6000803e3d6000fd5b505050506040513d601f19601f820116820180604052508101906105c591906125a2565b9050806105ed5760405162461bcd60e51b81526004016105e490612c67565b60405180910390fd5b60008181526001602052604090205482111561061b5760405162461bcd60e51b81526004016105e490612b9c565b600b546040517fa9059cbb0000000000000000000000000000000000000000000000000000000081526001600160a01b039091169063a9059cbb9061066690339086906004016128ce565b602060405180830381600087803b15801561068057600080fd5b505af1158015610694573d6000803e3d6000fd5b505050506040513d601f19601f820116820180604052508101906106b8919061256a565b50600081815260016020526040812080548492906106d7908490612e15565b9091555050600081815260016020526040908190205490517f92ccf450a286a957af52509bc1c9939d1a6a481783e142e41e2499f0bb66ebc69161071e91339186916128e7565b60405180910390a15050565b6007546001600160a01b031681565b6001600160a01b0383166000908152600260209081526040808320549051610767928992899289920161291f565b604051602081830303815290604052805190602001209050836001600160a01b03166107d161079583611dac565b85858080601f016020809104026020016040519081016040528093929190818152602001838380828437600092019190915250611ddf92505050565b6001600160a01b0316146107f75760405162461bcd60e51b81526004016105e490612bd3565b600d5460405163341f662360e01b81526000916001600160a01b03169063341f662390610828908a90600401612908565b60206040518083038186803b15801561084057600080fd5b505afa158015610854573d6000803e3d6000fd5b505050506040513d601f19601f82011682018060405250810190610878919061254e565b90506001600160a01b0381166108a05760405162461bcd60e51b81526004016105e490612c67565b846001600160a01b0316816001600160a01b0316146108d15760405162461bcd60e51b81526004016105e490612af7565b6000878152600160205260409020548611156108ff5760405162461bcd60e51b81526004016105e490612b9c565b6000878152600160205260408120805488929061091d908490612e15565b909155505060055460009081526001602052604081208054889290610943908490612dbe565b909155506000905061095487611e03565b9050806000808a815260200190815260200160002060008282546109789190612dbe565b90915550506001600160a01b03861660009081526002602052604081208054916109a183612e97565b91905055507f76c8164739f4240c31ed2583836885fe4ba33db2bbcab95bbd04527febc9d83b8888836040516109d993929190612943565b60405180910390a15050505050505050565b6006546001600160a01b031681565b6008546001600160a01b031681565b336000805b600c60009054906101000a90046001600160a01b03166001600160a01b03166377172f0e6040518163ffffffff1660e01b815260040160206040518083038186803b158015610a5c57600080fd5b505afa158015610a70573d6000803e3d6000fd5b505050506040513d601f19601f82011682018060405250810190610a9491906125a2565b811015610b6657600c546040517f7a5e8be90000000000000000000000000000000000000000000000000000000081526001600160a01b0390911690637a5e8be990610ae4908490600401612908565b60206040518083038186803b158015610afc57600080fd5b505afa158015610b10573d6000803e3d6000fd5b505050506040513d601f19601f82011682018060405250810190610b34919061254e565b6001600160a01b0316836001600160a01b03161415610b565760019150610b66565b610b5f81612e97565b9050610a0e565b5080610b845760405162461bcd60e51b81526004016105e490612b65565b6040805160a081018252888152602080820189905291810187905260608101869052608081018590526004805460018101825560009190915289519192610bf3927f8a35acfbc15ff81a39ae7d344fd709f28e8600b4aa8c65c6b64bfe7fe36bd19b90920191908b01906123ae565b5080600389604051610c059190612860565b90815260200160405180910390206000820151816000019080519060200190610c2f9291906123ae565b506020828101516001830155604083015160028301556060830151600383015560808301518051610c6692600485019201906123ae565b5050507fe3b0c44298fc1c149afbf4c8996fb92427ae41e4649b934ca495991b7852b8558514610dca576000610c9d606488612dd6565b600d5460405163341f662360e01b81529192506000916001600160a01b039091169063341f662390610cd3908a90600401612908565b60206040518083038186803b158015610ceb57600080fd5b505afa158015610cff573d6000803e3d6000fd5b505050506040513d601f19601f82011682018060405250810190610d23919061254e565b6001600160a01b03161415610d4157610d3c8682611f42565b610d4b565b610d4b8682611f97565b600f546040517f6c8502600000000000000000000000000000000000000000000000000000000081526001600160a01b0390911690636c85026090610d96908890859060040161298a565b600060405180830381600087803b158015610db057600080fd5b505af1158015610dc4573d6000803e3d6000fd5b50505050505b7fd64094a45486d0f7b859e05523f7762feb1225703d761c74068e10cf26febfae88888888886040516109d99594939291906129fc565b600a546001600160a01b031681565b600d546040517fdea567fc0000000000000000000000000000000000000000000000000000000081526000916001600160a01b03169063dea567fc90610e5a90339060040161287c565b60206040518083038186803b158015610e7257600080fd5b505afa158015610e86573d6000803e3d6000fd5b505050506040513d601f19601f82011682018060405250810190610eaa91906125a2565b905080610ec95760405162461bcd60e51b81526004016105e490612c67565b600b546040517fdd62ed3e0000000000000000000000000000000000000000000000000000000081526001600160a01b039091169063dd62ed3e90610f149033903090600401612890565b60206040518083038186803b158015610f2c57600080fd5b505afa158015610f40573d6000803e3d6000fd5b505050506040513d601f19601f82011682018060405250810190610f6491906125a2565b821115610f835760405162461bcd60e51b81526004016105e490612cd5565b600b546040517f23b872dd0000000000000000000000000000000000000000000000000000000081526001600160a01b03909116906323b872dd90610fd0903390309087906004016128aa565b602060405180830381600087803b158015610fea57600080fd5b505af1158015610ffe573d6000803e3d6000fd5b505050506040513d601f19601f82011682018060405250810190611022919061256a565b5060008181526001602052604081208054849290611041908490612dbe565b9091555050600081815260016020526040908190205490517f73a19dd210f1a7f902193214c0ee91dd35ee5b4d920cba8d519eca65a7b488ca9161071e91339186916128e7565b6001600160a01b03831660009081526002602090815260408083205490516110bc928b928b928b928b928b929091016129ac565b604051602081830303815290604052805190602001209050836001600160a01b03166110ea61079583611dac565b6001600160a01b0316146111105760405162461bcd60e51b81526004016105e490612bd3565b600d5460405163341f662360e01b81526000916001600160a01b03169063341f662390611141908a90600401612908565b60206040518083038186803b15801561115957600080fd5b505afa15801561116d573d6000803e3d6000fd5b505050506040513d601f19601f82011682018060405250810190611191919061254e565b90506001600160a01b0381166111b95760405162461bcd60e51b81526004016105e490612c67565b846001600160a01b0316816001600160a01b0316146111ea5760405162461bcd60e51b81526004016105e490612af7565b6000878152602081905260409020548811156112185760405162461bcd60e51b81526004016105e490612b9c565b600087815260208190526040812080548a9290611236908490612e15565b9091555050600f546040517f356bb1ab0000000000000000000000000000000000000000000000000000000081526001600160a01b039091169063356bb1ab906112869089908c9060040161298a565b600060405180830381600087803b1580156112a057600080fd5b505af11580156112b4573d6000803e3d6000fd5b5050600f546040517f5d404c6a000000000000000000000000000000000000000000000000000000008152600093506001600160a01b039091169150635d404c6a90611304908a90600401612977565b60206040518083038186803b15801561131c57600080fd5b505afa158015611330573d6000803e3d6000fd5b505050506040513d601f19601f8201168201806040525081019061135491906125a2565b9050801561151257600f546040517f45405ed10000000000000000000000000000000000000000000000000000000081526001600160a01b03909116906345405ed1906113a7908a90859060040161298a565b600060405180830381600087803b1580156113c157600080fd5b505af11580156113d5573d6000803e3d6000fd5b5050600f546040517f4a9c2fcf000000000000000000000000000000000000000000000000000000008152600093506001600160a01b039091169150634a9c2fcf90611425908b90600401612977565b60006040518083038186803b15801561143d57600080fd5b505afa158015611451573d6000803e3d6000fd5b505050506040513d6000823e601f3d908101601f191682016040526114799190810190612786565b60408101519091507fe3b0c44298fc1c149afbf4c8996fb92427ae41e4649b934ca495991b7852b8551461151057816000808360400151815260200190815260200160002060008282546114cd9190612dbe565b909155505060408082015190517f3a72e1de7c044b91f6be985dd58ab6b36ee29ada754212f293edcd9fad614db291611507918590612911565b60405180910390a15b505b6001600160a01b038616600090815260026020526040812080549161153683612e97565b91905055507f6766c8d289d074bf22dff1911c3376ff0e8f40e844b00cd596871beb576edd5f8a428b8b8b6040516115729594939291906129fc565b60405180910390a150505050505050505050565b60009081526001602052604090205490565b6001600160a01b03831660009081526002602090815260408083205490516115cc928b928b928b928b928b929091016129ac565b604051602081830303815290604052805190602001209050836001600160a01b03166115fa61079583611dac565b6001600160a01b0316146116205760405162461bcd60e51b81526004016105e490612bd3565b600d5460405163341f662360e01b81526000916001600160a01b03169063341f662390611651908a90600401612908565b60206040518083038186803b15801561166957600080fd5b505afa15801561167d573d6000803e3d6000fd5b505050506040513d601f19601f820116820180604052508101906116a1919061254e565b90506001600160a01b0381166116c95760405162461bcd60e51b81526004016105e490612c67565b846001600160a01b0316816001600160a01b0316146116fa5760405162461bcd60e51b81526004016105e490612af7565b600061170589612060565b6000898152600160205260409020549091508111156117365760405162461bcd60e51b81526004016105e490612b9c565b60008881526001602052604081208054839290611754908490612e15565b90915550506005546000908152600160205260408120805483929061177a908490612dbe565b9091555050600f546040517f356bb1ab0000000000000000000000000000000000000000000000000000000081526001600160a01b039091169063356bb1ab906117ca908a908d9060040161298a565b600060405180830381600087803b1580156117e457600080fd5b505af11580156117f8573d6000803e3d6000fd5b5050600f546040517f5d404c6a000000000000000000000000000000000000000000000000000000008152600093506001600160a01b039091169150635d404c6a90611848908b90600401612977565b60206040518083038186803b15801561186057600080fd5b505afa158015611874573d6000803e3d6000fd5b505050506040513d601f19601f8201168201806040525081019061189891906125a2565b90508015611a5657600f546040517f45405ed10000000000000000000000000000000000000000000000000000000081526001600160a01b03909116906345405ed1906118eb908b90859060040161298a565b600060405180830381600087803b15801561190557600080fd5b505af1158015611919573d6000803e3d6000fd5b5050600f546040517f4a9c2fcf000000000000000000000000000000000000000000000000000000008152600093506001600160a01b039091169150634a9c2fcf90611969908c90600401612977565b60006040518083038186803b15801561198157600080fd5b505afa158015611995573d6000803e3d6000fd5b505050506040513d6000823e601f3d908101601f191682016040526119bd9190810190612786565b60408101519091507fe3b0c44298fc1c149afbf4c8996fb92427ae41e4649b934ca495991b7852b85514611a545781600080836040015181526020019081526020016000206000828254611a119190612dbe565b909155505060408082015190517f3a72e1de7c044b91f6be985dd58ab6b36ee29ada754212f293edcd9fad614db291611a4b918590612911565b60405180910390a15b505b6001600160a01b0387166000908152600260205260408120805491611a7a83612e97565b91905055507fd1a5bfc8e67faedf1a903d8146fe2580a3a5d34f090071dc1ca75a67deec7ab38b428c858d8d604051611ab896959493929190612a3f565b60405180910390a15050505050505050505050565b6001600160a01b031660009081526002602052604090205490565b7fe3b0c44298fc1c149afbf4c8996fb92427ae41e4649b934ca495991b7852b85581565b6001600160a01b0383166000908152600260209081526040808320549051611b3a928992899289920161291f565b604051602081830303815290604052805190602001209050836001600160a01b0316611b6861079583611dac565b6001600160a01b031614611b8e5760405162461bcd60e51b81526004016105e490612bd3565b600d5460405163341f662360e01b81526000916001600160a01b03169063341f662390611bbf908a90600401612908565b60206040518083038186803b158015611bd757600080fd5b505afa158015611beb573d6000803e3d6000fd5b505050506040513d601f19601f82011682018060405250810190611c0f919061254e565b90506001600160a01b038116611c375760405162461bcd60e51b81526004016105e490612c67565b846001600160a01b0316816001600160a01b031614611c685760405162461bcd60e51b81526004016105e490612af7565b600087815260208190526040902054861115611c965760405162461bcd60e51b81526004016105e490612b9c565b6000611ca187612060565b600554600090815260016020526040902054909150811115611cd55760405162461bcd60e51b81526004016105e490612ac0565b60008881526020819052604081208054899290611cf3908490612e15565b909155505060008881526001602052604081208054839290611d16908490612dbe565b909155505060055460009081526001602052604081208054839290611d3c908490612e15565b90915550506001600160a01b0386166000908152600260205260408120805491611d6583612e97565b91905055507f800c6b07253d58ddecb5ad94ef16f08dc1bddc3009dde1acd0376586bf79c5d48888836040516109d993929190612943565b6009546001600160a01b031681565b7f19457468657265756d205369676e6564204d6573736167653a0a3332000000006000908152601c91909152603c902090565b6000806000611dee858561218f565b91509150611dfb816121d5565b509392505050565b600e546040517f693ec85e00000000000000000000000000000000000000000000000000000000815260009182916001600160a01b039091169063693ec85e90611e4f90600401612c9e565b60206040518083038186803b158015611e6757600080fd5b505afa158015611e7b573d6000803e3d6000fd5b505050506040513d601f19601f82011682018060405250810190611e9f91906125a2565b9050600e60009054906101000a90046001600160a01b03166001600160a01b0316637516a79e6040518163ffffffff1660e01b815260040160206040518083038186803b158015611eef57600080fd5b505afa158015611f03573d6000803e3d6000fd5b505050506040513d601f19601f82011682018060405250810190611f2791906125a2565b611f318285612df6565b611f3b9190612dd6565b9392505050565b60008281526020819052604081208054839290611f60908490612dbe565b90915550506040517f27524905578f1c83382c92e31578f733ed602e407693ae24802dbd3db33a1da19061071e9084908490612911565b6000611fa282612060565b600554600090815260016020526040902054909150811115611fd65760405162461bcd60e51b81526004016105e490612ac0565b60008381526001602052604081208054839290611ff4908490612dbe565b90915550506005546000908152600160205260408120805483929061201a908490612e15565b90915550506040517f3a0ef4a36528600b415f3d063ddc27a45eeea0260c44bc773bf4b27d85c1033e9061205390859085908590612943565b60405180910390a1505050565b600e546040517f693ec85e00000000000000000000000000000000000000000000000000000000815260009182916001600160a01b039091169063693ec85e906120ac90600401612c9e565b60206040518083038186803b1580156120c457600080fd5b505afa1580156120d8573d6000803e3d6000fd5b505050506040513d601f19601f820116820180604052508101906120fc91906125a2565b905080600e60009054906101000a90046001600160a01b03166001600160a01b0316637516a79e6040518163ffffffff1660e01b815260040160206040518083038186803b15801561214d57600080fd5b505afa158015612161573d6000803e3d6000fd5b505050506040513d601f19601f8201168201806040525081019061218591906125a2565b611f319085612df6565b6000808251604114156121c65760208301516040840151606085015160001a6121ba878285856122c5565b945094505050506121ce565b506000905060025b9250929050565b60008160048111156121f757634e487b7160e01b600052602160045260246000fd5b1415612202576122c2565b600181600481111561222457634e487b7160e01b600052602160045260246000fd5b14156122425760405162461bcd60e51b81526004016105e490612a89565b600281600481111561226457634e487b7160e01b600052602160045260246000fd5b14156122825760405162461bcd60e51b81526004016105e490612b2e565b60038160048111156122a457634e487b7160e01b600052602160045260246000fd5b14156122c25760405162461bcd60e51b81526004016105e490612c0a565b50565b6000807f7fffffffffffffffffffffffffffffff5d576e7357a4501ddfe92f46681b20a08311156122fc5750600090506003612373565b6000600187878787604051600081526020016040526040516123219493929190612959565b6020604051602081039080840390855afa158015612343573d6000803e3d6000fd5b5050604051601f1901519150506001600160a01b03811661236c57600060019250925050612373565b9150600090505b94509492505050565b6040518060a0016040528060608152602001600081526020016000815260200160008019168152602001606081525090565b8280546123ba90612e5c565b90600052602060002090601f0160209004810192826123dc5760008555612422565b82601f106123f557805160ff1916838001178555612422565b82800160010185558215612422579182015b82811115612422578251825591602001919060010190612407565b5061242e929150612432565b5090565b5b8082111561242e5760008155600101612433565b60008083601f840112612458578182fd5b50813567ffffffffffffffff81111561246f578182fd5b6020830191508360208285010111156121ce57600080fd5b8051600281106102e357600080fd5b600082601f8301126124a6578081fd5b81356124b96124b482612d96565b612d6c565b8181528460208386010111156124cd578283fd5b816020850160208301379081016020019190915292915050565b600082601f8301126124f7578081fd5b81516125056124b482612d96565b818152846020838601011115612519578283fd5b61252a826020830160208701612e2c565b949350505050565b600060208284031215612543578081fd5b8135611f3b81612ede565b60006020828403121561255f578081fd5b8151611f3b81612ede565b60006020828403121561257b578081fd5b81518015158114611f3b578182fd5b60006020828403121561259b578081fd5b5035919050565b6000602082840312156125b3578081fd5b5051919050565b6000806000806000608086880312156125d1578081fd5b853594506020860135935060408601356125ea81612ede565b9250606086013567ffffffffffffffff811115612605578182fd5b61261188828901612447565b969995985093965092949392505050565b600060208284031215612633578081fd5b813567ffffffffffffffff811115612649578182fd5b61252a84828501612496565b600080600080600080600060c0888a03121561266f578182fd5b873567ffffffffffffffff80821115612686578384fd5b6126928b838c01612496565b985060208a0135975060408a0135965060608a01359150808211156126b5578384fd5b6126c18b838c01612496565b955060808a013591506126d382612ede565b90935060a089013590808211156126e8578384fd5b506126f58a828b01612447565b989b979a50959850939692959293505050565b600080600080600060a0868803121561271f578081fd5b853567ffffffffffffffff80821115612736578283fd5b61274289838a01612496565b9650602088013595506040880135945060608801359350608088013591508082111561276c578283fd5b5061277988828901612496565b9150509295509295909350565b600060208284031215612797578081fd5b815167ffffffffffffffff808211156127ae578283fd5b9083019060e082860312156127c1578283fd5b6127cb60e0612d6c565b8251828111156127d9578485fd5b6127e5878286016124e7565b8252506020830151602082015260408301516040820152606083015160608201526080830151608082015260a083015160a082015261282660c08401612487565b60c082015295945050505050565b6000815180845261284c816020860160208601612e2c565b601f01601f19169290920160200192915050565b60008251612872818460208701612e2c565b9190910192915050565b6001600160a01b0391909116815260200190565b6001600160a01b0392831681529116602082015260400190565b6001600160a01b039384168152919092166020820152604081019190915260600190565b6001600160a01b03929092168252602082015260400190565b6001600160a01b039390931683526020830191909152604082015260600190565b90815260200190565b918252602082015260400190565b93845260208401929092526001600160a01b03166040830152606082015260800190565b9283526020830191909152604082015260600190565b93845260ff9290921660208401526040830152606082015260800190565b600060208252611f3b6020830184612834565b60006040825261299d6040830185612834565b90508260208301529392505050565b600060c082526129bf60c0830189612834565b87602084015286604084015282810360608401526129dd8187612834565b6001600160a01b03959095166080840152505060a00152949350505050565b600060a08252612a0f60a0830188612834565b8660208401528560408401528460608401528281036080840152612a338185612834565b98975050505050505050565b600060c08252612a5260c0830189612834565b87602084015286604084015285606084015284608084015282810360a0840152612a7c8185612834565b9998505050505050505050565b60208082526018908201527f45434453413a20696e76616c6964207369676e61747572650000000000000000604082015260600190565b6020808252601f908201527f496e73756666696369656e7420666f756e646174696f6e2062616c616e636500604082015260600190565b6020808252600f908201527f496e76616c696420616464726573730000000000000000000000000000000000604082015260600190565b6020808252601f908201527f45434453413a20696e76616c6964207369676e6174757265206c656e67746800604082015260600190565b6020808252600d908201527f4e6f742076616c696461746f7200000000000000000000000000000000000000604082015260600190565b60208082526014908201527f496e73756666696369656e742062616c616e6365000000000000000000000000604082015260600190565b60208082526011908201527f496e76616c6964207369676e6174757265000000000000000000000000000000604082015260600190565b60208082526022908201527f45434453413a20696e76616c6964207369676e6174757265202773272076616c60408201527f7565000000000000000000000000000000000000000000000000000000000000606082015260800190565b6020808252601a908201527f556e7265676973746572656420656d61696c2d61646472657373000000000000604082015260600190565b60208082526003908201527f4b52570000000000000000000000000000000000000000000000000000000000604082015260600190565b60208082526013908201527f4e6f7420616c6c6f776564206465706f73697400000000000000000000000000604082015260600190565b600060208252825160a06020840152612d2860c0840182612834565b90506020840151604084015260408401516060840152606084015160808401526080840151601f198483030160a0850152612d638282612834565b95945050505050565b60405181810167ffffffffffffffff81118282101715612d8e57612d8e612ec8565b604052919050565b600067ffffffffffffffff821115612db057612db0612ec8565b50601f01601f191660200190565b60008219821115612dd157612dd1612eb2565b500190565b600082612df157634e487b7160e01b81526012600452602481fd5b500490565b6000816000190483118215151615612e1057612e10612eb2565b500290565b600082821015612e2757612e27612eb2565b500390565b60005b83811015612e47578181015183820152602001612e2f565b83811115612e56576000848401525b50505050565b600281046001821680612e7057607f821691505b60208210811415612e9157634e487b7160e01b600052602260045260246000fd5b50919050565b6000600019821415612eab57612eab612eb2565b5060010190565b634e487b7160e01b600052601160045260246000fd5b634e487b7160e01b600052604160045260246000fd5b6001600160a01b03811681146122c257600080fdfea2646970667358221220491c61b6217399b33ca1a986cf23c9acba13e5b0559a67f208dc0084c137b64e64736f6c63430008000033",
  "devdoc": {
    "kind": "dev",
    "methods": {
      "constructor": {
        "params": {
          "_foundationAccount": " ",
          "_franchiseeCollectionAddress": "   ",
          "_linkCollectionAddress": "-   ",
          "_tokenAddress": "  ",
          "_tokenPriceAddress": "   ",
          "_validatorAddress": "   "
        }
      },
      "deposit(uint256)": {
        "params": {
          "_amount": ""
        }
      },
      "exchangeMileageToToken(bytes32,uint256,address,bytes)": {
        "details": "  .",
        "params": {
          "_amountMileage": "  ",
          "_signature": "",
          "_signer": " ",
          "_userEmail": "  "
        }
      },
      "exchangeTokenToMileage(bytes32,uint256,address,bytes)": {
        "details": "  .",
        "params": {
          "_amountToken": "  ",
          "_signature": "",
          "_signer": " ",
          "_userEmail": "  "
        }
      },
      "mileageBalanceOf(bytes32)": {
        "params": {
          "_hash": " "
        }
      },
      "nonceOf(address)": {
        "params": {
          "_account": ""
        }
      },
      "payMileage(string,uint256,bytes32,string,address,bytes)": {
        "details": "  .",
        "params": {
          "_amount": " ",
          "_franchiseeId": "  ",
          "_purchaseId": " ",
          "_signature": "",
          "_signer": " ",
          "_userEmail": "   "
        }
      },
      "payToken(string,uint256,bytes32,string,address,bytes)": {
        "details": "  .",
        "params": {
          "_amount": " ",
          "_franchiseeId": "  ",
          "_purchaseId": " ",
          "_signature": "",
          "_signer": " ",
          "_userEmail": "   "
        }
      },
      "purchaseIdOf(uint256)": {
        "params": {
          "_idx": " "
        }
      },
      "purchaseOf(string)": {
        "params": {
          "_purchaseId": " "
        }
      },
      "savePurchase(string,uint256,uint256,bytes32,string)": {
        "details": "    .",
        "params": {
          "_amount": " ",
          "_franchiseeId": "  ",
          "_purchaseId": " ",
          "_timestamp": " ",
          "_userEmail": "   "
        }
      },
      "tokenBalanceOf(bytes32)": {
        "params": {
          "_hash": " "
        }
      },
      "withdraw(uint256)": {
        "params": {
          "_amount": ""
        }
      }
    },
    "version": 1
  },
  "userdoc": {
    "events": {
      "Deposited(address,uint256,uint256)": {
        "notice": "    "
      },
      "ExchangedMileageToToken(bytes32,uint256,uint256)": {
        "notice": "     "
      },
      "ExchangedTokenToMileage(bytes32,uint256,uint256)": {
        "notice": "     "
      },
      "PaidMileage(string,uint256,uint256,bytes32,string)": {
        "notice": "     "
      },
      "PaidToken(string,uint256,uint256,uint256,bytes32,string)": {
        "notice": "     "
      },
      "ProvidedMileage(bytes32,uint256)": {
        "notice": "    "
      },
      "ProvidedMileageToFranchisee(bytes32,uint256)": {
        "notice": "    "
      },
      "ProvidedToken(bytes32,uint256,uint256)": {
        "notice": "    "
      },
      "SavedPurchase(string,uint256,uint256,bytes32,string)": {
        "notice": "    "
      },
      "Withdrawn(address,uint256,uint256)": {
        "notice": "    "
      }
    },
    "kind": "user",
    "methods": {
      "NULL()": {
        "notice": "Hash value of a blank string"
      },
      "constructor": {
        "notice": ""
      },
      "deposit(uint256)": {
        "notice": " ."
      },
      "exchangeMileageToToken(bytes32,uint256,address,bytes)": {
        "notice": "  "
      },
      "exchangeTokenToMileage(bytes32,uint256,address,bytes)": {
        "notice": "  "
      },
      "mileageBalanceOf(bytes32)": {
        "notice": "  "
      },
      "nonceOf(address)": {
        "notice": "nonce  "
      },
      "payMileage(string,uint256,bytes32,string,address,bytes)": {
        "notice": "   "
      },
      "payToken(string,uint256,bytes32,string,address,bytes)": {
        "notice": "   "
      },
      "purchaseIdOf(uint256)": {
        "notice": "   "
      },
      "purchaseOf(string)": {
        "notice": "  "
      },
      "purchasesLength()": {
        "notice": "   "
      },
      "savePurchase(string,uint256,uint256,bytes32,string)": {
        "notice": " ."
      },
      "tokenBalanceOf(bytes32)": {
        "notice": "  "
      },
      "withdraw(uint256)": {
        "notice": " ."
      }
    },
    "notice": "  ",
    "version": 1
  },
  "storageLayout": {
    "storage": [
      {
        "astId": 2576,
        "contract": "contracts/Ledger.sol:Ledger",
        "label": "mileageLedger",
        "offset": 0,
        "slot": "0",
        "type": "t_mapping(t_bytes32,t_uint256)"
      },
      {
        "astId": 2580,
        "contract": "contracts/Ledger.sol:Ledger",
        "label": "tokenLedger",
        "offset": 0,
        "slot": "1",
        "type": "t_mapping(t_bytes32,t_uint256)"
      },
      {
        "astId": 2584,
        "contract": "contracts/Ledger.sol:Ledger",
        "label": "nonce",
        "offset": 0,
        "slot": "2",
        "type": "t_mapping(t_address,t_uint256)"
      },
      {
        "astId": 2600,
        "contract": "contracts/Ledger.sol:Ledger",
        "label": "purchases",
        "offset": 0,
        "slot": "3",
        "type": "t_mapping(t_string_memory_ptr,t_struct(PurchaseData)2595_storage)"
      },
      {
        "astId": 2603,
        "contract": "contracts/Ledger.sol:Ledger",
        "label": "purchaseIds",
        "offset": 0,
        "slot": "4",
        "type": "t_array(t_string_storage)dyn_storage"
      },
      {
        "astId": 2605,
        "contract": "contracts/Ledger.sol:Ledger",
        "label": "foundationAccount",
        "offset": 0,
        "slot": "5",
        "type": "t_bytes32"
      },
      {
        "astId": 2607,
        "contract": "contracts/Ledger.sol:Ledger",
        "label": "tokenAddress",
        "offset": 0,
        "slot": "6",
        "type": "t_address"
      },
      {
        "astId": 2609,
        "contract": "contracts/Ledger.sol:Ledger",
        "label": "validatorAddress",
        "offset": 0,
        "slot": "7",
        "type": "t_address"
      },
      {
        "astId": 2611,
        "contract": "contracts/Ledger.sol:Ledger",
        "label": "linkCollectionAddress",
        "offset": 0,
        "slot": "8",
        "type": "t_address"
      },
      {
        "astId": 2613,
        "contract": "contracts/Ledger.sol:Ledger",
        "label": "tokenPriceAddress",
        "offset": 0,
        "slot": "9",
        "type": "t_address"
      },
      {
        "astId": 2615,
        "contract": "contracts/Ledger.sol:Ledger",
        "label": "franchiseeCollectionAddress",
        "offset": 0,
        "slot": "10",
        "type": "t_address"
      },
      {
        "astId": 2618,
        "contract": "contracts/Ledger.sol:Ledger",
        "label": "token",
        "offset": 0,
        "slot": "11",
        "type": "t_contract(IERC20)466"
      },
      {
        "astId": 2621,
        "contract": "contracts/Ledger.sol:Ledger",
        "label": "validatorCollection",
        "offset": 0,
        "slot": "12",
        "type": "t_contract(ValidatorCollection)4586"
      },
      {
        "astId": 2624,
        "contract": "contracts/Ledger.sol:Ledger",
        "label": "linkCollection",
        "offset": 0,
        "slot": "13",
        "type": "t_contract(LinkCollection)4943"
      },
      {
        "astId": 2627,
        "contract": "contracts/Ledger.sol:Ledger",
        "label": "tokenPrice",
        "offset": 0,
        "slot": "14",
        "type": "t_contract(TokenPrice)3914"
      },
      {
        "astId": 2630,
        "contract": "contracts/Ledger.sol:Ledger",
        "label": "franchiseeCollection",
        "offset": 0,
        "slot": "15",
        "type": "t_contract(FranchiseeCollection)2559"
      }
    ],
    "types": {
      "t_address": {
        "encoding": "inplace",
        "label": "address",
        "numberOfBytes": "20"
      },
      "t_array(t_string_storage)dyn_storage": {
        "base": "t_string_storage",
        "encoding": "dynamic_array",
        "label": "string[]",
        "numberOfBytes": "32"
      },
      "t_bytes32": {
        "encoding": "inplace",
        "label": "bytes32",
        "numberOfBytes": "32"
      },
      "t_contract(FranchiseeCollection)2559": {
        "encoding": "inplace",
        "label": "contract FranchiseeCollection",
        "numberOfBytes": "20"
      },
      "t_contract(IERC20)466": {
        "encoding": "inplace",
        "label": "contract IERC20",
        "numberOfBytes": "20"
      },
      "t_contract(LinkCollection)4943": {
        "encoding": "inplace",
        "label": "contract LinkCollection",
        "numberOfBytes": "20"
      },
      "t_contract(TokenPrice)3914": {
        "encoding": "inplace",
        "label": "contract TokenPrice",
        "numberOfBytes": "20"
      },
      "t_contract(ValidatorCollection)4586": {
        "encoding": "inplace",
        "label": "contract ValidatorCollection",
        "numberOfBytes": "20"
      },
      "t_mapping(t_address,t_uint256)": {
        "encoding": "mapping",
        "key": "t_address",
        "label": "mapping(address => uint256)",
        "numberOfBytes": "32",
        "value": "t_uint256"
      },
      "t_mapping(t_bytes32,t_uint256)": {
        "encoding": "mapping",
        "key": "t_bytes32",
        "label": "mapping(bytes32 => uint256)",
        "numberOfBytes": "32",
        "value": "t_uint256"
      },
      "t_mapping(t_string_memory_ptr,t_struct(PurchaseData)2595_storage)": {
        "encoding": "mapping",
        "key": "t_string_memory_ptr",
        "label": "mapping(string => struct Ledger.PurchaseData)",
        "numberOfBytes": "32",
        "value": "t_struct(PurchaseData)2595_storage"
      },
      "t_string_memory_ptr": {
        "encoding": "bytes",
        "label": "string",
        "numberOfBytes": "32"
      },
      "t_string_storage": {
        "encoding": "bytes",
        "label": "string",
        "numberOfBytes": "32"
      },
      "t_struct(PurchaseData)2595_storage": {
        "encoding": "inplace",
        "label": "struct Ledger.PurchaseData",
        "members": [
          {
            "astId": 2586,
            "contract": "contracts/Ledger.sol:Ledger",
            "label": "purchaseId",
            "offset": 0,
            "slot": "0",
            "type": "t_string_storage"
          },
          {
            "astId": 2588,
            "contract": "contracts/Ledger.sol:Ledger",
            "label": "timestamp",
            "offset": 0,
            "slot": "1",
            "type": "t_uint256"
          },
          {
            "astId": 2590,
            "contract": "contracts/Ledger.sol:Ledger",
            "label": "amount",
            "offset": 0,
            "slot": "2",
            "type": "t_uint256"
          },
          {
            "astId": 2592,
            "contract": "contracts/Ledger.sol:Ledger",
            "label": "userEmail",
            "offset": 0,
            "slot": "3",
            "type": "t_bytes32"
          },
          {
            "astId": 2594,
            "contract": "contracts/Ledger.sol:Ledger",
            "label": "franchiseeId",
            "offset": 0,
            "slot": "4",
            "type": "t_string_storage"
          }
        ],
        "numberOfBytes": "160"
      },
      "t_uint256": {
        "encoding": "inplace",
        "label": "uint256",
        "numberOfBytes": "32"
      }
    }
  }
}