{
    "address": "0x1ae7b2564Ae7a7Fb1E7976F3F71cAF43ef49ac6F",
    "abi": [
        {
            "inputs": [
                {
                    "internalType": "bytes32",
                    "name": "_foundationAccount",
                    "type": "bytes32"
                },
                {
                    "internalType": "address",
                    "name": "_tokenAddress",
                    "type": "address"
                },
                {
                    "internalType": "address",
                    "name": "_validatorAddress",
                    "type": "address"
                },
                {
                    "internalType": "address",
                    "name": "_linkCollectionAddress",
                    "type": "address"
                },
                {
                    "internalType": "address",
                    "name": "_tokenPriceAddress",
                    "type": "address"
                },
                {
                    "internalType": "address",
                    "name": "_franchiseeCollectionAddress",
                    "type": "address"
                }
            ],
            "stateMutability": "nonpayable",
            "type": "constructor"
        },
        {
            "anonymous": false,
            "inputs": [
                {
                    "indexed": false,
                    "internalType": "address",
                    "name": "depositor",
                    "type": "address"
                },
                {
                    "indexed": false,
                    "internalType": "uint256",
                    "name": "amount",
                    "type": "uint256"
                },
                {
                    "indexed": false,
                    "internalType": "uint256",
                    "name": "balance",
                    "type": "uint256"
                }
            ],
            "name": "Deposited",
            "type": "event"
        },
        {
            "anonymous": false,
            "inputs": [
                {
                    "indexed": false,
                    "internalType": "bytes32",
                    "name": "email",
                    "type": "bytes32"
                },
                {
                    "indexed": false,
                    "internalType": "uint256",
                    "name": "amountMileage",
                    "type": "uint256"
                },
                {
                    "indexed": false,
                    "internalType": "uint256",
                    "name": "amountToken",
                    "type": "uint256"
                }
            ],
            "name": "ExchangedMileageToToken",
            "type": "event"
        },
        {
            "anonymous": false,
            "inputs": [
                {
                    "indexed": false,
                    "internalType": "bytes32",
                    "name": "email",
                    "type": "bytes32"
                },
                {
                    "indexed": false,
                    "internalType": "uint256",
                    "name": "amountToken",
                    "type": "uint256"
                },
                {
                    "indexed": false,
                    "internalType": "uint256",
                    "name": "amountMileage",
                    "type": "uint256"
                }
            ],
            "name": "ExchangedTokenToMileage",
            "type": "event"
        },
        {
            "anonymous": false,
            "inputs": [
                {
                    "indexed": false,
                    "internalType": "string",
                    "name": "purchaseId",
                    "type": "string"
                },
                {
                    "indexed": false,
                    "internalType": "uint256",
                    "name": "timestamp",
                    "type": "uint256"
                },
                {
                    "indexed": false,
                    "internalType": "uint256",
                    "name": "amount",
                    "type": "uint256"
                },
                {
                    "indexed": false,
                    "internalType": "bytes32",
                    "name": "userEmail",
                    "type": "bytes32"
                },
                {
                    "indexed": false,
                    "internalType": "string",
                    "name": "franchiseeId",
                    "type": "string"
                }
            ],
            "name": "PaidMileage",
            "type": "event"
        },
        {
            "anonymous": false,
            "inputs": [
                {
                    "indexed": false,
                    "internalType": "string",
                    "name": "purchaseId",
                    "type": "string"
                },
                {
                    "indexed": false,
                    "internalType": "uint256",
                    "name": "timestamp",
                    "type": "uint256"
                },
                {
                    "indexed": false,
                    "internalType": "uint256",
                    "name": "amount",
                    "type": "uint256"
                },
                {
                    "indexed": false,
                    "internalType": "uint256",
                    "name": "amountToken",
                    "type": "uint256"
                },
                {
                    "indexed": false,
                    "internalType": "bytes32",
                    "name": "userEmail",
                    "type": "bytes32"
                },
                {
                    "indexed": false,
                    "internalType": "string",
                    "name": "franchiseeId",
                    "type": "string"
                }
            ],
            "name": "PaidToken",
            "type": "event"
        },
        {
            "anonymous": false,
            "inputs": [
                {
                    "indexed": false,
                    "internalType": "bytes32",
                    "name": "email",
                    "type": "bytes32"
                },
                {
                    "indexed": false,
                    "internalType": "uint256",
                    "name": "amount",
                    "type": "uint256"
                }
            ],
            "name": "ProvidedMileage",
            "type": "event"
        },
        {
            "anonymous": false,
            "inputs": [
                {
                    "indexed": false,
                    "internalType": "bytes32",
                    "name": "email",
                    "type": "bytes32"
                },
                {
                    "indexed": false,
                    "internalType": "uint256",
                    "name": "amount",
                    "type": "uint256"
                }
            ],
            "name": "ProvidedMileageToFranchisee",
            "type": "event"
        },
        {
            "anonymous": false,
            "inputs": [
                {
                    "indexed": false,
                    "internalType": "bytes32",
                    "name": "email",
                    "type": "bytes32"
                },
                {
                    "indexed": false,
                    "internalType": "uint256",
                    "name": "amount",
                    "type": "uint256"
                },
                {
                    "indexed": false,
                    "internalType": "uint256",
                    "name": "amountToken",
                    "type": "uint256"
                }
            ],
            "name": "ProvidedToken",
            "type": "event"
        },
        {
            "anonymous": false,
            "inputs": [
                {
                    "indexed": false,
                    "internalType": "string",
                    "name": "purchaseId",
                    "type": "string"
                },
                {
                    "indexed": false,
                    "internalType": "uint256",
                    "name": "timestamp",
                    "type": "uint256"
                },
                {
                    "indexed": false,
                    "internalType": "uint256",
                    "name": "amount",
                    "type": "uint256"
                },
                {
                    "indexed": false,
                    "internalType": "bytes32",
                    "name": "userEmail",
                    "type": "bytes32"
                },
                {
                    "indexed": false,
                    "internalType": "string",
                    "name": "franchiseeId",
                    "type": "string"
                }
            ],
            "name": "SavedPurchase",
            "type": "event"
        },
        {
            "anonymous": false,
            "inputs": [
                {
                    "indexed": false,
                    "internalType": "address",
                    "name": "withdrawer",
                    "type": "address"
                },
                {
                    "indexed": false,
                    "internalType": "uint256",
                    "name": "amount",
                    "type": "uint256"
                },
                {
                    "indexed": false,
                    "internalType": "uint256",
                    "name": "balance",
                    "type": "uint256"
                }
            ],
            "name": "Withdrawn",
            "type": "event"
        },
        {
            "inputs": [
                {
                    "internalType": "uint256",
                    "name": "_amount",
                    "type": "uint256"
                }
            ],
            "name": "deposit",
            "outputs": [],
            "stateMutability": "nonpayable",
            "type": "function"
        },
        {
            "inputs": [
                {
                    "internalType": "bytes32",
                    "name": "_userEmail",
                    "type": "bytes32"
                },
                {
                    "internalType": "uint256",
                    "name": "_amountMileage",
                    "type": "uint256"
                },
                {
                    "internalType": "address",
                    "name": "_signer",
                    "type": "address"
                },
                {
                    "internalType": "bytes",
                    "name": "_signature",
                    "type": "bytes"
                }
            ],
            "name": "exchangeMileageToToken",
            "outputs": [],
            "stateMutability": "nonpayable",
            "type": "function"
        },
        {
            "inputs": [
                {
                    "internalType": "bytes32",
                    "name": "_userEmail",
                    "type": "bytes32"
                },
                {
                    "internalType": "uint256",
                    "name": "_amountToken",
                    "type": "uint256"
                },
                {
                    "internalType": "address",
                    "name": "_signer",
                    "type": "address"
                },
                {
                    "internalType": "bytes",
                    "name": "_signature",
                    "type": "bytes"
                }
            ],
            "name": "exchangeTokenToMileage",
            "outputs": [],
            "stateMutability": "nonpayable",
            "type": "function"
        },
        {
            "inputs": [],
            "name": "foundationAccount",
            "outputs": [
                {
                    "internalType": "bytes32",
                    "name": "",
                    "type": "bytes32"
                }
            ],
            "stateMutability": "view",
            "type": "function"
        },
        {
            "inputs": [],
            "name": "franchiseeCollectionAddress",
            "outputs": [
                {
                    "internalType": "address",
                    "name": "",
                    "type": "address"
                }
            ],
            "stateMutability": "view",
            "type": "function"
        },
        {
            "inputs": [],
            "name": "linkCollectionAddress",
            "outputs": [
                {
                    "internalType": "address",
                    "name": "",
                    "type": "address"
                }
            ],
            "stateMutability": "view",
            "type": "function"
        },
        {
            "inputs": [
                {
                    "internalType": "bytes32",
                    "name": "",
                    "type": "bytes32"
                }
            ],
            "name": "mileageLedger",
            "outputs": [
                {
                    "internalType": "uint256",
                    "name": "",
                    "type": "uint256"
                }
            ],
            "stateMutability": "view",
            "type": "function"
        },
        {
            "inputs": [
                {
                    "internalType": "address",
                    "name": "",
                    "type": "address"
                }
            ],
            "name": "nonce",
            "outputs": [
                {
                    "internalType": "uint256",
                    "name": "",
                    "type": "uint256"
                }
            ],
            "stateMutability": "view",
            "type": "function"
        },
        {
            "inputs": [
                {
                    "internalType": "string",
                    "name": "_purchaseId",
                    "type": "string"
                },
                {
                    "internalType": "uint256",
                    "name": "_amount",
                    "type": "uint256"
                },
                {
                    "internalType": "bytes32",
                    "name": "_userEmail",
                    "type": "bytes32"
                },
                {
                    "internalType": "string",
                    "name": "_franchiseeId",
                    "type": "string"
                },
                {
                    "internalType": "address",
                    "name": "_signer",
                    "type": "address"
                },
                {
                    "internalType": "bytes",
                    "name": "_signature",
                    "type": "bytes"
                }
            ],
            "name": "payMileage",
            "outputs": [],
            "stateMutability": "nonpayable",
            "type": "function"
        },
        {
            "inputs": [
                {
                    "internalType": "string",
                    "name": "_purchaseId",
                    "type": "string"
                },
                {
                    "internalType": "uint256",
                    "name": "_amount",
                    "type": "uint256"
                },
                {
                    "internalType": "bytes32",
                    "name": "_userEmail",
                    "type": "bytes32"
                },
                {
                    "internalType": "string",
                    "name": "_franchiseeId",
                    "type": "string"
                },
                {
                    "internalType": "address",
                    "name": "_signer",
                    "type": "address"
                },
                {
                    "internalType": "bytes",
                    "name": "_signature",
                    "type": "bytes"
                }
            ],
            "name": "payToken",
            "outputs": [],
            "stateMutability": "nonpayable",
            "type": "function"
        },
        {
            "inputs": [
                {
                    "internalType": "uint256",
                    "name": "",
                    "type": "uint256"
                }
            ],
            "name": "purchaseIdList",
            "outputs": [
                {
                    "internalType": "string",
                    "name": "",
                    "type": "string"
                }
            ],
            "stateMutability": "view",
            "type": "function"
        },
        {
            "inputs": [
                {
                    "internalType": "string",
                    "name": "",
                    "type": "string"
                }
            ],
            "name": "purchaseMap",
            "outputs": [
                {
                    "internalType": "string",
                    "name": "purchaseId",
                    "type": "string"
                },
                {
                    "internalType": "uint256",
                    "name": "timestamp",
                    "type": "uint256"
                },
                {
                    "internalType": "uint256",
                    "name": "amount",
                    "type": "uint256"
                },
                {
                    "internalType": "bytes32",
                    "name": "userEmail",
                    "type": "bytes32"
                },
                {
                    "internalType": "string",
                    "name": "franchiseeId",
                    "type": "string"
                }
            ],
            "stateMutability": "view",
            "type": "function"
        },
        {
            "inputs": [
                {
                    "internalType": "string",
                    "name": "_purchaseId",
                    "type": "string"
                },
                {
                    "internalType": "uint256",
                    "name": "_timestamp",
                    "type": "uint256"
                },
                {
                    "internalType": "uint256",
                    "name": "_amount",
                    "type": "uint256"
                },
                {
                    "internalType": "bytes32",
                    "name": "_userEmail",
                    "type": "bytes32"
                },
                {
                    "internalType": "string",
                    "name": "_franchiseeId",
                    "type": "string"
                }
            ],
            "name": "savePurchase",
            "outputs": [],
            "stateMutability": "nonpayable",
            "type": "function"
        },
        {
            "inputs": [],
            "name": "tokenAddress",
            "outputs": [
                {
                    "internalType": "address",
                    "name": "",
                    "type": "address"
                }
            ],
            "stateMutability": "view",
            "type": "function"
        },
        {
            "inputs": [
                {
                    "internalType": "bytes32",
                    "name": "",
                    "type": "bytes32"
                }
            ],
            "name": "tokenLedger",
            "outputs": [
                {
                    "internalType": "uint256",
                    "name": "",
                    "type": "uint256"
                }
            ],
            "stateMutability": "view",
            "type": "function"
        },
        {
            "inputs": [],
            "name": "tokenPriceAddress",
            "outputs": [
                {
                    "internalType": "address",
                    "name": "",
                    "type": "address"
                }
            ],
            "stateMutability": "view",
            "type": "function"
        },
        {
            "inputs": [],
            "name": "validatorAddress",
            "outputs": [
                {
                    "internalType": "address",
                    "name": "",
                    "type": "address"
                }
            ],
            "stateMutability": "view",
            "type": "function"
        },
        {
            "inputs": [
                {
                    "internalType": "uint256",
                    "name": "_amount",
                    "type": "uint256"
                }
            ],
            "name": "withdraw",
            "outputs": [],
            "stateMutability": "nonpayable",
            "type": "function"
        }
    ],
    "transactionHash": "0xf64372dcc7e9b81f7cd690fbbcb7f6a8580e55ae9a091c3387dbedf7b9239c08",
    "args": [
        "0x1553fe63710743b6a67e5400471ba1a18218e7e06a4e3004a41e0e8bf9a15768",
        "0x4Ca91738C7cD24895467c6d550D96BE8dC4b33AA",
        "0x979a62090BDCff36F2e140F6915fbAdA7510cb6a",
        "0xFDa3d1ff3C570c2f76c2157Ef7A8640A75794eD9",
        "0xb9CE93eeb00a74Deeec319cBCD37938b5aAE6314",
        "0xD9d2A3fA6A93EC688831969C286B91524735aa35"
    ],
    "numDeployments": 1,
    "solcInputHash": "a7b1b71c1f5d4e04a8f1a0f0fa51eebb",
    "bytecode": "0x60806040523480156200001157600080fd5b5060405162002eee38038062002eee8339810160408190526200003491620000ee565b600595909555600680546001600160a01b039586166001600160a01b03199182168117909255600780549587169582168617905560088054948716948216851790556009805493871693821684179055600a8054969097169581168617909655600b805487169091179055600c80548616909317909255600d805485169091179055600e805484169091179055600f805490921617905562000165565b80516001600160a01b0381168114620000e957600080fd5b919050565b60008060008060008060c0878903121562000107578182fd5b865195506200011960208801620000d1565b94506200012960408801620000d1565b93506200013960608801620000d1565b92506200014960808801620000d1565b91506200015960a08801620000d1565b90509295509295509295565b612d7980620001756000396000f3fe608060405234801561001057600080fd5b50600436106101365760003560e01c8063b6b55f25116100b2578063ca6b4ffc11610081578063f6aeff3c11610066578063f6aeff3c14610257578063f9b0a0d21461026a578063faa6c75e1461027257610136565b8063ca6b4ffc14610231578063e6357aff1461024457610136565b8063b6b55f25146101d4578063b6b94917146101e7578063c26850801461020b578063c8fc98ad1461021e57610136565b806370ae92d211610109578063a47ec3ad116100ee578063a47ec3ad146101b1578063a58ea827146101b9578063af0721c8146101cc57610136565b806370ae92d2146101965780639d76ea58146101a957610136565b806319e367081461013b5780632e1a7d4d146101595780633fe4676e1461016e5780634f071d6714610183575b600080fd5b610143610292565b60405161015091906127b8565b60405180910390f35b61016c61016736600461243a565b610298565b005b610176610497565b604051610150919061272c565b61016c61019136600461246a565b6104a6565b6101436101a43660046123db565b610758565b61017661076a565b610176610779565b61016c6101c73660046125b8565b610788565b610176610b6c565b61016c6101e236600461243a565b610b7b565b6101fa6101f53660046124d2565b610df3565b6040516101509594939291906128ac565b61016c610219366004612505565b610f3c565b61014361022c36600461243a565b61140d565b61016c61023f366004612505565b61141f565b61014361025236600461243a565b611927565b61016c61026536600461246a565b611939565b610176611bca565b61028561028036600461243a565b611bd9565b6040516101509190612827565b60055481565b600d546040517fdea567fc0000000000000000000000000000000000000000000000000000000081526000916001600160a01b03169063dea567fc906102e290339060040161272c565b60206040518083038186803b1580156102fa57600080fd5b505afa15801561030e573d6000803e3d6000fd5b505050506040513d601f19601f820116820180604052508101906103329190612452565b90508061035a5760405162461bcd60e51b815260040161035190612b17565b60405180910390fd5b6000818152600160205260409020548211156103885760405162461bcd60e51b815260040161035190612a4c565b600b546040517fa9059cbb0000000000000000000000000000000000000000000000000000000081526001600160a01b039091169063a9059cbb906103d3903390869060040161277e565b602060405180830381600087803b1580156103ed57600080fd5b505af1158015610401573d6000803e3d6000fd5b505050506040513d601f19601f82011682018060405250810190610425919061241a565b5060008181526001602052604081208054849290610444908490612c65565b9091555050600081815260016020526040908190205490517f92ccf450a286a957af52509bc1c9939d1a6a481783e142e41e2499f0bb66ebc69161048b9133918691612797565b60405180910390a15050565b6007546001600160a01b031681565b6001600160a01b03831660009081526002602090815260408083205490516104d492899289928992016127cf565b604051602081830303815290604052805190602001209050836001600160a01b031661053e61050283611c85565b85858080601f016020809104026020016040519081016040528093929190818152602001838380828437600092019190915250611cb892505050565b6001600160a01b0316146105645760405162461bcd60e51b815260040161035190612a83565b600d5460405163341f662360e01b81526000916001600160a01b03169063341f662390610595908a906004016127b8565b60206040518083038186803b1580156105ad57600080fd5b505afa1580156105c1573d6000803e3d6000fd5b505050506040513d601f19601f820116820180604052508101906105e591906123fe565b90506001600160a01b03811661060d5760405162461bcd60e51b815260040161035190612b17565b846001600160a01b0316816001600160a01b03161461063e5760405162461bcd60e51b8152600401610351906129a7565b60008781526001602052604090205486111561066c5760405162461bcd60e51b815260040161035190612a4c565b6000878152600160205260408120805488929061068a908490612c65565b9091555050600554600090815260016020526040812080548892906106b0908490612c0e565b90915550600090506106c187611cdc565b9050806000808a815260200190815260200160002060008282546106e59190612c0e565b90915550506001600160a01b038616600090815260026020526040812080549161070e83612ce7565b91905055507f76c8164739f4240c31ed2583836885fe4ba33db2bbcab95bbd04527febc9d83b888883604051610746939291906127f3565b60405180910390a15050505050505050565b60026020526000908152604090205481565b6006546001600160a01b031681565b6008546001600160a01b031681565b336000805b600c60009054906101000a90046001600160a01b03166001600160a01b031663de4847c46040518163ffffffff1660e01b815260040160206040518083038186803b1580156107db57600080fd5b505afa1580156107ef573d6000803e3d6000fd5b505050506040513d601f19601f820116820180604052508101906108139190612452565b8110156108e557600c546040517f9c318c7b0000000000000000000000000000000000000000000000000000000081526001600160a01b0390911690639c318c7b906108639084906004016127b8565b60206040518083038186803b15801561087b57600080fd5b505afa15801561088f573d6000803e3d6000fd5b505050506040513d601f19601f820116820180604052508101906108b391906123fe565b6001600160a01b0316836001600160a01b031614156108d557600191506108e5565b6108de81612ce7565b905061078d565b50806109035760405162461bcd60e51b815260040161035190612a15565b6040805160a081018252888152602080820189905291810187905260608101869052608081018590526004805460018101825560009190915289519192610972927f8a35acfbc15ff81a39ae7d344fd709f28e8600b4aa8c65c6b64bfe7fe36bd19b90920191908b0190612257565b50806003896040516109849190612710565b908152602001604051809103902060008201518160000190805190602001906109ae929190612257565b5060208281015160018301556040830151600283015560608301516003830155608083015180516109e59260048501920190612257565b50600091506109f79050606488612c26565b600d5460405163341f662360e01b81529192506000916001600160a01b039091169063341f662390610a2d908a906004016127b8565b60206040518083038186803b158015610a4557600080fd5b505afa158015610a59573d6000803e3d6000fd5b505050506040513d601f19601f82011682018060405250810190610a7d91906123fe565b6001600160a01b03161415610a9b57610a968682611e1d565b610aa5565b610aa58682611e72565b600f546040517f6c8502600000000000000000000000000000000000000000000000000000000081526001600160a01b0390911690636c85026090610af0908890859060040161283a565b600060405180830381600087803b158015610b0a57600080fd5b505af1158015610b1e573d6000803e3d6000fd5b505050507fd64094a45486d0f7b859e05523f7762feb1225703d761c74068e10cf26febfae8989898989604051610b599594939291906128ac565b60405180910390a1505050505050505050565b600a546001600160a01b031681565b600d546040517fdea567fc0000000000000000000000000000000000000000000000000000000081526000916001600160a01b03169063dea567fc90610bc590339060040161272c565b60206040518083038186803b158015610bdd57600080fd5b505afa158015610bf1573d6000803e3d6000fd5b505050506040513d601f19601f82011682018060405250810190610c159190612452565b905080610c345760405162461bcd60e51b815260040161035190612b17565b600b546040517fdd62ed3e0000000000000000000000000000000000000000000000000000000081526001600160a01b039091169063dd62ed3e90610c7f9033903090600401612740565b60206040518083038186803b158015610c9757600080fd5b505afa158015610cab573d6000803e3d6000fd5b505050506040513d601f19601f82011682018060405250810190610ccf9190612452565b821115610cee5760405162461bcd60e51b815260040161035190612b85565b600b546040517f23b872dd0000000000000000000000000000000000000000000000000000000081526001600160a01b03909116906323b872dd90610d3b9033903090879060040161275a565b602060405180830381600087803b158015610d5557600080fd5b505af1158015610d69573d6000803e3d6000fd5b505050506040513d601f19601f82011682018060405250810190610d8d919061241a565b5060008181526001602052604081208054849290610dac908490612c0e565b9091555050600081815260016020526040908190205490517f73a19dd210f1a7f902193214c0ee91dd35ee5b4d920cba8d519eca65a7b488ca9161048b9133918691612797565b8051602081830181018051600382529282019190930120915280548190610e1990612cac565b80601f0160208091040260200160405190810160405280929190818152602001828054610e4590612cac565b8015610e925780601f10610e6757610100808354040283529160200191610e92565b820191906000526020600020905b815481529060010190602001808311610e7557829003601f168201915b505050505090806001015490806002015490806003015490806004018054610eb990612cac565b80601f0160208091040260200160405190810160405280929190818152602001828054610ee590612cac565b8015610f325780601f10610f0757610100808354040283529160200191610f32565b820191906000526020600020905b815481529060010190602001808311610f1557829003601f168201915b5050505050905085565b6001600160a01b0383166000908152600260209081526040808320549051610f70928b928b928b928b928b9290910161285c565b604051602081830303815290604052805190602001209050836001600160a01b0316610f9e61050283611c85565b6001600160a01b031614610fc45760405162461bcd60e51b815260040161035190612a83565b600d5460405163341f662360e01b81526000916001600160a01b03169063341f662390610ff5908a906004016127b8565b60206040518083038186803b15801561100d57600080fd5b505afa158015611021573d6000803e3d6000fd5b505050506040513d601f19601f8201168201806040525081019061104591906123fe565b90506001600160a01b03811661106d5760405162461bcd60e51b815260040161035190612b17565b846001600160a01b0316816001600160a01b03161461109e5760405162461bcd60e51b8152600401610351906129a7565b6000878152602081905260409020548811156110cc5760405162461bcd60e51b815260040161035190612a4c565b600087815260208190526040812080548a92906110ea908490612c65565b9091555050600f546040517f356bb1ab0000000000000000000000000000000000000000000000000000000081526001600160a01b039091169063356bb1ab9061113a9089908c9060040161283a565b600060405180830381600087803b15801561115457600080fd5b505af1158015611168573d6000803e3d6000fd5b5050600f546040517f5d404c6a000000000000000000000000000000000000000000000000000000008152600093506001600160a01b039091169150635d404c6a906111b8908a90600401612827565b60206040518083038186803b1580156111d057600080fd5b505afa1580156111e4573d6000803e3d6000fd5b505050506040513d601f19601f820116820180604052508101906112089190612452565b9050801561139957600f546040517f45405ed10000000000000000000000000000000000000000000000000000000081526001600160a01b03909116906345405ed19061125b908a90859060040161283a565b600060405180830381600087803b15801561127557600080fd5b505af1158015611289573d6000803e3d6000fd5b5050600f546040517fb6010fcd000000000000000000000000000000000000000000000000000000008152600093506001600160a01b03909116915063b6010fcd906112d9908b90600401612827565b60006040518083038186803b1580156112f157600080fd5b505afa158015611305573d6000803e3d6000fd5b505050506040513d6000823e601f3d908101601f1916820160405261132d9190810190612636565b9050816000808360400151815260200190815260200160002060008282546113559190612c0e565b909155505060408082015190517f3a72e1de7c044b91f6be985dd58ab6b36ee29ada754212f293edcd9fad614db29161138f9185906127c1565b60405180910390a1505b6001600160a01b03861660009081526002602052604081208054916113bd83612ce7565b91905055507f6766c8d289d074bf22dff1911c3376ff0e8f40e844b00cd596871beb576edd5f8a428b8b8b6040516113f99594939291906128ac565b60405180910390a150505050505050505050565b60016020526000908152604090205481565b6001600160a01b0383166000908152600260209081526040808320549051611453928b928b928b928b928b9290910161285c565b604051602081830303815290604052805190602001209050836001600160a01b031661148161050283611c85565b6001600160a01b0316146114a75760405162461bcd60e51b815260040161035190612a83565b600d5460405163341f662360e01b81526000916001600160a01b03169063341f6623906114d8908a906004016127b8565b60206040518083038186803b1580156114f057600080fd5b505afa158015611504573d6000803e3d6000fd5b505050506040513d601f19601f8201168201806040525081019061152891906123fe565b90506001600160a01b0381166115505760405162461bcd60e51b815260040161035190612b17565b846001600160a01b0316816001600160a01b0316146115815760405162461bcd60e51b8152600401610351906129a7565b600061158c89611f3b565b6000898152600160205260409020549091508111156115bd5760405162461bcd60e51b815260040161035190612a4c565b600088815260016020526040812080548392906115db908490612c65565b909155505060055460009081526001602052604081208054839290611601908490612c0e565b9091555050600f546040517f356bb1ab0000000000000000000000000000000000000000000000000000000081526001600160a01b039091169063356bb1ab90611651908a908d9060040161283a565b600060405180830381600087803b15801561166b57600080fd5b505af115801561167f573d6000803e3d6000fd5b5050600f546040517f5d404c6a000000000000000000000000000000000000000000000000000000008152600093506001600160a01b039091169150635d404c6a906116cf908b90600401612827565b60206040518083038186803b1580156116e757600080fd5b505afa1580156116fb573d6000803e3d6000fd5b505050506040513d601f19601f8201168201806040525081019061171f9190612452565b905080156118b057600f546040517f45405ed10000000000000000000000000000000000000000000000000000000081526001600160a01b03909116906345405ed190611772908b90859060040161283a565b600060405180830381600087803b15801561178c57600080fd5b505af11580156117a0573d6000803e3d6000fd5b5050600f546040517fb6010fcd000000000000000000000000000000000000000000000000000000008152600093506001600160a01b03909116915063b6010fcd906117f0908c90600401612827565b60006040518083038186803b15801561180857600080fd5b505afa15801561181c573d6000803e3d6000fd5b505050506040513d6000823e601f3d908101601f191682016040526118449190810190612636565b90508160008083604001518152602001908152602001600020600082825461186c9190612c0e565b909155505060408082015190517f3a72e1de7c044b91f6be985dd58ab6b36ee29ada754212f293edcd9fad614db2916118a69185906127c1565b60405180910390a1505b6001600160a01b03871660009081526002602052604081208054916118d483612ce7565b91905055507fd1a5bfc8e67faedf1a903d8146fe2580a3a5d34f090071dc1ca75a67deec7ab38b428c858d8d604051611912969594939291906128ef565b60405180910390a15050505050505050505050565b60006020819052908152604090205481565b6001600160a01b038316600090815260026020908152604080832054905161196792899289928992016127cf565b604051602081830303815290604052805190602001209050836001600160a01b031661199561050283611c85565b6001600160a01b0316146119bb5760405162461bcd60e51b815260040161035190612a83565b600d5460405163341f662360e01b81526000916001600160a01b03169063341f6623906119ec908a906004016127b8565b60206040518083038186803b158015611a0457600080fd5b505afa158015611a18573d6000803e3d6000fd5b505050506040513d601f19601f82011682018060405250810190611a3c91906123fe565b90506001600160a01b038116611a645760405162461bcd60e51b815260040161035190612b17565b846001600160a01b0316816001600160a01b031614611a955760405162461bcd60e51b8152600401610351906129a7565b600087815260208190526040902054861115611ac35760405162461bcd60e51b815260040161035190612a4c565b6000611ace87611f3b565b600554600090815260016020526040902054909150811115611b025760405162461bcd60e51b815260040161035190612970565b60008881526020819052604081208054899290611b20908490612c65565b909155505060008881526001602052604081208054839290611b43908490612c0e565b909155505060055460009081526001602052604081208054839290611b69908490612c65565b90915550506001600160a01b0386166000908152600260205260408120805491611b9283612ce7565b91905055507f800c6b07253d58ddecb5ad94ef16f08dc1bddc3009dde1acd0376586bf79c5d4888883604051610746939291906127f3565b6009546001600160a01b031681565b60048181548110611be957600080fd5b906000526020600020016000915090508054611c0490612cac565b80601f0160208091040260200160405190810160405280929190818152602001828054611c3090612cac565b8015611c7d5780601f10611c5257610100808354040283529160200191611c7d565b820191906000526020600020905b815481529060010190602001808311611c6057829003601f168201915b505050505081565b7f19457468657265756d205369676e6564204d6573736167653a0a3332000000006000908152601c91909152603c902090565b6000806000611cc7858561206a565b91509150611cd4816120b0565b509392505050565b600e546040517f693ec85e00000000000000000000000000000000000000000000000000000000815260009182916001600160a01b039091169063693ec85e90611d2890600401612b4e565b60206040518083038186803b158015611d4057600080fd5b505afa158015611d54573d6000803e3d6000fd5b505050506040513d601f19601f82011682018060405250810190611d789190612452565b9050600e60009054906101000a90046001600160a01b03166001600160a01b0316637516a79e6040518163ffffffff1660e01b815260040160206040518083038186803b158015611dc857600080fd5b505afa158015611ddc573d6000803e3d6000fd5b505050506040513d601f19601f82011682018060405250810190611e009190612452565b611e0a8285612c46565b611e149190612c26565b9150505b919050565b60008281526020819052604081208054839290611e3b908490612c0e565b90915550506040517f27524905578f1c83382c92e31578f733ed602e407693ae24802dbd3db33a1da19061048b90849084906127c1565b6000611e7d82611f3b565b600554600090815260016020526040902054909150811115611eb15760405162461bcd60e51b815260040161035190612970565b60008381526001602052604081208054839290611ecf908490612c0e565b909155505060055460009081526001602052604081208054839290611ef5908490612c65565b90915550506040517f3a0ef4a36528600b415f3d063ddc27a45eeea0260c44bc773bf4b27d85c1033e90611f2e908590859085906127f3565b60405180910390a1505050565b600e546040517f693ec85e00000000000000000000000000000000000000000000000000000000815260009182916001600160a01b039091169063693ec85e90611f8790600401612b4e565b60206040518083038186803b158015611f9f57600080fd5b505afa158015611fb3573d6000803e3d6000fd5b505050506040513d601f19601f82011682018060405250810190611fd79190612452565b905080600e60009054906101000a90046001600160a01b03166001600160a01b0316637516a79e6040518163ffffffff1660e01b815260040160206040518083038186803b15801561202857600080fd5b505afa15801561203c573d6000803e3d6000fd5b505050506040513d601f19601f820116820180604052508101906120609190612452565b611e0a9085612c46565b6000808251604114156120a15760208301516040840151606085015160001a612095878285856121a0565b945094505050506120a9565b506000905060025b9250929050565b60008160048111156120d257634e487b7160e01b600052602160045260246000fd5b14156120dd5761219d565b60018160048111156120ff57634e487b7160e01b600052602160045260246000fd5b141561211d5760405162461bcd60e51b815260040161035190612939565b600281600481111561213f57634e487b7160e01b600052602160045260246000fd5b141561215d5760405162461bcd60e51b8152600401610351906129de565b600381600481111561217f57634e487b7160e01b600052602160045260246000fd5b141561219d5760405162461bcd60e51b815260040161035190612aba565b50565b6000807f7fffffffffffffffffffffffffffffff5d576e7357a4501ddfe92f46681b20a08311156121d7575060009050600361224e565b6000600187878787604051600081526020016040526040516121fc9493929190612809565b6020604051602081039080840390855afa15801561221e573d6000803e3d6000fd5b5050604051601f1901519150506001600160a01b0381166122475760006001925092505061224e565b9150600090505b94509492505050565b82805461226390612cac565b90600052602060002090601f01602090048101928261228557600085556122cb565b82601f1061229e57805160ff19168380011785556122cb565b828001600101855582156122cb579182015b828111156122cb5782518255916020019190600101906122b0565b506122d79291506122db565b5090565b5b808211156122d757600081556001016122dc565b60008083601f840112612301578182fd5b50813567ffffffffffffffff811115612318578182fd5b6020830191508360208285010111156120a957600080fd5b805160028110611e1857600080fd5b600082601f83011261234f578081fd5b813561236261235d82612be6565b612bbc565b818152846020838601011115612376578283fd5b816020850160208301379081016020019190915292915050565b600082601f8301126123a0578081fd5b81516123ae61235d82612be6565b8181528460208386010111156123c2578283fd5b6123d3826020830160208701612c7c565b949350505050565b6000602082840312156123ec578081fd5b81356123f781612d2e565b9392505050565b60006020828403121561240f578081fd5b81516123f781612d2e565b60006020828403121561242b578081fd5b815180151581146123f7578182fd5b60006020828403121561244b578081fd5b5035919050565b600060208284031215612463578081fd5b5051919050565b600080600080600060808688031215612481578081fd5b8535945060208601359350604086013561249a81612d2e565b9250606086013567ffffffffffffffff8111156124b5578182fd5b6124c1888289016122f0565b969995985093965092949392505050565b6000602082840312156124e3578081fd5b813567ffffffffffffffff8111156124f9578182fd5b6123d38482850161233f565b600080600080600080600060c0888a03121561251f578182fd5b873567ffffffffffffffff80821115612536578384fd5b6125428b838c0161233f565b985060208a0135975060408a0135965060608a0135915080821115612565578384fd5b6125718b838c0161233f565b955060808a0135915061258382612d2e565b90935060a08901359080821115612598578384fd5b506125a58a828b016122f0565b989b979a50959850939692959293505050565b600080600080600060a086880312156125cf578081fd5b853567ffffffffffffffff808211156125e6578283fd5b6125f289838a0161233f565b9650602088013595506040880135945060608801359350608088013591508082111561261c578283fd5b506126298882890161233f565b9150509295509295909350565b600060208284031215612647578081fd5b815167ffffffffffffffff8082111561265e578283fd5b9083019060e08286031215612671578283fd5b61267b60e0612bbc565b825182811115612689578485fd5b61269587828601612390565b8252506020830151602082015260408301516040820152606083015160608201526080830151608082015260a083015160a08201526126d660c08401612330565b60c082015295945050505050565b600081518084526126fc816020860160208601612c7c565b601f01601f19169290920160200192915050565b60008251612722818460208701612c7c565b9190910192915050565b6001600160a01b0391909116815260200190565b6001600160a01b0392831681529116602082015260400190565b6001600160a01b039384168152919092166020820152604081019190915260600190565b6001600160a01b03929092168252602082015260400190565b6001600160a01b039390931683526020830191909152604082015260600190565b90815260200190565b918252602082015260400190565b93845260208401929092526001600160a01b03166040830152606082015260800190565b9283526020830191909152604082015260600190565b93845260ff9290921660208401526040830152606082015260800190565b6000602082526123f760208301846126e4565b60006040825261284d60408301856126e4565b90508260208301529392505050565b600060c0825261286f60c08301896126e4565b876020840152866040840152828103606084015261288d81876126e4565b6001600160a01b03959095166080840152505060a00152949350505050565b600060a082526128bf60a08301886126e4565b86602084015285604084015284606084015282810360808401526128e381856126e4565b98975050505050505050565b600060c0825261290260c08301896126e4565b87602084015286604084015285606084015284608084015282810360a084015261292c81856126e4565b9998505050505050505050565b60208082526018908201527f45434453413a20696e76616c6964207369676e61747572650000000000000000604082015260600190565b6020808252601f908201527f496e73756666696369656e7420666f756e646174696f6e2062616c616e636500604082015260600190565b6020808252600f908201527f496e76616c696420616464726573730000000000000000000000000000000000604082015260600190565b6020808252601f908201527f45434453413a20696e76616c6964207369676e6174757265206c656e67746800604082015260600190565b6020808252600d908201527f4e6f742076616c696461746f7200000000000000000000000000000000000000604082015260600190565b60208082526014908201527f496e73756666696369656e742062616c616e6365000000000000000000000000604082015260600190565b60208082526011908201527f496e76616c6964207369676e6174757265000000000000000000000000000000604082015260600190565b60208082526022908201527f45434453413a20696e76616c6964207369676e6174757265202773272076616c60408201527f7565000000000000000000000000000000000000000000000000000000000000606082015260800190565b6020808252601a908201527f556e7265676973746572656420656d61696c2d61646472657373000000000000604082015260600190565b60208082526003908201527f4b52570000000000000000000000000000000000000000000000000000000000604082015260600190565b60208082526013908201527f4e6f7420616c6c6f776564206465706f73697400000000000000000000000000604082015260600190565b60405181810167ffffffffffffffff81118282101715612bde57612bde612d18565b604052919050565b600067ffffffffffffffff821115612c0057612c00612d18565b50601f01601f191660200190565b60008219821115612c2157612c21612d02565b500190565b600082612c4157634e487b7160e01b81526012600452602481fd5b500490565b6000816000190483118215151615612c6057612c60612d02565b500290565b600082821015612c7757612c77612d02565b500390565b60005b83811015612c97578181015183820152602001612c7f565b83811115612ca6576000848401525b50505050565b600281046001821680612cc057607f821691505b60208210811415612ce157634e487b7160e01b600052602260045260246000fd5b50919050565b6000600019821415612cfb57612cfb612d02565b5060010190565b634e487b7160e01b600052601160045260246000fd5b634e487b7160e01b600052604160045260246000fd5b6001600160a01b038116811461219d57600080fdfea264697066735822122094cb5fb9da77fd78c6707f94225976f3f1686eecf2d2c1a929876d69c45383b864736f6c63430008000033",
    "devdoc": {
        "kind": "dev",
        "methods": {
            "constructor": {
                "params": {
                    "_foundationAccount": " ",
                    "_franchiseeCollectionAddress": "   ",
                    "_linkCollectionAddress": "-   ",
                    "_tokenAddress": "  ",
                    "_tokenPriceAddress": "   ",
                    "_validatorAddress": "   "
                }
            },
            "deposit(uint256)": {
                "params": {
                    "_amount": ""
                }
            },
            "exchangeMileageToToken(bytes32,uint256,address,bytes)": {
                "details": "  .",
                "params": {
                    "_amountMileage": "  ",
                    "_signature": "",
                    "_signer": " ",
                    "_userEmail": "  "
                }
            },
            "exchangeTokenToMileage(bytes32,uint256,address,bytes)": {
                "details": "  .",
                "params": {
                    "_amountToken": "  ",
                    "_signature": "",
                    "_signer": " ",
                    "_userEmail": "  "
                }
            },
            "payMileage(string,uint256,bytes32,string,address,bytes)": {
                "details": "  .",
                "params": {
                    "_amount": " ",
                    "_franchiseeId": "  ",
                    "_purchaseId": " ",
                    "_signature": "",
                    "_signer": " ",
                    "_userEmail": "   "
                }
            },
            "payToken(string,uint256,bytes32,string,address,bytes)": {
                "details": "  .",
                "params": {
                    "_amount": " ",
                    "_franchiseeId": "  ",
                    "_purchaseId": " ",
                    "_signature": "",
                    "_signer": " ",
                    "_userEmail": "   "
                }
            },
            "savePurchase(string,uint256,uint256,bytes32,string)": {
                "details": "    .",
                "params": {
                    "_amount": " ",
                    "_franchiseeId": "  ",
                    "_purchaseId": " ",
                    "_timestamp": " ",
                    "_userEmail": "   "
                }
            },
            "withdraw(uint256)": {
                "params": {
                    "_amount": ""
                }
            }
        },
        "version": 1
    },
    "userdoc": {
        "events": {
            "Deposited(address,uint256,uint256)": {
                "notice": "    "
            },
            "ExchangedMileageToToken(bytes32,uint256,uint256)": {
                "notice": "     "
            },
            "ExchangedTokenToMileage(bytes32,uint256,uint256)": {
                "notice": "     "
            },
            "PaidMileage(string,uint256,uint256,bytes32,string)": {
                "notice": "     "
            },
            "PaidToken(string,uint256,uint256,uint256,bytes32,string)": {
                "notice": "     "
            },
            "ProvidedMileage(bytes32,uint256)": {
                "notice": "    "
            },
            "ProvidedMileageToFranchisee(bytes32,uint256)": {
                "notice": "    "
            },
            "ProvidedToken(bytes32,uint256,uint256)": {
                "notice": "    "
            },
            "SavedPurchase(string,uint256,uint256,bytes32,string)": {
                "notice": "    "
            },
            "Withdrawn(address,uint256,uint256)": {
                "notice": "    "
            }
        },
        "kind": "user",
        "methods": {
            "constructor": {
                "notice": ""
            },
            "deposit(uint256)": {
                "notice": " ."
            },
            "exchangeMileageToToken(bytes32,uint256,address,bytes)": {
                "notice": "  "
            },
            "exchangeTokenToMileage(bytes32,uint256,address,bytes)": {
                "notice": "  "
            },
            "mileageLedger(bytes32)": {
                "notice": " "
            },
            "nonce(address)": {
                "notice": "  Nonce"
            },
            "payMileage(string,uint256,bytes32,string,address,bytes)": {
                "notice": "   "
            },
            "payToken(string,uint256,bytes32,string,address,bytes)": {
                "notice": "   "
            },
            "savePurchase(string,uint256,uint256,bytes32,string)": {
                "notice": " ."
            },
            "tokenLedger(bytes32)": {
                "notice": " "
            },
            "withdraw(uint256)": {
                "notice": " ."
            }
        },
        "notice": "  ",
        "version": 1
    },
    "storageLayout": {
        "storage": [
            {
                "astId": 2524,
                "contract": "contracts/Ledger.sol:Ledger",
                "label": "mileageLedger",
                "offset": 0,
                "slot": "0",
                "type": "t_mapping(t_bytes32,t_uint256)"
            },
            {
                "astId": 2529,
                "contract": "contracts/Ledger.sol:Ledger",
                "label": "tokenLedger",
                "offset": 0,
                "slot": "1",
                "type": "t_mapping(t_bytes32,t_uint256)"
            },
            {
                "astId": 2534,
                "contract": "contracts/Ledger.sol:Ledger",
                "label": "nonce",
                "offset": 0,
                "slot": "2",
                "type": "t_mapping(t_address,t_uint256)"
            },
            {
                "astId": 2550,
                "contract": "contracts/Ledger.sol:Ledger",
                "label": "purchaseMap",
                "offset": 0,
                "slot": "3",
                "type": "t_mapping(t_string_memory_ptr,t_struct(PurchaseData)2545_storage)"
            },
            {
                "astId": 2553,
                "contract": "contracts/Ledger.sol:Ledger",
                "label": "purchaseIdList",
                "offset": 0,
                "slot": "4",
                "type": "t_array(t_string_storage)dyn_storage"
            },
            {
                "astId": 2555,
                "contract": "contracts/Ledger.sol:Ledger",
                "label": "foundationAccount",
                "offset": 0,
                "slot": "5",
                "type": "t_bytes32"
            },
            {
                "astId": 2557,
                "contract": "contracts/Ledger.sol:Ledger",
                "label": "tokenAddress",
                "offset": 0,
                "slot": "6",
                "type": "t_address"
            },
            {
                "astId": 2559,
                "contract": "contracts/Ledger.sol:Ledger",
                "label": "validatorAddress",
                "offset": 0,
                "slot": "7",
                "type": "t_address"
            },
            {
                "astId": 2561,
                "contract": "contracts/Ledger.sol:Ledger",
                "label": "linkCollectionAddress",
                "offset": 0,
                "slot": "8",
                "type": "t_address"
            },
            {
                "astId": 2563,
                "contract": "contracts/Ledger.sol:Ledger",
                "label": "tokenPriceAddress",
                "offset": 0,
                "slot": "9",
                "type": "t_address"
            },
            {
                "astId": 2565,
                "contract": "contracts/Ledger.sol:Ledger",
                "label": "franchiseeCollectionAddress",
                "offset": 0,
                "slot": "10",
                "type": "t_address"
            },
            {
                "astId": 2568,
                "contract": "contracts/Ledger.sol:Ledger",
                "label": "token",
                "offset": 0,
                "slot": "11",
                "type": "t_contract(IERC20)466"
            },
            {
                "astId": 2571,
                "contract": "contracts/Ledger.sol:Ledger",
                "label": "validatorCollection",
                "offset": 0,
                "slot": "12",
                "type": "t_contract(ValidatorCollection)4414"
            },
            {
                "astId": 2574,
                "contract": "contracts/Ledger.sol:Ledger",
                "label": "linkCollection",
                "offset": 0,
                "slot": "13",
                "type": "t_contract(LinkCollection)4757"
            },
            {
                "astId": 2577,
                "contract": "contracts/Ledger.sol:Ledger",
                "label": "tokenPrice",
                "offset": 0,
                "slot": "14",
                "type": "t_contract(TokenPrice)3771"
            },
            {
                "astId": 2580,
                "contract": "contracts/Ledger.sol:Ledger",
                "label": "franchiseeCollection",
                "offset": 0,
                "slot": "15",
                "type": "t_contract(FranchiseeCollection)2510"
            }
        ],
        "types": {
            "t_address": {
                "encoding": "inplace",
                "label": "address",
                "numberOfBytes": "20"
            },
            "t_array(t_string_storage)dyn_storage": {
                "base": "t_string_storage",
                "encoding": "dynamic_array",
                "label": "string[]",
                "numberOfBytes": "32"
            },
            "t_bytes32": {
                "encoding": "inplace",
                "label": "bytes32",
                "numberOfBytes": "32"
            },
            "t_contract(FranchiseeCollection)2510": {
                "encoding": "inplace",
                "label": "contract FranchiseeCollection",
                "numberOfBytes": "20"
            },
            "t_contract(IERC20)466": {
                "encoding": "inplace",
                "label": "contract IERC20",
                "numberOfBytes": "20"
            },
            "t_contract(LinkCollection)4757": {
                "encoding": "inplace",
                "label": "contract LinkCollection",
                "numberOfBytes": "20"
            },
            "t_contract(TokenPrice)3771": {
                "encoding": "inplace",
                "label": "contract TokenPrice",
                "numberOfBytes": "20"
            },
            "t_contract(ValidatorCollection)4414": {
                "encoding": "inplace",
                "label": "contract ValidatorCollection",
                "numberOfBytes": "20"
            },
            "t_mapping(t_address,t_uint256)": {
                "encoding": "mapping",
                "key": "t_address",
                "label": "mapping(address => uint256)",
                "numberOfBytes": "32",
                "value": "t_uint256"
            },
            "t_mapping(t_bytes32,t_uint256)": {
                "encoding": "mapping",
                "key": "t_bytes32",
                "label": "mapping(bytes32 => uint256)",
                "numberOfBytes": "32",
                "value": "t_uint256"
            },
            "t_mapping(t_string_memory_ptr,t_struct(PurchaseData)2545_storage)": {
                "encoding": "mapping",
                "key": "t_string_memory_ptr",
                "label": "mapping(string => struct Ledger.PurchaseData)",
                "numberOfBytes": "32",
                "value": "t_struct(PurchaseData)2545_storage"
            },
            "t_string_memory_ptr": {
                "encoding": "bytes",
                "label": "string",
                "numberOfBytes": "32"
            },
            "t_string_storage": {
                "encoding": "bytes",
                "label": "string",
                "numberOfBytes": "32"
            },
            "t_struct(PurchaseData)2545_storage": {
                "encoding": "inplace",
                "label": "struct Ledger.PurchaseData",
                "members": [
                    {
                        "astId": 2536,
                        "contract": "contracts/Ledger.sol:Ledger",
                        "label": "purchaseId",
                        "offset": 0,
                        "slot": "0",
                        "type": "t_string_storage"
                    },
                    {
                        "astId": 2538,
                        "contract": "contracts/Ledger.sol:Ledger",
                        "label": "timestamp",
                        "offset": 0,
                        "slot": "1",
                        "type": "t_uint256"
                    },
                    {
                        "astId": 2540,
                        "contract": "contracts/Ledger.sol:Ledger",
                        "label": "amount",
                        "offset": 0,
                        "slot": "2",
                        "type": "t_uint256"
                    },
                    {
                        "astId": 2542,
                        "contract": "contracts/Ledger.sol:Ledger",
                        "label": "userEmail",
                        "offset": 0,
                        "slot": "3",
                        "type": "t_bytes32"
                    },
                    {
                        "astId": 2544,
                        "contract": "contracts/Ledger.sol:Ledger",
                        "label": "franchiseeId",
                        "offset": 0,
                        "slot": "4",
                        "type": "t_string_storage"
                    }
                ],
                "numberOfBytes": "160"
            },
            "t_uint256": {
                "encoding": "inplace",
                "label": "uint256",
                "numberOfBytes": "32"
            }
        }
    }
}