{
    "address": "0xFDa3d1ff3C570c2f76c2157Ef7A8640A75794eD9",
    "abi": [
        {
            "inputs": [
                {
                    "internalType": "address[]",
                    "name": "validators",
                    "type": "address[]"
                }
            ],
            "stateMutability": "nonpayable",
            "type": "constructor"
        },
        {
            "anonymous": false,
            "inputs": [
                {
                    "indexed": false,
                    "internalType": "bytes32",
                    "name": "hash",
                    "type": "bytes32"
                },
                {
                    "indexed": false,
                    "internalType": "address",
                    "name": "sender",
                    "type": "address"
                }
            ],
            "name": "Added",
            "type": "event"
        },
        {
            "anonymous": false,
            "inputs": [
                {
                    "indexed": true,
                    "internalType": "bytes32",
                    "name": "role",
                    "type": "bytes32"
                },
                {
                    "indexed": true,
                    "internalType": "bytes32",
                    "name": "previousAdminRole",
                    "type": "bytes32"
                },
                {
                    "indexed": true,
                    "internalType": "bytes32",
                    "name": "newAdminRole",
                    "type": "bytes32"
                }
            ],
            "name": "RoleAdminChanged",
            "type": "event"
        },
        {
            "anonymous": false,
            "inputs": [
                {
                    "indexed": true,
                    "internalType": "bytes32",
                    "name": "role",
                    "type": "bytes32"
                },
                {
                    "indexed": true,
                    "internalType": "address",
                    "name": "account",
                    "type": "address"
                },
                {
                    "indexed": true,
                    "internalType": "address",
                    "name": "sender",
                    "type": "address"
                }
            ],
            "name": "RoleGranted",
            "type": "event"
        },
        {
            "anonymous": false,
            "inputs": [
                {
                    "indexed": true,
                    "internalType": "bytes32",
                    "name": "role",
                    "type": "bytes32"
                },
                {
                    "indexed": true,
                    "internalType": "address",
                    "name": "account",
                    "type": "address"
                },
                {
                    "indexed": true,
                    "internalType": "address",
                    "name": "sender",
                    "type": "address"
                }
            ],
            "name": "RoleRevoked",
            "type": "event"
        },
        {
            "anonymous": false,
            "inputs": [
                {
                    "indexed": false,
                    "internalType": "bytes32",
                    "name": "hash",
                    "type": "bytes32"
                },
                {
                    "indexed": false,
                    "internalType": "address",
                    "name": "sender1",
                    "type": "address"
                },
                {
                    "indexed": false,
                    "internalType": "address",
                    "name": "sender2",
                    "type": "address"
                }
            ],
            "name": "Updated",
            "type": "event"
        },
        {
            "inputs": [],
            "name": "DEFAULT_ADMIN_ROLE",
            "outputs": [
                {
                    "internalType": "bytes32",
                    "name": "",
                    "type": "bytes32"
                }
            ],
            "stateMutability": "view",
            "type": "function"
        },
        {
            "inputs": [],
            "name": "LINK_COLLECTION_ADMIN_ROLE",
            "outputs": [
                {
                    "internalType": "bytes32",
                    "name": "",
                    "type": "bytes32"
                }
            ],
            "stateMutability": "view",
            "type": "function"
        },
        {
            "inputs": [],
            "name": "VALIDATOR_ROLE",
            "outputs": [
                {
                    "internalType": "bytes32",
                    "name": "",
                    "type": "bytes32"
                }
            ],
            "stateMutability": "view",
            "type": "function"
        },
        {
            "inputs": [
                {
                    "internalType": "bytes32",
                    "name": "hash",
                    "type": "bytes32"
                },
                {
                    "internalType": "address",
                    "name": "sender",
                    "type": "address"
                },
                {
                    "internalType": "bytes",
                    "name": "signature",
                    "type": "bytes"
                }
            ],
            "name": "add",
            "outputs": [],
            "stateMutability": "nonpayable",
            "type": "function"
        },
        {
            "inputs": [
                {
                    "internalType": "bytes32",
                    "name": "role",
                    "type": "bytes32"
                }
            ],
            "name": "getRoleAdmin",
            "outputs": [
                {
                    "internalType": "bytes32",
                    "name": "",
                    "type": "bytes32"
                }
            ],
            "stateMutability": "view",
            "type": "function"
        },
        {
            "inputs": [
                {
                    "internalType": "bytes32",
                    "name": "role",
                    "type": "bytes32"
                },
                {
                    "internalType": "address",
                    "name": "account",
                    "type": "address"
                }
            ],
            "name": "grantRole",
            "outputs": [],
            "stateMutability": "nonpayable",
            "type": "function"
        },
        {
            "inputs": [
                {
                    "internalType": "bytes32",
                    "name": "role",
                    "type": "bytes32"
                },
                {
                    "internalType": "address",
                    "name": "account",
                    "type": "address"
                }
            ],
            "name": "hasRole",
            "outputs": [
                {
                    "internalType": "bool",
                    "name": "",
                    "type": "bool"
                }
            ],
            "stateMutability": "view",
            "type": "function"
        },
        {
            "inputs": [
                {
                    "internalType": "address",
                    "name": "",
                    "type": "address"
                }
            ],
            "name": "nonce",
            "outputs": [
                {
                    "internalType": "uint256",
                    "name": "",
                    "type": "uint256"
                }
            ],
            "stateMutability": "view",
            "type": "function"
        },
        {
            "inputs": [
                {
                    "internalType": "bytes32",
                    "name": "role",
                    "type": "bytes32"
                },
                {
                    "internalType": "address",
                    "name": "account",
                    "type": "address"
                }
            ],
            "name": "renounceRole",
            "outputs": [],
            "stateMutability": "nonpayable",
            "type": "function"
        },
        {
            "inputs": [
                {
                    "internalType": "bytes32",
                    "name": "role",
                    "type": "bytes32"
                },
                {
                    "internalType": "address",
                    "name": "account",
                    "type": "address"
                }
            ],
            "name": "revokeRole",
            "outputs": [],
            "stateMutability": "nonpayable",
            "type": "function"
        },
        {
            "inputs": [
                {
                    "internalType": "bytes4",
                    "name": "interfaceId",
                    "type": "bytes4"
                }
            ],
            "name": "supportsInterface",
            "outputs": [
                {
                    "internalType": "bool",
                    "name": "",
                    "type": "bool"
                }
            ],
            "stateMutability": "view",
            "type": "function"
        },
        {
            "inputs": [
                {
                    "internalType": "bytes32",
                    "name": "",
                    "type": "bytes32"
                }
            ],
            "name": "toAddress",
            "outputs": [
                {
                    "internalType": "address",
                    "name": "",
                    "type": "address"
                }
            ],
            "stateMutability": "view",
            "type": "function"
        },
        {
            "inputs": [
                {
                    "internalType": "address",
                    "name": "",
                    "type": "address"
                }
            ],
            "name": "toHash",
            "outputs": [
                {
                    "internalType": "bytes32",
                    "name": "",
                    "type": "bytes32"
                }
            ],
            "stateMutability": "view",
            "type": "function"
        },
        {
            "inputs": [
                {
                    "internalType": "bytes32",
                    "name": "hash",
                    "type": "bytes32"
                },
                {
                    "internalType": "address",
                    "name": "sender1",
                    "type": "address"
                },
                {
                    "internalType": "bytes",
                    "name": "signature1",
                    "type": "bytes"
                },
                {
                    "internalType": "address",
                    "name": "sender2",
                    "type": "address"
                },
                {
                    "internalType": "bytes",
                    "name": "signature2",
                    "type": "bytes"
                }
            ],
            "name": "update",
            "outputs": [],
            "stateMutability": "nonpayable",
            "type": "function"
        }
    ],
    "transactionHash": "0x11ff94169e624f79088c5280f2daf96012177ca1c3c56b5c533d70f6b7f8bbb0",
    "args": [
        [
            "0x9E8549cc1B5b9036AC410Ed11966BB3c6B94A77d",
            "0x103CB97f47801563C875942510Ff0585E31F55b5",
            "0xF49e8729c774f31eB1b7724E898BC9230a13E54c",
            "0xA6Ee9Ddfa9B82DF810b8E4AFaa5ff04A267d4930",
            "0x898Bf21a9e1fF51d3F1248E0A253f6A58C3a736a"
        ]
    ],
    "numDeployments": 1,
    "solcInputHash": "2e70bfce524df9d1460b6708810d4899",
    "bytecode": "0x60806040523480156200001157600080fd5b506040516200197038038062001970833981016040819052620000349162000251565b6200004f600080516020620019508339815191528062000105565b62000079600080516020620019308339815191526000805160206200195083398151915262000105565b6200009460008051602062001950833981519152306200015a565b60005b8151811015620000fd57620000ea60008051602062001930833981519152838381518110620000d657634e487b7160e01b600052603260045260246000fd5b60200260200101516200015a60201b60201c565b620000f5816200031f565b905062000097565b50506200035d565b600062000112836200016a565b600084815260208190526040808220600101859055519192508391839186917fbd79b86ffe0ab8e8776151514217cd7cacd52c909f66475c3af44e129f0b00ff9190a4505050565b62000166828262000182565b5050565b6000818152602081905260409020600101545b919050565b6200018e82826200020c565b62000166576000828152602081815260408083206001600160a01b03851684529091529020805460ff19166001179055620001c862000235565b6001600160a01b0316816001600160a01b0316837f2f8788117e7eff1d82e926ec794901d17c78024a50270940304540a733656f0d60405160405180910390a45050565b6000918252602082815260408084206001600160a01b0393909316845291905290205460ff1690565b3390565b80516001600160a01b03811681146200017d57600080fd5b6000602080838503121562000264578182fd5b82516001600160401b03808211156200027b578384fd5b818501915085601f8301126200028f578384fd5b815181811115620002a457620002a462000347565b83810260405185828201018181108582111715620002c657620002c662000347565b604052828152858101935084860182860187018a1015620002e5578788fd5b8795505b838610156200031257620002fd8162000239565b855260019590950194938601938601620002e9565b5098975050505050505050565b60006000198214156200034057634e487b7160e01b81526011600452602481fd5b5060010190565b634e487b7160e01b600052604160045260246000fd5b6115c3806200036d6000396000f3fe608060405234801561001057600080fd5b50600436106100ea5760003560e01c8063a217fddf1161008c578063d547741f11610066578063d547741f146101c9578063dea567fc146101dc578063f7124d12146101ef578063fff6e615146101f7576100ea565b8063a217fddf146101a6578063bd3f40ad146101ae578063c49baebe146101c1576100ea565b8063341f6623116100c8578063341f66231461014d57806336568abe1461016d57806370ae92d21461018057806391d1485414610193576100ea565b806301ffc9a7146100ef578063248a9ca3146101185780632f2ff15d14610138575b600080fd5b6101026100fd36600461114d565b61020a565b60405161010f9190611222565b60405180910390f35b61012b610126366004611017565b610268565b60405161010f919061122d565b61014b61014636600461102f565b61027d565b005b61016061015b366004611017565b61029e565b60405161010f919061120e565b61014b61017b36600461102f565b6102b9565b61012b61018e366004610ffd565b610308565b6101026101a136600461102f565b61031a565b61012b610343565b61014b6101bc3660046110b2565b610348565b61012b6106ca565b61014b6101d736600461102f565b6106ee565b61012b6101ea366004610ffd565b61070a565b61012b61071c565b61014b61020536600461105a565b610740565b60007fffffffff0000000000000000000000000000000000000000000000000000000082167f7965db0b00000000000000000000000000000000000000000000000000000000148061026057506102608261094f565b90505b919050565b60009081526020819052604090206001015490565b61028682610268565b61028f81610999565b61029983836109a8565b505050565b6001602052600090815260409020546001600160a01b031681565b6102c1610a2d565b6001600160a01b0316816001600160a01b0316146102fa5760405162461bcd60e51b81526004016102f190611481565b60405180910390fd5b6103048282610a31565b5050565b60036020526000908152604090205481565b6000918252602082815260408084206001600160a01b0393909316845291905290205460ff1690565b600081565b7f21702c8af46127c7fa207f89d0b0a8441bb32959a0ac7df790e9ab1a25c9892661037481600061031a565b6103895761038981610384610a2d565b610ab4565b6001600160a01b03871660009081526003602090815260408083205490516103b7928c928c9290910161126c565b604051602081830303815290604052805190602001209050876001600160a01b03166104216103e583610b0d565b89898080601f016020809104026020016040519081016040528093929190818152602001838380828437600092019190915250610b4092505050565b6001600160a01b0316146104475760405162461bcd60e51b81526004016102f19061144a565b6001600160a01b0385166000908152600360209081526040808320549051610475928d928a9290910161126c565b604051602081830303815290604052805190602001209050856001600160a01b03166104df6104a383610b0d565b87878080601f016020809104026020016040519081016040528093929190818152602001838380828437600092019190915250610b4092505050565b6001600160a01b0316146105055760405162461bcd60e51b81526004016102f19061144a565b60008a8152600160205260409020546001600160a01b038a811691161461053e5760405162461bcd60e51b81526004016102f19061137f565b6001600160a01b0389166000908152600260205260409020548a146105755760405162461bcd60e51b81526004016102f1906113b6565b6001600160a01b038616600090815260026020526040902054156105ab5760405162461bcd60e51b81526004016102f1906113b6565b856001600160a01b0316896001600160a01b031614156105dd5760405162461bcd60e51b81526004016102f1906113b6565b6001600160a01b0389811660008181526002602081815260408084208490558f84526001825280842080547fffffffffffffffffffffffff000000000000000000000000000000000000000016968d1696871790559483529081528382208e905591815260039091529081208054916106558361155c565b90915550506001600160a01b038616600090815260036020526040812080549161067e8361155c565b91905055507f4131c9c283b15b54443b446a68d1c7c4ea6afa79b8759c4dc4052e43836c7aa28a8a886040516106b69392919061124d565b60405180910390a150505050505050505050565b7f21702c8af46127c7fa207f89d0b0a8441bb32959a0ac7df790e9ab1a25c9892681565b6106f782610268565b61070081610999565b6102998383610a31565b60026020526000908152604090205481565b7f64d8801b4a0e42a754f0b4beb0161164d284e2b3700ab1efe91dd0187772f47181565b7f21702c8af46127c7fa207f89d0b0a8441bb32959a0ac7df790e9ab1a25c9892661076c81600061031a565b61077c5761077c81610384610a2d565b6001600160a01b03841660009081526003602090815260408083205490516107aa928992899290910161126c565b604051602081830303815290604052805190602001209050846001600160a01b03166108146107d883610b0d565b86868080601f016020809104026020016040519081016040528093929190818152602001838380828437600092019190915250610b4092505050565b6001600160a01b03161461083a5760405162461bcd60e51b81526004016102f19061144a565b6000868152600160205260409020546001600160a01b03161561086f5760405162461bcd60e51b81526004016102f19061137f565b6001600160a01b038516600090815260026020526040902054156108a55760405162461bcd60e51b81526004016102f1906113b6565b600086815260016020908152604080832080547fffffffffffffffffffffffff0000000000000000000000000000000000000000166001600160a01b038a16908117909155835260028252808320899055600390915281208054916109098361155c565b91905055507f1f9db7c43ebd000b7e9cfeb8b009c1d2123430e62fb94d937b0dc52ce4a7c500868660405161093f929190611236565b60405180910390a1505050505050565b7fffffffff0000000000000000000000000000000000000000000000000000000081167f01ffc9a70000000000000000000000000000000000000000000000000000000014919050565b6109a581610384610a2d565b50565b6109b2828261031a565b610304576000828152602081815260408083206001600160a01b03851684529091529020805460ff191660011790556109e9610a2d565b6001600160a01b0316816001600160a01b0316837f2f8788117e7eff1d82e926ec794901d17c78024a50270940304540a733656f0d60405160405180910390a45050565b3390565b610a3b828261031a565b15610304576000828152602081815260408083206001600160a01b03851684529091529020805460ff19169055610a70610a2d565b6001600160a01b0316816001600160a01b0316837ff6391f5c32d9c69d2a47ea670b442974b53935d1edc7fd64eb21e047a839171b60405160405180910390a45050565b610abe828261031a565b61030457610acb81610b64565b610ad6836020610b76565b604051602001610ae792919061118d565b60408051601f198184030181529082905262461bcd60e51b82526102f1916004016112a9565b7f19457468657265756d205369676e6564204d6573736167653a0a3332000000006000908152601c91909152603c902090565b6000806000610b4f8585610dbc565b91509150610b5c81610e02565b509392505050565b60606102606001600160a01b03831660145b60606000610b858360026114f6565b610b909060026114de565b67ffffffffffffffff811115610bb657634e487b7160e01b600052604160045260246000fd5b6040519080825280601f01601f191660200182016040528015610be0576020820181803683370190505b5090507f300000000000000000000000000000000000000000000000000000000000000081600081518110610c2557634e487b7160e01b600052603260045260246000fd5b60200101907effffffffffffffffffffffffffffffffffffffffffffffffffffffffffffff1916908160001a9053507f780000000000000000000000000000000000000000000000000000000000000081600181518110610c9657634e487b7160e01b600052603260045260246000fd5b60200101907effffffffffffffffffffffffffffffffffffffffffffffffffffffffffffff1916908160001a9053506000610cd28460026114f6565b610cdd9060016114de565b90505b6001811115610d96577f303132333435363738396162636465660000000000000000000000000000000085600f1660108110610d2c57634e487b7160e01b600052603260045260246000fd5b1a60f81b828281518110610d5057634e487b7160e01b600052603260045260246000fd5b60200101907effffffffffffffffffffffffffffffffffffffffffffffffffffffffffffff1916908160001a90535060049490941c93610d8f81611545565b9050610ce0565b508315610db55760405162461bcd60e51b81526004016102f190611313565b9392505050565b600080825160411415610df35760208301516040840151606085015160001a610de787828585610eef565b94509450505050610dfb565b506000905060025b9250929050565b6000816004811115610e2457634e487b7160e01b600052602160045260246000fd5b1415610e2f576109a5565b6001816004811115610e5157634e487b7160e01b600052602160045260246000fd5b1415610e6f5760405162461bcd60e51b81526004016102f1906112dc565b6002816004811115610e9157634e487b7160e01b600052602160045260246000fd5b1415610eaf5760405162461bcd60e51b81526004016102f190611348565b6003816004811115610ed157634e487b7160e01b600052602160045260246000fd5b14156109a55760405162461bcd60e51b81526004016102f1906113ed565b6000807f7fffffffffffffffffffffffffffffff5d576e7357a4501ddfe92f46681b20a0831115610f265750600090506003610f9d565b600060018787878760405160008152602001604052604051610f4b949392919061128b565b6020604051602081039080840390855afa158015610f6d573d6000803e3d6000fd5b5050604051601f1901519150506001600160a01b038116610f9657600060019250925050610f9d565b9150600090505b94509492505050565b80356001600160a01b038116811461026357600080fd5b60008083601f840112610fce578182fd5b50813567ffffffffffffffff811115610fe5578182fd5b602083019150836020828501011115610dfb57600080fd5b60006020828403121561100e578081fd5b610db582610fa6565b600060208284031215611028578081fd5b5035919050565b60008060408385031215611041578081fd5b8235915061105160208401610fa6565b90509250929050565b6000806000806060858703121561106f578182fd5b8435935061107f60208601610fa6565b9250604085013567ffffffffffffffff81111561109a578283fd5b6110a687828801610fbd565b95989497509550505050565b600080600080600080600060a0888a0312156110cc578283fd5b873596506110dc60208901610fa6565b9550604088013567ffffffffffffffff808211156110f8578485fd5b6111048b838c01610fbd565b909750955085915061111860608b01610fa6565b945060808a013591508082111561112d578384fd5b5061113a8a828b01610fbd565b989b979a50959850939692959293505050565b60006020828403121561115e578081fd5b81357fffffffff0000000000000000000000000000000000000000000000000000000081168114610db5578182fd5b60007f416363657373436f6e74726f6c3a206163636f756e7420000000000000000000825283516111c5816017850160208801611515565b7f206973206d697373696e6720726f6c65200000000000000000000000000000006017918401918201528351611202816028840160208801611515565b01602801949350505050565b6001600160a01b0391909116815260200190565b901515815260200190565b90815260200190565b9182526001600160a01b0316602082015260400190565b9283526001600160a01b03918216602084015216604082015260600190565b9283526001600160a01b03919091166020830152604082015260600190565b93845260ff9290921660208401526040830152606082015260800190565b60006020825282518060208401526112c8816040850160208701611515565b601f01601f19169190910160400192915050565b60208082526018908201527f45434453413a20696e76616c6964207369676e61747572650000000000000000604082015260600190565b6020808252818101527f537472696e67733a20686578206c656e67746820696e73756666696369656e74604082015260600190565b6020808252601f908201527f45434453413a20696e76616c6964207369676e6174757265206c656e67746800604082015260600190565b60208082526004908201527f4530303100000000000000000000000000000000000000000000000000000000604082015260600190565b60208082526004908201527f4530303200000000000000000000000000000000000000000000000000000000604082015260600190565b60208082526022908201527f45434453413a20696e76616c6964207369676e6174757265202773272076616c60408201527f7565000000000000000000000000000000000000000000000000000000000000606082015260800190565b60208082526004908201527f4530303000000000000000000000000000000000000000000000000000000000604082015260600190565b6020808252602f908201527f416363657373436f6e74726f6c3a2063616e206f6e6c792072656e6f756e636560408201527f20726f6c657320666f722073656c660000000000000000000000000000000000606082015260800190565b600082198211156114f1576114f1611577565b500190565b600081600019048311821515161561151057611510611577565b500290565b60005b83811015611530578181015183820152602001611518565b8381111561153f576000848401525b50505050565b60008161155457611554611577565b506000190190565b600060001982141561157057611570611577565b5060010190565b634e487b7160e01b600052601160045260246000fdfea2646970667358221220a2effa93e9ed1dadd3d774d1766492fb6eab741893c73b4b08a355e4659e4ac764736f6c6343000800003321702c8af46127c7fa207f89d0b0a8441bb32959a0ac7df790e9ab1a25c9892664d8801b4a0e42a754f0b4beb0161164d284e2b3700ab1efe91dd0187772f471",
    "devdoc": {
        "kind": "dev",
        "methods": {
            "getRoleAdmin(bytes32)": {
                "details": "Returns the admin role that controls `role`. See {grantRole} and {revokeRole}. To change a role's admin, use {_setRoleAdmin}."
            },
            "grantRole(bytes32,address)": {
                "details": "Grants `role` to `account`. If `account` had not been already granted `role`, emits a {RoleGranted} event. Requirements: - the caller must have ``role``'s admin role. May emit a {RoleGranted} event."
            },
            "hasRole(bytes32,address)": {
                "details": "Returns `true` if `account` has been granted `role`."
            },
            "renounceRole(bytes32,address)": {
                "details": "Revokes `role` from the calling account. Roles are often managed via {grantRole} and {revokeRole}: this function's purpose is to provide a mechanism for accounts to lose their privileges if they are compromised (such as when a trusted device is misplaced). If the calling account had been revoked `role`, emits a {RoleRevoked} event. Requirements: - the caller must be `account`. May emit a {RoleRevoked} event."
            },
            "revokeRole(bytes32,address)": {
                "details": "Revokes `role` from `account`. If `account` had been granted `role`, emits a {RoleRevoked} event. Requirements: - the caller must have ``role``'s admin role. May emit a {RoleRevoked} event."
            },
            "supportsInterface(bytes4)": {
                "details": "See {IERC165-supportsInterface}."
            }
        },
        "version": 1
    },
    "userdoc": {
        "kind": "user",
        "methods": {
            "add(bytes32,address,bytes)": {
                "notice": "Add an item"
            },
            "toAddress(bytes32)": {
                "notice": "Mapping for converting email to wallet address"
            },
            "toHash(address)": {
                "notice": "Mapping for converting wallet address to email"
            },
            "update(bytes32,address,bytes,address,bytes)": {
                "notice": "Update an item"
            }
        },
        "notice": "Contract for converting e-mail to wallet",
        "version": 1
    },
    "storageLayout": {
        "storage": [
            {
                "astId": 24,
                "contract": "link-email-wallet-osx-artifacts/contracts/LinkCollection.sol:LinkCollection",
                "label": "_roles",
                "offset": 0,
                "slot": "0",
                "type": "t_mapping(t_bytes32,t_struct(RoleData)19_storage)"
            },
            {
                "astId": 5083,
                "contract": "link-email-wallet-osx-artifacts/contracts/LinkCollection.sol:LinkCollection",
                "label": "toAddress",
                "offset": 0,
                "slot": "1",
                "type": "t_mapping(t_bytes32,t_address)"
            },
            {
                "astId": 5088,
                "contract": "link-email-wallet-osx-artifacts/contracts/LinkCollection.sol:LinkCollection",
                "label": "toHash",
                "offset": 0,
                "slot": "2",
                "type": "t_mapping(t_address,t_bytes32)"
            },
            {
                "astId": 5092,
                "contract": "link-email-wallet-osx-artifacts/contracts/LinkCollection.sol:LinkCollection",
                "label": "nonce",
                "offset": 0,
                "slot": "3",
                "type": "t_mapping(t_address,t_uint256)"
            }
        ],
        "types": {
            "t_address": {
                "encoding": "inplace",
                "label": "address",
                "numberOfBytes": "20"
            },
            "t_bool": {
                "encoding": "inplace",
                "label": "bool",
                "numberOfBytes": "1"
            },
            "t_bytes32": {
                "encoding": "inplace",
                "label": "bytes32",
                "numberOfBytes": "32"
            },
            "t_mapping(t_address,t_bool)": {
                "encoding": "mapping",
                "key": "t_address",
                "label": "mapping(address => bool)",
                "numberOfBytes": "32",
                "value": "t_bool"
            },
            "t_mapping(t_address,t_bytes32)": {
                "encoding": "mapping",
                "key": "t_address",
                "label": "mapping(address => bytes32)",
                "numberOfBytes": "32",
                "value": "t_bytes32"
            },
            "t_mapping(t_address,t_uint256)": {
                "encoding": "mapping",
                "key": "t_address",
                "label": "mapping(address => uint256)",
                "numberOfBytes": "32",
                "value": "t_uint256"
            },
            "t_mapping(t_bytes32,t_address)": {
                "encoding": "mapping",
                "key": "t_bytes32",
                "label": "mapping(bytes32 => address)",
                "numberOfBytes": "32",
                "value": "t_address"
            },
            "t_mapping(t_bytes32,t_struct(RoleData)19_storage)": {
                "encoding": "mapping",
                "key": "t_bytes32",
                "label": "mapping(bytes32 => struct AccessControl.RoleData)",
                "numberOfBytes": "32",
                "value": "t_struct(RoleData)19_storage"
            },
            "t_struct(RoleData)19_storage": {
                "encoding": "inplace",
                "label": "struct AccessControl.RoleData",
                "members": [
                    {
                        "astId": 16,
                        "contract": "link-email-wallet-osx-artifacts/contracts/LinkCollection.sol:LinkCollection",
                        "label": "members",
                        "offset": 0,
                        "slot": "0",
                        "type": "t_mapping(t_address,t_bool)"
                    },
                    {
                        "astId": 18,
                        "contract": "link-email-wallet-osx-artifacts/contracts/LinkCollection.sol:LinkCollection",
                        "label": "adminRole",
                        "offset": 0,
                        "slot": "1",
                        "type": "t_bytes32"
                    }
                ],
                "numberOfBytes": "64"
            },
            "t_uint256": {
                "encoding": "inplace",
                "label": "uint256",
                "numberOfBytes": "32"
            }
        }
    }
}