{
    "address": "0xb9CE93eeb00a74Deeec319cBCD37938b5aAE6314",
    "abi": [
        {
            "inputs": [
                {
                    "internalType": "address",
                    "name": "_validatorAddress",
                    "type": "address"
                }
            ],
            "stateMutability": "nonpayable",
            "type": "constructor"
        },
        {
            "anonymous": false,
            "inputs": [
                {
                    "indexed": false,
                    "internalType": "string",
                    "name": "currency",
                    "type": "string"
                },
                {
                    "indexed": false,
                    "internalType": "uint256",
                    "name": "price",
                    "type": "uint256"
                }
            ],
            "name": "SetPrice",
            "type": "event"
        },
        {
            "inputs": [],
            "name": "MULTIPLE",
            "outputs": [
                {
                    "internalType": "uint256",
                    "name": "",
                    "type": "uint256"
                }
            ],
            "stateMutability": "view",
            "type": "function"
        },
        {
            "inputs": [
                {
                    "internalType": "string",
                    "name": "_currency",
                    "type": "string"
                }
            ],
            "name": "get",
            "outputs": [
                {
                    "internalType": "uint256",
                    "name": "",
                    "type": "uint256"
                }
            ],
            "stateMutability": "view",
            "type": "function"
        },
        {
            "inputs": [
                {
                    "internalType": "string",
                    "name": "",
                    "type": "string"
                }
            ],
            "name": "prices",
            "outputs": [
                {
                    "internalType": "uint256",
                    "name": "",
                    "type": "uint256"
                }
            ],
            "stateMutability": "view",
            "type": "function"
        },
        {
            "inputs": [
                {
                    "internalType": "string",
                    "name": "_currency",
                    "type": "string"
                },
                {
                    "internalType": "uint256",
                    "name": "_price",
                    "type": "uint256"
                }
            ],
            "name": "set",
            "outputs": [],
            "stateMutability": "nonpayable",
            "type": "function"
        },
        {
            "inputs": [],
            "name": "validatorAddress",
            "outputs": [
                {
                    "internalType": "address",
                    "name": "",
                    "type": "address"
                }
            ],
            "stateMutability": "view",
            "type": "function"
        }
    ],
    "transactionHash": "0xe7170071b743badee4e7a1c36a71b2ed10831ebef8255714e4f9bdbe1bcf253d",
    "args": [
        "0x979a62090BDCff36F2e140F6915fbAdA7510cb6a"
    ],
    "numDeployments": 1,
    "solcInputHash": "a7b1b71c1f5d4e04a8f1a0f0fa51eebb",
    "bytecode": "0x608060405234801561001057600080fd5b5060405161071b38038061071b83398101604081905261002f9161005e565b600180546001600160a01b039092166001600160a01b031992831681179091556002805490921617905561008c565b60006020828403121561006f578081fd5b81516001600160a01b0381168114610085578182fd5b9392505050565b6106808061009b6000396000f3fe608060405234801561001057600080fd5b50600436106100675760003560e01c80637516a79e116100505780637516a79e146100aa5780638a42ebe9146100b2578063c3825f4b146100c757610067565b80633fe4676e1461006c578063693ec85e1461008a575b600080fd5b6100746100da565b60405161008191906104f1565b60405180910390f35b61009d61009836600461043f565b6100f6565b6040516100819190610584565b61009d61011d565b6100c56100c036600461047a565b610125565b005b61009d6100d536600461043f565b610366565b60015473ffffffffffffffffffffffffffffffffffffffff1681565b6000808260405161010791906104d5565b9081526020016040518091039020549050919050565b633b9aca0081565b336000805b600260009054906101000a900473ffffffffffffffffffffffffffffffffffffffff1673ffffffffffffffffffffffffffffffffffffffff1663de4847c46040518163ffffffff1660e01b815260040160206040518083038186803b15801561019257600080fd5b505afa1580156101a6573d6000803e3d6000fd5b505050506040513d601f19601f820116820180604052508101906101ca91906104bd565b8110156102c3576002546040517f9c318c7b00000000000000000000000000000000000000000000000000000000815273ffffffffffffffffffffffffffffffffffffffff90911690639c318c7b90610227908490600401610584565b60206040518083038186803b15801561023f57600080fd5b505afa158015610253573d6000803e3d6000fd5b505050506040513d601f19601f820116820180604052508101906102779190610404565b73ffffffffffffffffffffffffffffffffffffffff168373ffffffffffffffffffffffffffffffffffffffff1614156102b357600191506102c3565b6102bc816105bd565b905061012a565b5080610304576040517f08c379a00000000000000000000000000000000000000000000000000000000081526004016102fb9061054d565b60405180910390fd5b8260008560405161031591906104d5565b9081526020016040518091039020819055507f14735e2c0cd7e16a25f316cdd058b58299fc5f725b090e11835ca139a28034058484604051610358929190610512565b60405180910390a150505050565b805160208183018101805160008252928201919093012091525481565b600082601f830112610393578081fd5b813567ffffffffffffffff808211156103ae576103ae61061b565b6040516020601f19601f85011682010181811083821117156103d2576103d261061b565b6040528281528483016020018610156103e9578384fd5b82602086016020830137918201602001929092529392505050565b600060208284031215610415578081fd5b815173ffffffffffffffffffffffffffffffffffffffff81168114610438578182fd5b9392505050565b600060208284031215610450578081fd5b813567ffffffffffffffff811115610466578182fd5b61047284828501610383565b949350505050565b6000806040838503121561048c578081fd5b823567ffffffffffffffff8111156104a2578182fd5b6104ae85828601610383565b95602094909401359450505050565b6000602082840312156104ce578081fd5b5051919050565b600082516104e781846020870161058d565b9190910192915050565b73ffffffffffffffffffffffffffffffffffffffff91909116815260200190565b600060408252835180604084015261053181606085016020880161058d565b602083019390935250601f91909101601f191601606001919050565b6020808252600d908201527f4e6f742076616c696461746f7200000000000000000000000000000000000000604082015260600190565b90815260200190565b60005b838110156105a8578181015183820152602001610590565b838111156105b7576000848401525b50505050565b60007fffffffffffffffffffffffffffffffffffffffffffffffffffffffffffffffff821415610614577f4e487b710000000000000000000000000000000000000000000000000000000081526011600452602481fd5b5060010190565b7f4e487b7100000000000000000000000000000000000000000000000000000000600052604160045260246000fdfea264697066735822122048341e521855914fb8774fa8294848129650a4ae265510b6d018db295f581b1664736f6c63430008000033",
    "devdoc": {
        "kind": "dev",
        "methods": {
            "constructor": {
                "params": {
                    "_validatorAddress": "검증자컬랙션의 주소"
                }
            },
            "get(string)": {
                "params": {
                    "_currency": "통화명"
                }
            },
            "set(string,uint256)": {
                "params": {
                    "_currency": "통화명",
                    "_price": "토큰의 가격"
                }
            }
        },
        "version": 1
    },
    "userdoc": {
        "events": {
            "SetPrice(string,uint256)": {
                "notice": "가격이 저장될 때 발생되는 이벤트"
            }
        },
        "kind": "user",
        "methods": {
            "constructor": {
                "notice": "생성자"
            },
            "get(string)": {
                "notice": "통화에 대한 가격을 제공한다."
            },
            "set(string,uint256)": {
                "notice": "통화에 대한 가격을 저장한다."
            }
        },
        "notice": "토큰 가격을 제공하는 스마트컨트랙트",
        "version": 1
    },
    "storageLayout": {
        "storage": [
            {
                "astId": 3662,
                "contract": "contracts/TokenPrice.sol:TokenPrice",
                "label": "prices",
                "offset": 0,
                "slot": "0",
                "type": "t_mapping(t_string_memory_ptr,t_uint256)"
            },
            {
                "astId": 3664,
                "contract": "contracts/TokenPrice.sol:TokenPrice",
                "label": "validatorAddress",
                "offset": 0,
                "slot": "1",
                "type": "t_address"
            },
            {
                "astId": 3667,
                "contract": "contracts/TokenPrice.sol:TokenPrice",
                "label": "validatorCollection",
                "offset": 0,
                "slot": "2",
                "type": "t_contract(ValidatorCollection)4414"
            }
        ],
        "types": {
            "t_address": {
                "encoding": "inplace",
                "label": "address",
                "numberOfBytes": "20"
            },
            "t_contract(ValidatorCollection)4414": {
                "encoding": "inplace",
                "label": "contract ValidatorCollection",
                "numberOfBytes": "20"
            },
            "t_mapping(t_string_memory_ptr,t_uint256)": {
                "encoding": "mapping",
                "key": "t_string_memory_ptr",
                "label": "mapping(string => uint256)",
                "numberOfBytes": "32",
                "value": "t_uint256"
            },
            "t_string_memory_ptr": {
                "encoding": "bytes",
                "label": "string",
                "numberOfBytes": "32"
            },
            "t_uint256": {
                "encoding": "inplace",
                "label": "uint256",
                "numberOfBytes": "32"
            }
        }
    }
}